:020000040000FA
:1000000058FFFF1F67010000730100007501000029
:1000100000000000000000000000000000000000E0
:100020000000000000000000000000007701000058
:10003000000000000000000079010000F51500003C
:100040007D0100007D0100007D0100007D010000B8
:100050007D0100007D0100007D0100009D10000079
:100060007D0100007D0100007D0100007D01000098
:10007000D5170000DF170000E9170000A9030000F2
:100080007D0100007D0100007D0100007D01000078
:10009000DD1400007D0100007D0100007D010000F5
:1000A0004D1100007D0100007D0100007D01000078
:1000B0007D0100007D0100007D0100007D01000048
:1000C00000F002F800F03EF80CA030C80838241800
:1000D0002D18A246671EAB4654465D46AC4201D180
:1000E00000F030F87E460F3E0FCCB6460126334274
:1000F00000D0FB1AA246AB4633431847501C000001
:10010000701C0000103A02D378C878C1FAD85207A0
:1001100001D330C830C101D504680C6070470000BD
:100120000023002400250026103A01D378C1FBD813
:10013000520700D330C100D50B6070471FB51FBDFB
:1001400010B510BD00F002F91146FFF7F7FF01F0FE
:1001500031FD00F01AF903B4FFF7F2FF03BC00F021
:100160001DF9000070470948804709488047094841
:100170000047FEE7FEE7FEE7FEE7FEE7FEE70000DA
:1001800005480649044A064B70470000471700001F
:1001900065010000C100000058FEFF1F58FFFF1F4F
:1001A00058FEFF1F01E004C0091F0429FBD28B0782
:1001B00001D50280801CC90700D002707047002959
:1001C0000BD0C30702D00270401C491E022904D381
:1001D000830702D50280801C891EE3E70022EEE738
:1001E0000022DFE7002203098B422CD3030A8B4253
:1001F00011D300239C464EE003460B433CD400221F
:1002000043088B4231D303098B421CD3030A8B4230
:1002100001D394463FE0C3098B4201D3CB01C01AFE
:10022000524183098B4201D38B01C01A52414309C9
:100230008B4201D34B01C01A524103098B4201D3B7
:100240000B01C01A5241C3088B4201D3CB00C01A24
:10025000524183088B4201D38B00C01A524143089C
:100260008B4201D34B00C01A5241411A00D20146C1
:100270005241104670475DE0CA0F00D0494203105A
:1002800000D34042534000229C4603098B422DD3A9
:10029000030A8B4212D3FC22890112BA030A8B4251
:1002A0000CD3890192118B4208D3890192118B42A0
:1002B00004D389013AD0921100E08909C3098B4225
:1002C00001D3CB01C01A524183098B4201D38B0168
:1002D000C01A524143098B4201D34B01C01A52410B
:1002E00003098B4201D30B01C01A5241C3088B4250
:1002F00001D3CB00C01A524183088B4201D38B003B
:10030000C01A5241D9D243088B4201D34B00C01AC4
:100310005241411A00D20146634652415B101046D9
:1003200001D34042002B00D54942704763465B1021
:1003300000D3404201B50020C046C04602BD704710
:100340007047704700487047F8FDFF1F7546FFF77C
:10035000F9FFAE46050069465346C008C000854611
:1003600018B020B5FFF70CFF60BC00274908B6465F
:100370000026C0C5C0C5C0C5C0C5C0C5C0C5C0C5B4
:10038000C0C5403D49008D46704710B50446C04683
:10039000C0462046FFF7DFFE10BD70470149182018
:1003A000ABBEFEE726000200704701218903086802
:1003B00080F3088848688047FEE710B501F068FCC4
:1003C00010BD10B501F00EF910BD10B5002001F000
:1003D000A1FC10BD10B5E12464022146002001F00B
:1003E00037F92146012001F033F92146022001F0BE
:1003F0002FF910BD10B501F085FB10BD00887047C6
:10040000FFFFFFFFFFFFFFFFFFFFFFFFFFFFFEFEFE
:1004100070B53A4E3079B41DF02802D2FF2000F0BA
:1004200085F9307901280ED00021082818D0FF283E
:1004300008D13348F278C07B824203D13048803003
:10044000C171817170BD7079042807D00A28F9D173
:100450000C220121084600F0D3FF70BD0322F8E70B
:10046000707901280ED0274D022814D0032825D0FA
:100470000428F2D172B601F0B5F800F0BBFFFFF727
:1004800094FFFEE720780028E7D11F480222816808
:100490001143816070BD207861780002401829887E
:1004A00080B28842F6D1B078A11C093882B21548D2
:1004B000803801F0D8FB0120287670BD6960207873
:1004C000000668606278120410436860A278120225
:1004D00010436860E278A9601043686020790006E4
:1004E000A860617909040843A860A179090208435A
:1004F000A860E1790843A86070BD000094FAFF1F6E
:1005000094FBFF1F9CFCFF1FFCF0FF1FF8B57E4D06
:100510000027681E6E1DEC1DF934009091E0FFF776
:1005200069FF7A4861780078022806D00B0001F054
:1005300033FB06424A525A646F88002906D00129CB
:100540000DD0022916D003297BD11DE001226E496E
:1005500001F055FA2878AA2873D101204BE0012236
:10056000691C01F04CFA6878552801D0677068E082
:10057000022040E00122A91C01F041FAA878207075
:100580000328F3D9032036E02178C91E8AB2E91C7A
:1005900001F035FA00285BD02078401EC1B25A48DD
:1005A00000F05AFC22780099515C884201D1FFF793
:1005B0002FFF67702AE00122534901F020FA2878C2
:1005C00041283ED1C9E70122691C01F018FA687878
:1005D000542836D1CCE70122A91C01F010FAA878E2
:1005E0002D282ED1CEE70122E91C01F008FAE87887
:1005F000422826D10420607023E00122291D01F049
:10060000FEF9287920281CD105206070277018E099
:1006100021780122891901F0F2F90A223CA1681D12
:1006200001F010FB012814D00A223CA1681D01F042
:1006300009FB01280DD02078815D0D295FD0401C79
:1006400020703248007801F0D5F9002800D066E724
:10065000F8BD697C00202C2905D0AA7C2C2A02D068
:10066000EA7C2C2A27D1EA7B202A24D12C2906D007
:10067000AA7C2C2A08D0EB7C2C2B0ED01BE0287CEB
:100680003138C0B2112214E0287C0A22303850439D
:1006900030380818C0B212220BE02B7C6420303BAB
:1006A0004343D0180A2251431F4A89184018C0B248
:1006B00013221649CA70217802460E3291421BD38A
:1006C000002819D0885D0D2814D11048C078291849
:1006D000CA780D48491C01F0C6FAA878401EC1B27C
:1006E000094800F0B9FBAA780099515C884201D111
:1006F000FFF78EFE277039E7491C2170A1E7681DBE
:1007000000F04EF8F6E7000094FAFF1F6CF0FF1FB0
:1007100053505044415441494E440000424C4544DA
:10072000415441494E440000F1FDFFFF30B585B012
:1007300041216A461170542151703E21917001216E
:10074000154C1171A278002A01D1627802216A4603
:10075000D17000215171092393718023D3711172DB
:100760000D25557255219172AA21D172062111735E
:100770000A49C97851739073104605210A3000F078
:100780006BFB6A46D073157411226946207801F01C
:100790004CF905B030BD00006CF0FF1F94FAFF1F4C
:1007A000F8B50746092220A101F04CFA082221A140
:1007B000384601F047FA01260025214C012807D0D0
:1007C000082220A1384601F03DFA012803D006E0B6
:1007D000A570667000E06570012000F0A1FF08229E
:1007E0001BA1384601F02EFA012807D008221BA1D0
:1007F000384601F027FA012803D006E06570A6709C
:1008000000E0A570012000F08BFF082216A13846F9
:1008100001F018FA012801D100F082FF082215A189
:10082000384601F00FFAF8BD44415441494E49544D
:1008300020000000535050434F4E4E200000000057
:100840006CF0FF1F535050444953432000000000F8
:10085000424C45434F4E4E2000000000424C454460
:10086000495343200000000053505044415441205C
:1008700000000000534E4B494E4954200000000038
:100880000948002181610949416107210161084846
:10089000C16903220902090A92071143C16105498E
:1008A000400708607047000000E000E0FF700200B1
:1008B00004ED00E000E100E01CB569460888042171
:1008C00008431821884340210843FF21833188438E
:1008D0006946803008807D20400148800020888063
:1008E000684601F01DF901F0FDF81CBD10B5044685
:1008F000083000F05FFD606800F094FB0F4801785D
:10090000FB221140017001788906890E8031017047
:100910004178EF221140417001790907890F0229BE
:10092000FAD10179C906FCD44178C906C90E4170D3
:10093000017980221143017110BD00000040064082
:1009400010B50446083000F035FD606800F06AFB21
:1009500009480178FB22114001700179C906FCD4D5
:1009600001794906FCD54178C906C90E4170017963
:1009700080221143017110BD0040064010B50446AD
:10098000083000F017FD606800F04CFB0948017862
:10099000FB22114001700179C906FCD40179490696
:1009A000FCD54178C906C90E4170017980221143F6
:1009B000017110BD0040064030B50024810701D010
:1009C000154830BD154D30216971002169700A212B
:1009D0006972010C2972012169702872000A68721B
:1009E000084600F053F86879800601D50A4CE41DEA
:1009F0006879C00602D508480F3004436879C007FB
:100A000002D00548103004436879800702D50248B7
:100A100011300443204630BD013000000000024088
:100A200070B500241549FFF7DDFB401EC1B2144824
:100A30004279120601D4134870BDC2785306124A97
:100A400012D4C3781B0607D5C3788D069B069B0E70
:100A5000AD0EAB4200D01446C278890692099201CD
:100A6000890E0A43C27007E0C07889068006800EAE
:100A7000890E884200D01446204670BD40420F00C7
:100A80000000024014300000183000000749CA6816
:100A900001231B041A43CA60054980224A710028B9
:100AA00002D048790006FCD570470000003000F005
:100AB0000000024030B50024820701D01B4830BD41
:100AC0001B4D30226A7100226A7006226A72020C83
:100AD0002A7201226A702872000A68720220687005
:100AE000080A6872297203206870080E6872080C80
:100AF00028721046FFF7CAFF6879800601D50B4CB3
:100B0000E41D6879C00602D508480F3004436879AF
:100B1000C00702D00548103004436879800702D529
:100B2000024811300443204630BD0000013000006F
:100B30000000024030B50025830701D0204830BDB9
:100B4000204C302363710023637006236372030C0F
:100B50002372012363702072000A607202206070A9
:100B6000080A6072217203206070080E6072080C1F
:100B7000207204206070100A60722272052060707A
:100B8000100E6072100C20720120FFF77FFF607959
:100B9000800601D50A4DED1D6079C00602D50848D2
:100BA0000F3005436079C00702D005481030054377
:100BB0006079800702D5024811300543284630BDD0
:100BC0000130000000000240F8B5064614460D460C
:100BD000800741D112E0284601F090F803462D1D10
:100BE000284601F08BF80246194630462D1DFFF7C6
:100BF000A1FF002830D1083CA4B20836E008EAD1B1
:100C00000CE0284601F07AF8014630462D1DFFF72A
:100C100051FF002820D1241FA4B2361DA008F0D116
:100C2000002C1BD000210846FF2701E0002C07D034
:100C30002A78C3009A40641E1143A4B26D1C03E0DD
:100C4000C3003A469A401143401C0428EED3304674
:100C5000FFF730FF002801D00020F8BD0120F8BDCB
:100C60000121202802D28140084805E0402805D211
:100C70002038814005484030816070474828FCD2C8
:100C80004038814001488030F6E7000000F00F4016
:100C900030B50124624B20282DD20122614D8240C3
:100CA00000290FD0012913D002291AD0032921D1FC
:100CB000696911436961A9691143A96199689143FF
:100CC000996065E0686910436861A869104304E0B1
:100CD000686990436861A8699043A86198689043E7
:100CE00007E0686990436861A8699043A8619868C3
:100CF0001043986030BD402833D24A4A20384032F1
:100D0000C0B2002911D0012916D002291ED0032912
:100D1000F0D15569214681400D43556195690D43D8
:100D20009561DA688A43DA6032E051698440214390
:100D300051619069204305E051698440A1435161AC
:100D40009069A0439061D868A04308E0516984404D
:100D5000A14351619069A0439061D8682043D86055
:100D600030BD304A40388032C0B200291ED001293F
:100D700023D002292BD00329F2D155692146814085
:100D80000D43556195690D4395611A698A431A614E
:100D900020283BD026DC0C282ED00D2830D0182857
:100DA00031D01928DCD15869082123E051698440E9
:100DB000214351619069204305E051698440A1437A
:100DC00051619069A04390611869A04308E051699E
:100DD0008440A14351619069A04390611869204308
:100DE000186130BD212814D0382815D03928F8D101
:100DF00058698021084301E058692043586130BD9B
:100E000058690221F6E758690421F3E7586910216F
:100E1000F0E758692021EDE758694021EAE7000032
:100E20000090044000F00F400121202802D28140B0
:100E3000084805E0402805D2203881400548403068
:100E4000416070474828FCD24038814001488030DA
:100E5000F6E7000000F00F400246002002E01378A1
:100E60005840521C0B46491EC9B2002BF7D170479F
:100E7000F8B50E460446451E17466421401EFFF78E
:100E8000BBF9E917890F4919891009190D1AFF21B2
:100E90009131601EFFF7B0F91249281889192039DD
:100EA000C97F0D18022E0ED9A00705D16421204656
:100EB000FFF7A2F9002910D1FF2191312046FFF759
:100EC0009BF9002909D000204019C0190721401DB5
:100ED000FFF792F9002902D002E00120F4E7072190
:100EE000C8B2F8BD401D0000F8B51D4F39787879BB
:100EF000491CC9B23A79BD79044639703C292DD3D1
:100F000000233B707978491CC9B279703C2925D3FC
:100F10007B70B978491CC9B2B97018291ED3521C0C
:100F2000BB70D6B2002100F01DF886420BD9301AF2
:100F3000641CE4B2C6B20C2C05D96D1C0124EDB2C0
:100F4000642D00D100253E717D20BD7100017C71B2
:100F5000324621462818FFF78BFFF870F8BD0000D5
:100F600071F0FF1F1EB5024607A019C80090684621
:100F70008018029401932038C07F022A02D10129EF
:100F800000D11D201EBD00001F1C1F1E1F1E1F1F85
:100F90001E1F1E1F034A000110B58018012200F019
:100FA00075FA10BD7CF0FF1F10B572B600F01AFB89
:100FB00000F07CF807480021417600F085F800F049
:100FC00087FDFFF707FA0448022281689143816098
:100FD00010BD00009CFCFF1FFCF0FF1F00B5017856
:100FE00002290AD0EF2203290ED0052912D00C487D
:100FF0004178C906C90E417000BD017A3022114303
:101000000172FFF79DFC00BD017A11400172FFF7EC
:10101000B5FC00BD017A11400172FFF767FC00BD0D
:101020000040064030B5124B7D24C51A1149C72235
:101030006401984206D009DC202814D0001B0ED091
:10104000A04213D10878104018300EE00A48281842
:1010500001D0A0420AD108781040203005E008787D
:101060001040103001E008781040087030BD0000DA
:10107000102700000040064090E8FFFF06498870F6
:10108000CA78C00552085200C00F0243CA700879DE
:101090004006FCD570470000004006400248017839
:1010A00004221143017070470010034010B57F24E3
:1010B000A4022046FFF780FC02492046FFF7FAFC15
:1010C00010BD00005555AAAA10B57F24A4022046E1
:1010D000FFF772FC02492046FFF7ECFC10BD000050
:1010E000AAAA55557F20800200680549884202D08F
:1010F000C943884201D10120704700207047000099
:101100005555AAAA7F20800200680349884201D170
:101110000120704700207047AAAA5555FF204002C1
:1011200000680349884201D10120704700207047C0
:101130005555AAAAFF20400200680349884201D100
:10114000012070470020704755AA55AABFF34F8F62
:1011500003490248C860BFF34F8FFEE70400FA0559
:1011600000ED00E0F8B53E4C002569460120FFF790
:1011700011FF002872D0684640880027C6B2684632
:101180000078012802D0082820D10FE0032E02D0D9
:101190000C2E1BD106E010252A4632A1204600F075
:1011A00062FD13E00120207005460FE0012E03D000
:1011B000022E04D0032E09D12770677005E02D4858
:1011C0000188090A2170007860700225244C4120B2
:1011D000123CA0705420E0703E202071012060710C
:1011E00025488078002801D0012002E0224840787C
:1011F0000220A0712846E7710A30207280206072B8
:10120000A7720D20E07255202073AA206073ED1D97
:10121000A573E07B6D1E401CE07368460078207467
:101220000F486674801FE9B20646FFF715FE0C4DA5
:101230006E35E870A27B294675395054A17B0D208C
:101240008855A27B0C4829467E3900780B3200F085
:10125000ECFB0120E8712F716F71A871F8BD0000DF
:10126000A6FBFF1F424F4F542E302E313830353100
:10127000382E30009CFCFF1F6CF0FF1FF8B53A4C75
:101280000326617E002520690B0000F085FC050423
:101290000C184F5A4A0001220821104600F0B0F8FD
:1012A000012025615AE06168002901D0258036E0DF
:1012B00019214901884234D3012225613CE0217E75
:1012C00000292FD02849002080390B5CE268401C9F
:1012D000D218C0B2E2608028F7D32088234F81075C
:1012E00004D180084002C019FFF766FB20881E4920
:1012F000C001C01980228039FFF766FC257661683D
:1013000020887F31C909401C884201D3256124E02F
:101310002080154880220021803800F0AFFC6561F4
:101320006676F8BD6428FCD32561F8E76069192862
:10133000F7D30220607602460821012000F060F811
:10134000F8BD7D2809D32561E168A068814207D1F5
:1013500003220821012000F053F804206076F8BD34
:1013600000F0B6FB6576F8BD9CFCFF1F0040000056
:101370008307FF22DB0E9A408907090E9940002857
:101380000BDA0007000F0838830808489B0018187C
:10139000C36993430B43C3617047830804489B00B0
:1013A0001818036893430B430360704700ED00E097
:1013B00000E400E002780021930700D50221D30762
:1013C00001D004231943130701D520231943D30661
:1013D00001D510231943520701D580221143044A35
:1013E00011700078800602D51078C007FCD07047D5
:1013F0000050064010B57F208002FFF7DDFA10BDD7
:1014000008B56B461970044900015A804018012242
:10141000694600F003F808BD7CF0FF1FF8B50F46E1
:101420000446E188164600880025891B884201DDB4
:101430000020F8BD72B60DE04019FEF7D3FE2289F8
:10144000E0685143081811466943C91900F00BFCC4
:101450006D1CADB2E1886088B542EDD38019FEF70E
:10146000C1FE618020888019208062B60120F8BD0D
:1014700010B50021018041808180C1880289C06847
:1014800051438AB2002100F0F9FB10BDF8B50446C3
:101490000088164600250F46B04201D20020F8BD54
:1014A00072B60DE04019FEF79DFE2289E0685143B7
:1014B000091810466843C01900F0D5FB6D1CADB289
:1014C000E188A088B542EDD38019FEF78BFEA1809C
:1014D0002088801B208062B60120F8BD10B504482A
:1014E0000168802211430160FFF7FEFC10BD00007F
:1014F00000D0034010B5114C2078410702D5FB21E4
:1015000008402070C0B2010704D5F72108402070C0
:1015100000F052F92078C10602D5EF210840207072
:10152000C0B2C10909D04006400E20700121A06858
:10153000C9040843A06000F035F910BDFCF0FF1F9E
:1015400030B502680E210469D30400D50C211305BF
:1015500001D504239943530501D508239943D307A3
:1015600002D00123DB041943530702D501239B0357
:101570001943130702D501231B031943930702D50F
:101580000123DB031943930501D520231943437934
:101590005B075B0B0B4301790D06D1051D43490F1A
:1015A000C36882680905034829434160C2604361FA
:1015B000446230BD0080044070B50125084C6D04C4
:1015C000012806D00A20FFF74BFBA068A843A060C3
:1015D00070BD0A20FFF728FCA0682843F7E7000049
:1015E000FCF0FF1F10B50248FFF71AFA10BD00000B
:1015F000002D310170B5144D04212C69641C2C613F
:10160000287808432870E10702D108210843287090
:10161000A00703D12878102108432870600703D160
:10162000287820210843287019212046FEF7DAFD8A
:10163000002903D128788021084328700348844278
:1016400001D10020286170BDFCF0FF1FB80B000025
:10165000FEB504002448254E254D0291019009D085
:1016600024497700012C12D0022C2BD0032C1FD040
:101670000020FEBD204F6946384600F021F90221C6
:10168000384600F0E9F82E6001210C200EE00869D0
:10169000B0430861194E6946304600F011F9022145
:1016A000304600F0D9F82F6001210D20FFF760FED1
:1016B0000121204600F070F90021204600F06CF96D
:1016C0000120FEBD0869B84308610D4E69463046E9
:1016D00000F0F6F80221304600F0BEF80120800349
:1016E000286001210E20E1E7002D310100100000EB
:1016F00000E100E00080044000A0064000B0064089
:1017000000C00640022000E000BF0146401EC0B2FB
:101710000029F9D100BF00BF00BF00BF00BF704764
:1017200010B57D240346E40002E0204600F003F8F3
:101730005B1EFAD210BD00B5024601E0FFF7E2FFE2
:10174000521EFBD200BD704710480F498180012115
:101750004170232101700E484178202211434170CD
:101760000C4A002151620622027042781207120FC1
:1017700020324270084A11700179C906FCD50179FE
:101780000907890FFBD1704703E8000000200540DE
:1017900000400640008004400050064010B5FFF7AE
:1017A000E1FC10BD10B50348007A800701D5FFF7B2
:1017B000FBFB10BDFCF0FF1F10B505480169491C7B
:1017C00001614169491C4161FFF7E8FF10BD00005C
:1017D0009CFCFF1F10B5002000F0A8F810BD10B54C
:1017E000012000F0A3F810BD10B5022000F09EF813
:1017F00010BD00B50A4600F05DF801219140084097
:1018000000BD002910D0012912D0022915D00329CA
:1018100016D0042918D0052919D0FD22062901D097
:10182000072909D1817914E0C1784906490E02E0FF
:10183000C178BF2206E0C1707047C178DF2201E0A5
:10184000C178EF221140F6E78179F72201E0817932
:10185000FB22114081717047002910D0012911D05D
:10186000022914D0032915D0042916D0052917D030
:101870000222062901D0072908D1817912E0C17816
:10188000802201E0C17840221143C1707047C178C5
:101890002022F9E7C1781022F6E78179082201E0D9
:1018A0008179042211438171704701798906FCD541
:1018B000C0797047014640790979000208437047B2
:1018C00070B504464A68164B896816489C4203D195
:1018D000436901252D0508E0134B9C42436902D161
:1018E00001256D0501E00125AD052B434361E0783D
:1018F000F3231840E0700020A07010094A088018F7
:10190000FEF770FC2178C20449094901D20E0A434E
:1019100022706070E0780C210843E07070BD000018
:1019200000A006400080044000B0064070B50F4D96
:101930000646840028590521FFF75BFF002806D0E2
:101940002859FFF7B2FF0146304600F09FF82859AA
:101950000621FFF74EFF002806D02859C078400620
:1019600002D5304600F099F870BD000060F0FF1F0E
:1019700002791206FCD5C17170470000054A10B506
:10198000C000801889004058002801D0FEF736FDBD
:1019900010BD0000201D0000C200054810B5101841
:1019A00089004058002801D0FFF762FD10BD0000FB
:1019B000201D000010B51446054AC000801889009B
:1019C0004058002803D01A462146FFF75FFD10BD9E
:1019D000201D000010B51446054AC000801889007B
:1019E0004058002803D01A462146FFF717FD10BDC6
:1019F000201D000010B50021FFF7C0FF10BD1346E9
:101A000010B50A460021FFF7D5FF10BD10B5034AF7
:101A100080001058FFF7ACFF10BD000060F0FF1F02
:101A200010B50121FFF7AAFF10BD70B514460E4690
:101A30000546FFF7F5FF00282346324607D001216F
:101A40002846FFF7C7FF002800D0012070BD012104
:101A50002846FFF7BFFF0028F8D0284600F01DF801
:101A6000F3E7000010B50349800008580121FFF793
:101A7000C8FE10BD60F0FF1F10B503498000085874
:101A80000121FFF7E9FE10BD60F0FF1F13B5012330
:101A900001AA0021FFF79EFF1CBD38B50446FFF7E1
:101AA000BFFF002810D001236A4619462046FFF7E1
:101AB00081FF002807D0684601782046FFF7A6FF7F
:101AC0002046FFF7D9FF38BD2046FFF7CBFF38BDD2
:101AD00010B59C220021024800F0D0F810BD000093
:101AE0001CFCFF1F0448017880221143034A4280F6
:101AF000034A42800170704700200540C520000065
:101B0000D928000072B60349034841800349418047
:101B100062B67047A602000000200540B4800000B5
:101B200030B544888388008880210022850700D54D
:101B30000021C50701D040252943050701D501250E
:101B40002943C50601D504252943450701D50225AA
:101B50002943450601D520252943850600D5802245
:101B6000850501D510252A43C005850F1543084872
:101B7000064A4280074A428045704471220A027137
:101B8000C3711A0A8271017030BD0000C5200000C7
:101B900000200540D928000030B47446641E257822
:101BA000641CAB4200D21D46635D5B00E31830BC91
:101BB0001847000072B6FFF795FA002801D1FEF72A
:101BC000F4FBFFF79FFA00281AD0FFF7BDFDFEF7E0
:101BD000F4FBFEF755FEFEF76FFE00210720FFF72E
:101BE00057F800210A20FFF753F80120FFF7E4FC23
:101BF0000720FFF719F96420FFF792FDFEF7E1FBDC
:101C0000FFF762FAFFF78AFA0D4A002801D0012097
:101C100004E0FFF78FFA002801D002201070FFF7D0
:101C200057FFFEF7D7FBFEF7D0FB62B6FEF7E2FBED
:101C3000FFF724FBFFF75EFCFEF768FCF6E7000009
:101C40006CF0FF1F10B507E003780C78401C491CAE
:101C5000A34201D0002010BD1346521E92B2002BA9
:101C6000F2D1012010BD03E00B780370401C491C29
:101C70001346521E92B2002BF6D1704701E001705C
:101C8000401C1346521E92B2002BF8D17047000040
:101C900000B589B0142103A8FEF7A2FA0020154967
:101CA000009001900290088048805820FFF7E6F9E4
:101CB000012103980903084303900F49069808433C
:101CC00006900121079809060843079003A8FFF72B
:101CD00037FC6946087A05210843694608727D2069
:101CE00080010190022008706846FFF777F909B07B
:101CF00000BD000078F0FF1F0030700042780178CE
:101D000012020A438178C07809041143000608438F
:101D100070470000014988607047000000ED00E056
:101D200010F0FF1F00F0FF1F30F0FF1F20F0FF1F1B
:101D300050F0FF1F40F0FF1F0000000000000000F7
:101D40000104040702050703060104066C1D0000D8
:101D500000F0FF1FFC00000004010000681E0000EE
:101D6000FCF0FF1F5C0E00002001000000000000DE
:101D7000000000020100000014F1FF1F000000003D
:101D8000000000020100000014F3FF1F000000002B
:101D9000000000020100000014F5FF1F0000000019
:101DA000000000020100000014F7FF1F0000000007
:101DB000000080000100000014F9FF1F0000000077
:101DC000000000010100000094F9FF1F00A0064080
:101DD00000B0064000C00640000000000000000007
:101DE00000000000000000000000000000000A00E9
:101DF00004000000B8FCFF1F0000000000000A0003
:101E000004000000E0FCFF1F0000000000000A00CA
:101E10000400000008FDFF1F0000000000000A0091
:101E20000400000030FDFF1F0000000000000A0059
:101E30000400000058FDFF1F0000000000000A0021
:101E40000400000080FDFF1F0000000000000A00E9
:101E500004000000A8FDFF1F0000000000000A00B1
:081E600004000000D0FDFF1F8B
:04000005000000C136
:00000001FF
