:020000040000FA
:1000000058FFFF1F67010000730100007501000029
:1000100000000000000000000000000000000000E0
:100020000000000000000000000000007701000058
:10003000000000000000000079010000111600001F
:100040007D0100007D0100007D0100007D010000B8
:100050007D0100007D0100007D0100009D10000079
:100060007D0100007D0100007D0100007D01000098
:10007000F1170000FB17000005180000A90300009D
:100080007D0100007D0100007D0100007D01000078
:10009000F91400007D0100007D0100007D010000D9
:1000A0004D1100007D0100007D0100007D01000078
:1000B0007D0100007D0100007D0100007D01000048
:1000C00000F002F800F03EF80CA030C80838241800
:1000D0002D18A246671EAB4654465D46AC4201D180
:1000E00000F030F87E460F3E0FCCB6460126334274
:1000F00000D0FB1AA246AB46334318476C1C0000E5
:100100008C1C0000103A02D378C878C1FAD8520784
:1001100001D330C830C101D504680C6070470000BD
:100120000023002400250026103A01D378C1FBD813
:10013000520700D330C100D50B6070471FB51FBDFB
:1001400010B510BD00F002F91146FFF7F7FF01F0FE
:100150003FFD00F01AF903B4FFF7F2FF03BC00F013
:100160001DF9000070470948804709488047094841
:100170000047FEE7FEE7FEE7FEE7FEE7FEE70000DA
:1001800005480649044A064B704700006317000003
:1001900065010000C100000058FEFF1F58FFFF1F4F
:1001A00058FEFF1F01E004C0091F0429FBD28B0782
:1001B00001D50280801CC90700D002707047002959
:1001C0000BD0C30702D00270401C491E022904D381
:1001D000830702D50280801C891EE3E70022EEE738
:1001E0000022DFE7002203098B422CD3030A8B4253
:1001F00011D300239C464EE003460B433CD400221F
:1002000043088B4231D303098B421CD3030A8B4230
:1002100001D394463FE0C3098B4201D3CB01C01AFE
:10022000524183098B4201D38B01C01A52414309C9
:100230008B4201D34B01C01A524103098B4201D3B7
:100240000B01C01A5241C3088B4201D3CB00C01A24
:10025000524183088B4201D38B00C01A524143089C
:100260008B4201D34B00C01A5241411A00D20146C1
:100270005241104670475DE0CA0F00D0494203105A
:1002800000D34042534000229C4603098B422DD3A9
:10029000030A8B4212D3FC22890112BA030A8B4251
:1002A0000CD3890192118B4208D3890192118B42A0
:1002B00004D389013AD0921100E08909C3098B4225
:1002C00001D3CB01C01A524183098B4201D38B0168
:1002D000C01A524143098B4201D34B01C01A52410B
:1002E00003098B4201D30B01C01A5241C3088B4250
:1002F00001D3CB00C01A524183088B4201D38B003B
:10030000C01A5241D9D243088B4201D34B00C01AC4
:100310005241411A00D20146634652415B101046D9
:1003200001D34042002B00D54942704763465B1021
:1003300000D3404201B50020C046C04602BD704710
:100340007047704700487047F8FDFF1F7546FFF77C
:10035000F9FFAE46050069465346C008C000854611
:1003600018B020B5FFF70CFF60BC00274908B6465F
:100370000026C0C5C0C5C0C5C0C5C0C5C0C5C0C5B4
:10038000C0C5403D49008D46704710B50446C04683
:10039000C0462046FFF7DFFE10BD70470149182018
:1003A000ABBEFEE726000200704701218903086802
:1003B00080F3088848688047FEE710B501F076FCB6
:1003C00010BD10B501F01CF910BD10B5002001F0F2
:1003D000AFFC10BD10B5E12464022146002001F0FD
:1003E00045F92146012001F041F92146022001F0A2
:1003F0003DF910BD10B501F093FB10BD00887047AA
:10040000FFFFFFFFFFFFFFFFFFFFFFFFFFFFFEFEFE
:1004100070B53A4E3079B41DF02802D2FF2000F0BA
:1004200085F9307901280ED00021082818D0FF283E
:1004300008D13348F278C07B824203D13048803003
:10044000C171817170BD7079042807D00A28F9D173
:100450000C220121084600F0E1FF70BD0322F8E7FD
:10046000707901280ED0274D022814D0032825D0FA
:100470000428F2D172B601F0C3F800F0C9FFFFF70B
:1004800094FFFEE720780028E7D11F480222816808
:100490001143816070BD207861780002401829887E
:1004A00080B28842F6D1B078A11C093882B21548D2
:1004B000803801F0E6FB0120287670BD6960207865
:1004C000000668606278120410436860A278120225
:1004D00010436860E278A9601043686020790006E4
:1004E000A860617909040843A860A179090208435A
:1004F000A860E1790843A86070BD000094FAFF1F6E
:1005000094FBFF1F9CFCFF1FFCF0FF1FF8B57E4D06
:100510000027681E6E1DEC1DF934009091E0FFF776
:1005200069FF7A4861780078022806D00B0001F054
:1005300041FB06424A525A646F88002906D00129BD
:100540000DD0022916D003297BD11DE001226E496E
:1005500001F063FA2878AA2873D101204BE0012228
:10056000691C01F05AFA6878552801D0677068E074
:10057000022040E00122A91C01F04FFAA878207067
:100580000328F3D9032036E02178C91E8AB2E91C7A
:1005900001F043FA00285BD02078401EC1B25A48CF
:1005A00000F05AFC22780099515C884201D1FFF793
:1005B0002FFF67702AE00122534901F02EFA2878B4
:1005C00041283ED1C9E70122691C01F026FA68786A
:1005D000542836D1CCE70122A91C01F01EFAA878D4
:1005E0002D282ED1CEE70122E91C01F016FAE87879
:1005F000422826D10420607023E00122291D01F049
:100600000CFA287920281CD105206070277018E08A
:1006100021780122891901F000FA0A223CA1681D03
:1006200001F01EFB012814D00A223CA1681D01F034
:1006300017FB01280DD02078815D0D295FD0401C6B
:1006400020703248007801F0E3F9002800D066E716
:10065000F8BD697C00202C2905D0AA7C2C2A02D068
:10066000EA7C2C2A27D1EA7B202A24D12C2906D007
:10067000AA7C2C2A08D0EB7C2C2B0ED01BE0287CEB
:100680003138C0B2112214E0287C0A22303850439D
:1006900030380818C0B212220BE02B7C6420303BAB
:1006A0004343D0180A2251431F4A89184018C0B248
:1006B00013221649CA70217802460E3291421BD38A
:1006C000002819D0885D0D2814D11048C078291849
:1006D000CA780D48491C01F0D4FAA878401EC1B26E
:1006E000094800F0B9FBAA780099515C884201D111
:1006F000FFF78EFE277039E7491C2170A1E7681DBE
:1007000000F04EF8F6E7000094FAFF1F6CF0FF1FB0
:1007100053505044415441494E440000424C4544DA
:10072000415441494E440000F1FDFFFF30B585B012
:1007300041216A461170542151703E21917001216E
:10074000154C1171A278002A01D1627802216A4603
:10075000D17000215171092393718023D3711172DB
:100760000D25557255219172AA21D172062111735E
:100770000A49C97851739073104605210A3000F078
:100780006BFB6A46D073157411226946207801F01C
:100790005AF905B030BD00006CF0FF1F94FAFF1F3E
:1007A000F8B50746092220A101F05AFA082221A132
:1007B000384601F055FA01260025214C012807D0C2
:1007C000082220A1384601F04BFA012803D006E0A8
:1007D000A570667000E06570012000F0AFFF082290
:1007E0001BA1384601F03CFA012807D008221BA1C2
:1007F000384601F035FA012803D006E06570A6708E
:1008000000E0A570012000F099FF082216A13846EB
:1008100001F026FA012801D100F090FF082215A16D
:10082000384601F01DFAF8BD44415441494E49543F
:1008300020000000535050434F4E4E200000000057
:100840006CF0FF1F535050444953432000000000F8
:10085000424C45434F4E4E2000000000424C454460
:10086000495343200000000053505044415441205C
:1008700000000000534E4B494E4954200000000038
:100880000948002181610949416107210161084846
:10089000C16903220902090A92071143C16105498E
:1008A000400708607047000000E000E0FF700200B1
:1008B00004ED00E000E100E01CB569460888042171
:1008C00008431821884340210843FF21833188438E
:1008D0006946803008807D20400148800020888063
:1008E000684601F02BF901F00BF91CBD10B5044668
:1008F000083000F06DFD606800F094FB0F4801784F
:10090000FB221140017001788906890E8031017047
:100910004178EF221140417001790907890F0229BE
:10092000FAD10179C906FCD44178C906C90E4170D3
:10093000017980221143017110BD00000040064082
:1009400010B50446083000F043FD606800F06AFB13
:1009500009480178FB22114001700179C906FCD4D5
:1009600001794906FCD54178C906C90E4170017963
:1009700080221143017110BD0040064010B50446AD
:10098000083000F025FD606800F04CFB0948017854
:10099000FB22114001700179C906FCD40179490696
:1009A000FCD54178C906C90E4170017980221143F6
:1009B000017110BD0040064030B50024810701D010
:1009C000154830BD154D30216971002169700A212B
:1009D0006972010C2972012169702872000A68721B
:1009E000084600F053F86879800601D50A4CE41DEA
:1009F0006879C00602D508480F3004436879C007FB
:100A000002D00548103004436879800702D50248B7
:100A100011300443204630BD013000000000024088
:100A200070B500241549FFF7DDFB401EC1B2144824
:100A30004279120601D4134870BDC2785306124A97
:100A400012D4C3781B0607D5C3788D069B069B0E70
:100A5000AD0EAB4200D01446C278890692099201CD
:100A6000890E0A43C27007E0C07889068006800EAE
:100A7000890E884200D01446204670BD40420F00C7
:100A80000000024014300000183000000749CA6816
:100A900001231B041A43CA60054980224A710028B9
:100AA00002D048790006FCD570470000003000F005
:100AB0000000024030B50024820701D01B4830BD41
:100AC0001B4D30226A7100226A7006226A72020C83
:100AD0002A7201226A702872000A68720220687005
:100AE000080A6872297203206870080E6872080C80
:100AF00028721046FFF7CAFF6879800601D50B4CB3
:100B0000E41D6879C00602D508480F3004436879AF
:100B1000C00702D00548103004436879800702D529
:100B2000024811300443204630BD0000013000006F
:100B30000000024030B50025830701D0204830BDB9
:100B4000204C302363710023637006236372030C0F
:100B50002372012363702072000A607202206070A9
:100B6000080A6072217203206070080E6072080C1F
:100B7000207204206070100A60722272052060707A
:100B8000100E6072100C20720120FFF77FFF607959
:100B9000800601D50A4DED1D6079C00602D50848D2
:100BA0000F3005436079C00702D005481030054377
:100BB0006079800702D5024811300543284630BDD0
:100BC0000130000000000240F8B5064614460D460C
:100BD000800741D112E0284601F09EF803462D1D02
:100BE000284601F099F80246194630462D1DFFF7B8
:100BF000A1FF002830D1083CA4B20836E008EAD1B1
:100C00000CE0284601F088F8014630462D1DFFF71C
:100C100051FF002820D1241FA4B2361DA008F0D116
:100C2000002C1BD000210846FF2701E0002C07D034
:100C30002A78C3009A40641E1143A4B26D1C03E0DD
:100C4000C3003A469A401143401C0428EED3304674
:100C5000FFF730FF002801D00020F8BD0120F8BDCB
:100C60000121202802D28140084805E0402805D211
:100C70002038814005484030816070474828FCD2C8
:100C80004038814001488030F6E7000000F00F4016
:100C900030B50124624B20282DD20122614D8240C3
:100CA00000290FD0012913D002291AD0032921D1FC
:100CB000696911436961A9691143A96199689143FF
:100CC000996065E0686910436861A869104304E0B1
:100CD000686990436861A8699043A86198689043E7
:100CE00007E0686990436861A8699043A8619868C3
:100CF0001043986030BD402833D24A4A20384032F1
:100D0000C0B2002911D0012916D002291ED0032912
:100D1000F0D15569214681400D43556195690D43D8
:100D20009561DA688A43DA6032E051698440214390
:100D300051619069204305E051698440A1435161AC
:100D40009069A0439061D868A04308E0516984404D
:100D5000A14351619069A0439061D8682043D86055
:100D600030BD304A40388032C0B200291ED001293F
:100D700023D002292BD00329F2D155692146814085
:100D80000D43556195690D4395611A698A431A614E
:100D900020283BD026DC0C282ED00D2830D0182857
:100DA00031D01928DCD15869082123E051698440E9
:100DB000214351619069204305E051698440A1437A
:100DC00051619069A04390611869A04308E051699E
:100DD0008440A14351619069A04390611869204308
:100DE000186130BD212814D0382815D03928F8D101
:100DF00058698021084301E058692043586130BD9B
:100E000058690221F6E758690421F3E7586910216F
:100E1000F0E758692021EDE758694021EAE7000032
:100E20000090044000F00F400121202802D28140B0
:100E3000084805E0402805D2203881400548403068
:100E4000416070474828FCD24038814001488030DA
:100E5000F6E7000000F00F400246002002E01378A1
:100E60005840521C0B46491EC9B2002BF7D170479F
:100E7000F8B50E460446451E17466421401EFFF78E
:100E8000BBF9E917890F4919891009190D1AFF21B2
:100E90009131601EFFF7B0F91249281889192039DD
:100EA000C97F0D18022E0ED9A00705D16421204656
:100EB000FFF7A2F9002910D1FF2191312046FFF759
:100EC0009BF9002909D000204019C0190721401DB5
:100ED000FFF792F9002902D002E00120F4E7072190
:100EE000C8B2F8BD5C1D0000F8B51D4F397878799F
:100EF000491CC9B23A79BD79044639703C292DD3D1
:100F000000233B707978491CC9B279703C2925D3FC
:100F10007B70B978491CC9B2B97018291ED3521C0C
:100F2000BB70D6B2002100F01DF886420BD9301AF2
:100F3000641CE4B2C6B20C2C05D96D1C0124EDB2C0
:100F4000642D00D100253E717D20BD7100017C71B2
:100F5000324621462818FFF78BFFF870F8BD0000D5
:100F600071F0FF1F1EB5024607A019C80090684621
:100F70008018029401932038C07F022A02D10129EF
:100F800000D11D201EBD00001F1C1F1E1F1E1F1F85
:100F90001E1F1E1F034A000110B58018012200F019
:100FA00083FA10BD7CF0FF1F10B572B600F028FB6D
:100FB00000F07CF807480021417600F085F800F049
:100FC00095FDFFF707FA044802228168914381608A
:100FD00010BD00009CFCFF1FFCF0FF1F00B5017856
:100FE00002290AD0EF2203290ED0052912D00C487D
:100FF0004178C906C90E417000BD017A3022114303
:101000000172FFF79DFC00BD017A11400172FFF7EC
:10101000B5FC00BD017A11400172FFF767FC00BD0D
:101020000040064030B5124B7D24C51A1149C72235
:101030006401984206D009DC202814D0001B0ED091
:10104000A04213D10878104018300EE00A48281842
:1010500001D0A0420AD108781040203005E008787D
:101060001040103001E008781040087030BD0000DA
:10107000102700000040064090E8FFFF06498870F6
:10108000CA78C00552085200C00F0243CA700879DE
:101090004006FCD570470000004006400248017839
:1010A00004221143017070470010034010B57F24E3
:1010B000A4022046FFF780FC02492046FFF7FAFC15
:1010C00010BD00005555AAAA10B57F24A4022046E1
:1010D000FFF772FC02492046FFF7ECFC10BD000050
:1010E000AAAA55557F20800200680549884202D08F
:1010F000C943884201D10120704700207047000099
:101100005555AAAA7F20800200680349884201D170
:101110000120704700207047AAAA5555FF204002C1
:1011200000680349884201D10120704700207047C0
:101130005555AAAAFF20400200680349884201D100
:10114000012070470020704755AA55AABFF34F8F62
:1011500003490248C860BFF34F8FFEE70400FA0559
:1011600000ED00E0F8B53E4C002569460120FFF790
:1011700011FF002872D0684640880027C6B2684632
:101180000078012802D0082820D10FE0032E02D0D9
:101190000C2E1BD106E010252A4632A1204600F075
:1011A00070FD13E00120207005460FE0012E03D0F2
:1011B000022E04D0032E09D12770677005E02D4858
:1011C0000188090A2170007860700225244C4120B2
:1011D000123CA0705420E0703E202071012060710C
:1011E00025488078002801D0012002E0224840787C
:1011F0000220A0712846E7710A30207280206072B8
:10120000A7720D20E07255202073AA206073ED1D97
:10121000A573E07B6D1E401CE07368460078207467
:101220000F486674801FE9B20646FFF715FE0C4DA5
:101230006E35E870A27B294675395054A17B0D208C
:101240008855A27B0C4829467E3900780B3200F085
:10125000FAFB0120E8712F716F71A871F8BD0000D1
:10126000A6FBFF1F424F4F542E302E323030353008
:10127000362E30009CFCFF1F6CF0FF1FF8B5414C70
:101280000326617E002520690B0000F093FC050415
:101290000C184F674A0001220821104600F0BEF8E2
:1012A0000120256167E06168002901D0258036E0D2
:1012B00019214901884234D30122256143E0217E6E
:1012C00000292FD02F49002080390B5CE268401C98
:1012D000D218C0B2E2608028F7D320882A4F810755
:1012E00004D180084002C019FFF766FB2088254919
:1012F000C001C01980228039FFF766FC257661683D
:1013000020887F31C909401C884201D3256131E022
:1013100020801C4880220021803800F0BDFC6561DF
:101320006676F8BD6428FCD32561F8E7606900287B
:10133000F7D0FFF7F3FE022500280CD1FFF7FAFEE5
:10134000002808D104E00821012000F067F8F8BD6A
:1013500060693228FBD365760222F4E77D2809D341
:101360002561E168A068814207D10322082101209C
:1013700000F054F804206076F8BD00F0B7FB657605
:10138000F8BD00009CFCFF1F004000008307FF2207
:10139000DB0E9A408907090E994000280BDA0007F6
:1013A000000F0838830808489B001818C369934346
:1013B0000B43C3617047830804489B0018180368F7
:1013C00093430B430360704700ED00E000E400E04E
:1013D00002780021930700D50221D30701D004230E
:1013E0001943130701D520231943D30601D5102330
:1013F0001943520701D580221143044A1170007825
:10140000800602D51078C007FCD070470050064017
:1014100010B57F208002FFF7CFFA10BD08B56B46EC
:101420001970044900015A8040180122694600F0F1
:1014300003F808BD7CF0FF1FF8B50F460446E188AD
:10144000164600880025891B884201DD0020F8BD72
:1014500072B60DE04019FEF7C5FE2289E0685143DF
:10146000081811466943C91900F00BFC6D1CADB298
:10147000E1886088B542EDD38019FEF7B3FE618044
:1014800020888019208062B60120F8BD10B50021A7
:10149000018041808180C1880289C06851438AB23D
:1014A000002100F0F9FB10BDF8B50446008816468F
:1014B00000250F46B04201D20020F8BD72B60DE003
:1014C0004019FEF78FFE2289E06851430918104643
:1014D0006843C01900F0D5FB6D1CADB2E188A0884F
:1014E000B542EDD38019FEF77DFEA1802088801BD8
:1014F000208062B60120F8BD10B504480168802242
:1015000011430160FFF7F0FC10BD000000D0034064
:1015100010B5114C2078410702D5FB2108402070FE
:10152000C0B2010704D5F7210840207000F052F93D
:101530002078C10602D5EF2108402070C0B2C10951
:1015400009D04006400E20700121A068C90408435C
:10155000A06000F035F910BDFCF0FF1F30B5026847
:101560000E210469D30400D50C21130501D50423F1
:101570009943530501D508239943D30702D001238A
:10158000DB041943530702D501239B0319431307B7
:1015900002D501231B031943930702D50123DB0363
:1015A0001943930501D52023194343795B075B0B4E
:1015B0000B4301790D06D1051D43490FC3688268AD
:1015C0000905034829434160C2604361446230BD5C
:1015D0000080044070B50125084C6D04012806D038
:1015E0000A20FFF73DFBA068A843A06070BD0A2059
:1015F000FFF71AFCA0682843F7E70000FCF0FF1F84
:1016000010B50248FFF70CFA10BD0000002D3101A3
:1016100070B5144D04212C69641C2C612878084392
:101620002870E10702D1082108432870A00703D1E0
:101630002878102108432870600703D128782021DA
:101640000843287019212046FEF7CCFD002903D15C
:1016500028788021084328700348844201D1002063
:10166000286170BDFCF0FF1FB80B0000FEB5040040
:101670002448254E254D0291019009D02449770038
:10168000012C12D0022C2BD0032C1FD00020FEBD29
:10169000204F6946384600F021F90221384600F013
:1016A000E9F82E6001210C200EE00869B0430861C2
:1016B000194E6946304600F011F90221304600F01B
:1016C000D9F82F6001210D20FFF760FE012120468F
:1016D00000F070F90021204600F06CF90120FEBDF9
:1016E0000869B84308610D4E6946304600F0F6F8C7
:1016F0000221304600F0BEF801208003286001215D
:101700000E20E1E7002D31010010000000E100E0B3
:101710000080044000A0064000B0064000C0064023
:10172000022000E000BF0146401EC0B20029F9D1EE
:1017300000BF00BF00BF00BF00BF704710B57D24D1
:101740000346E40002E0204600F003F85B1EFAD2F4
:1017500010BD00B5024601E0FFF7E2FF521EFBD2CA
:1017600000BD704710480F4981800121417023213D
:1017700001700E4841782022114341700C4A00212B
:1017800051620622027042781207120F2032427014
:10179000084A11700179C906FCD501790907890F3A
:1017A000FBD1704703E800000020054000400640E0
:1017B000008004400050064010B5FFF7D3FC10BD78
:1017C00010B50348007A800701D5FFF7EDFB10BD87
:1017D000FCF0FF1F10B505480169491C0161416912
:1017E000491C4161FFF7E8FF10BD00009CFCFF1F92
:1017F00010B5002000F0A8F810BD10B5012000F0D1
:10180000A3F810BD10B5022000F09EF810BD00B581
:101810000A4600F05DF801219140084000BD002912
:1018200010D0012912D0022915D0032916D004297D
:1018300018D0052919D0FD22062901D0072909D180
:10184000817914E0C1784906490E02E0C178BF22CF
:1018500006E0C1707047C178DF2201E0C178EF2255
:101860001140F6E78179F72201E08179FB221140EE
:1018700081717047002910D0012911D0022914D09C
:10188000032915D0042916D0052917D002220629CC
:1018900001D0072908D1817912E0C178802201E0C6
:1018A000C17840221143C1707047C1782022F9E706
:1018B000C1781022F6E78179082201E081790422BB
:1018C00011438171704701798906FCD5C079704751
:1018D00001464079097900020843704770B5044613
:1018E0004A68164B896816489C4203D14369012512
:1018F0002D0508E0134B9C42436902D101256D057B
:1019000001E00125AD052B434361E078F323184046
:10191000E0700020A07010094A088018FEF762FCF1
:101920002178C20449094901D20E0A43227060702D
:10193000E0780C210843E07070BD000000A0064074
:101940000080044000B0064070B50F4D064684008C
:1019500028590521FFF75BFF002806D02859FFF71B
:10196000B2FF0146304600F09FF828590621FFF7E4
:101970004EFF002806D02859C078400602D53046D0
:1019800000F099F870BD000060F0FF1F02791206A8
:10199000FCD5C17170470000054A10B5C000801821
:1019A00089004058002801D0FEF728FD10BD000036
:1019B0003C1D0000C200054810B5101889004058B1
:1019C000002801D0FFF762FD10BD00003C1D0000A3
:1019D00010B51446054AC0008018890040580028F8
:1019E00003D01A462146FFF75FFD10BD3C1D0000E5
:1019F00010B51446054AC0008018890040580028D8
:101A000003D01A462146FFF717FD10BD3C1D00000C
:101A100010B50021FFF7C0FF10BD134610B50A46F0
:101A20000021FFF7D5FF10BD10B5034A8000105804
:101A3000FFF7ACFF10BD000060F0FF1F10B50121E3
:101A4000FFF7AAFF10BD70B514460E460546FFF716
:101A5000F5FF00282346324607D001212846FFF72C
:101A6000C7FF002800D0012070BD01212846FFF7E4
:101A7000BFFF0028F8D0284600F01DF8F3E700006B
:101A800010B50349800008580121FFF7C8FE10BDBA
:101A900060F0FF1F10B50349800008580121FFF7CF
:101AA000E9FE10BD60F0FF1F13B5012301AA00215C
:101AB000FFF79EFF1CBD38B50446FFF7BFFF0028A7
:101AC00010D001236A4619462046FFF781FF0028FF
:101AD00007D0684601782046FFF7A6FF2046FFF7AB
:101AE000D9FF38BD2046FFF7CBFF38BD10B59C228B
:101AF0000021024800F0D0F810BD00001CFCFF1FC0
:101B00000448017880221143034A4280034A4280FC
:101B10000170704700200540C5200000D928000052
:101B200072B60349034841800349418062B6704759
:101B3000A602000000200540B480000030B54488B3
:101B40008388008880210022850700D50021C507F1
:101B500001D040252943050701D501252943C506A4
:101B600001D504252943450701D50225294345060A
:101B700001D520252943850600D58022850501D57C
:101B800010252A43C005850F15430848064A4280A0
:101B9000074A428045704471220A0271C3711A0AD1
:101BA0008271017030BD0000C5200000002005409A
:101BB000D928000030B47446641E2578641CAB42FA
:101BC00000D21D46635D5B00E31830BC184700007F
:101BD00072B6FFF787FA002801D1FEF7E6FBFFF7A0
:101BE00091FA00281AD0FFF7BDFDFEF7E6FBFEF7DD
:101BF00047FEFEF761FE00210720FFF749F80021AC
:101C00000A20FFF745F80120FFF7E4FC0720FFF763
:101C10000BF96420FFF792FDFEF7D3FBFFF754FAB0
:101C2000FFF77CFA0D4A002801D0012004E0FFF7FD
:101C300081FA002801D002201070FFF757FFFEF74D
:101C4000C9FBFEF7C2FB62B6FEF7D4FBFFF716FB3B
:101C5000FFF75EFCFEF75AFCF6E700006CF0FF1F92
:101C600010B507E003780C78401C491CA34201D052
:101C7000002010BD1346521E92B2002BF2D101205B
:101C800010BD03E00B780370401C491C1346521E24
:101C900092B2002BF6D1704701E00170401C134650
:101CA000521E92B2002BF8D17047000000B589B0E7
:101CB000142103A8FEF794FA002015490090019022
:101CC0000290088048805820FFF7D8F90121039836
:101CD0000903084303900F49069808430690012121
:101CE000079809060843079003A8FFF737FC6946E1
:101CF000087A05210843694608727D208001019019
:101D0000022008706846FFF769F909B000BD0000BD
:101D100078F0FF1F003070004278017812020A4309
:101D20008178C07809041143000608437047000019
:101D3000014988607047000000ED00E010F0FF1FCF
:101D400000F0FF1F30F0FF1F20F0FF1F50F0FF1FBB
:101D500040F0FF1F00000000000000000104040725
:101D60000205070306010406881D000000F0FF1F9E
:101D7000FC00000004010000841E0000FCF0FF1FB6
:101D80005C0E0000200100000000000000000002C6
:101D90000100000014F1FF1F00000000000000021D
:101DA0000100000014F3FF1F00000000000000020B
:101DB0000100000014F5FF1F0000000000000002F9
:101DC0000100000014F7FF1F000000000000800069
:101DD0000100000014F9FF1F0000000000000001D6
:101DE0000100000094F9FF1F00A0064000B006406B
:101DF00000C00640000000000000000000000000DD
:101E0000000000000000000000000A0004000000C4
:101E1000B8FCFF1F0000000000000A0004000000E2
:101E2000E0FCFF1F0000000000000A0004000000AA
:101E300008FDFF1F0000000000000A000400000071
:101E400030FDFF1F0000000000000A000400000039
:101E500058FDFF1F0000000000000A000400000001
:101E600080FDFF1F0000000000000A0004000000C9
:101E7000A8FDFF1F0000000000000A000400000091
:041E8000D0FDFF1F73
:020000040000FA
:10400000380E0020834100008F41000091410000E4
:1040100000000000000000000000000000000000A0
:1040200000000000000000000000000093410000BC
:1040300000000000000000009541000065C600007F
:104040009941000099410000994100009941000008
:1040500099410000994100009941000065AB0000C2
:10406000994100009941000089BF00008BBF00000A
:104070002DD1000037D1000041D100008D52000049
:1040800099410000994100009941000099410000C8
:1040900099410000994100009941000099410000B8
:1040A000C1AB000099410000994100009941000016
:1040B0009941000099410000994100009941000098
:1040C00000F002F800F030F80CA030C808382418CE
:1040D0002D18A246671EAB4654465D46AC4201D140
:1040E00000F022F87E460F3E0FCCB6460126334242
:1040F00000D0FB1AA246AB46334318470C8B010095
:104100002C8B01000023002400250026103A01D347
:1041100078C1FBD8520700D330C100D50B6070477F
:104120001FB51FBD10B510BD00F0A6FF1146FFF76B
:10413000F7FF0AF08BF800F0BEFF03B4FFF7F2FFC1
:1041400003BC00F0F1FF000070B505460C461646B2
:1041500002E00FCC0FC5103E102EFAD2082E02D36B
:1041600003CC03C5083E042E07D301CC01C5361F7E
:1041700003E021782970641C6D1C761EF9D270BD95
:104180007047094880470948804709480047FEE7CB
:10419000FEE7FEE7FEE7FEE7FEE70000054806490A
:1041A000044A064B70470000F9C900008141000035
:1041B000C140000038090020380E002038090020D6
:1041C00001E004C0091F0429FBD28B0701D502803E
:1041D000801CC90700D00270704700290BD0C307AC
:1041E00002D00270401C491E022904D3830702D565
:1041F0000280801C891EE3E70022EEE70022DFE751
:10420000002203098B422CD3030A8B4211D30023D3
:104210009C464EE003460B433CD4002243088B42AD
:1042200031D303098B421CD3030A8B4201D394463A
:104230003FE0C3098B4201D3CB01C01A524183092D
:104240008B4201D38B01C01A524143098B4201D3E7
:104250004B01C01A524103098B4201D30B01C01A12
:104260005241C3088B4201D3CB00C01A524183088C
:104270008B4201D38B00C01A524143088B4201D3B9
:104280004B00C01A5241411A00D201465241104619
:1042900070475DE0CA0F00D04942031000D340428E
:1042A000534000229C4603098B422DD3030A8B42C4
:1042B00012D3FC22890112BA030A8B420CD3890162
:1042C00092118B4208D3890192118B4204D3890148
:1042D0003AD0921100E08909C3098B4201D3CB0186
:1042E000C01A524183098B4201D38B01C01A52413B
:1042F00043098B4201D34B01C01A524103098B423F
:1043000001D30B01C01A5241C3088B4201D3CB0029
:10431000C01A524183088B4201D38B00C01A52410C
:10432000D9D243088B4201D34B00C01A5241411AE3
:1043300000D20146634652415B10104601D3404211
:10434000002B00D54942704763465B1000D34042C2
:1043500001B50020C046C04602BD70477047704797
:1043600030B50346CA02400D1043164D164C0A15CF
:1043700002D02043002A06DBAA1A002A12DDD04010
:10438000FF2A0BDC30BD5205520D01D14000400820
:10439000AA1A07D4D0404042FF2A01DD002030BDD8
:1043A0000028FCDD4A00002B01D0012000E00020A5
:1043B000101801225205D042F0D8C817C0436040FF
:1043C00030BD00001E0400000000008010B500F0A9
:1043D00009F8006810BD10B5044600F003F8046049
:1043E00010BD000000487047D808002010B500201C
:1043F0000249029A00F067FE10BD00000000F87F3D
:10440000FFFFFFFFFFFFFFFFFFFFFFFFFFFFFEFEBE
:10441000F0B50C46871A9C410D46861A9D4103D281
:10442000C01BA141D21963410D0D1F0DC94EEC1BDC
:10443000AE435CD07F057F0D0026002F51D02D05A7
:10444000AC46A943DD020123ED0A1B051D432023D1
:104450001B1B24D41746E740381871412F46E7400C
:10446000CC199D402818314661410C0D27D161447B
:104470009A4013D50023401C594152000ED14008E8
:10448000400001224B005205D34207D305204007CC
:10449000C14201D5B04900E0B0493046F0BD6B00E3
:1044A000002A00D001229A181F23203C1B1B01D593
:1044B000002302E0E540281871410C0DD7D00124FB
:1044C00024050919C407CD0740084908E40F28430B
:1044D0006144002CD5D00024401C61419A40D0D1C9
:1044E000CDE76A05520DD9D1C90FC907D5E79C4D53
:1044F0004E00002801D0012400E0002434195F00A0
:10450000002A01D0012600E00026BE19954FAC42DA
:104510000CD8AE420AD8B44206D001256D05EC4253
:10452000BCD010461946F0BD9942FCD00020394657
:10453000F0BDF0B51FB40C460F46811A9F412546C9
:10454000861A9D4106D20125ED076F40401ABC41F5
:1045500052187B41210D1E0D8D1BAC467D4D8D43A8
:104560007ED075056D0D7CD00D05AE46AC431B03AA
:104570001B0B794D52429D41202366469B1B14D351
:104580001746F740381800260090744160462F46C1
:104590000741E41900989D402818664116D47146D9
:1045A00071189A4025D5012320E093182A466A41C4
:1045B0005200002B00D0521C1E23203E9B1B002BC0
:1045C00061DD3541EE1728186641E8D500187641BF
:1045D0005B1C9A4000D3401C4B05F3181524E340A4
:1045E00010D3002B52D071467118D30FC01802D3CC
:1045F000491C05B0F0BD0123DB079A42F9D1400800
:104600004000F6E701225205B21801D1002853D02C
:104610000123CC0ADB029943891E002A08D1020C2F
:1046200003D0020C0004103902E0024600202039B9
:104630000023550B05D112020823550B01D152015D
:104640000D23550C01D112011B1DD50C01D1920077
:104650009B1C150D01D152005B1C2025EE1A01E0B8
:104660002CE022E00546F54015439840CA1AE107C0
:1046700069181305C918002ABBDA03204007081877
:10468000C10FC9070FE071466118B2E7F107400892
:104690000843711071444A000CD001235B059A4213
:1046A000A7D2C90FC9070020A3E74905490D26D1A4
:1046B000002001E00028F4D100219AE7284D66008F
:1046C000002801D0012100E0002171185F00002ABC
:1046D00001D0012600E00026BE19224FA94210D8C1
:1046E000AE420ED8B14208D001256D05E94206D090
:1046F0001946A802414010467BE79C4201D0214662
:1047000077E70020394674E710B50C465C4005D5C4
:104710000124E4076340FFF70CFF10BDFFF778FEAC
:1047200010BD30B40C465C4004D50124E40763405E
:1047300030BC6DE630BCFCE670B50124E407614096
:104740000D465D4002D4FFF763FE70BD6340FFF786
:10475000F0FE70BDFF0700000000F0FF0000F07FDA
:104760000000E0FF0000F87FF0B5F94D0C091E09CC
:104770002C402E402F468BB0A7437DD0B543FCD0B4
:10478000002E7AD0002CFCD00D465D40ED0F254365
:10479000AC1BFF25AD0464190894C502440DC90281
:1047A0002143500DDC0204430120C00701430443B0
:1047B000D2020191200C110C00958C460104234675
:1047C0008B430A9161460904E24D8A430991010A2B
:1047D0007D4449198039097805464D4301266D18F5
:1047E000F605751B6943C90C640B891C4C4364189E
:1047F000B5012C1B250C2E04B4434C434D43210C16
:10480000691889090591009DE90701D00121C907AF
:1048100004912C4601996708CD072F434C08059D4C
:10482000E10B4D432D0C29466646754302950D4616
:1048300045432E46029D7D1BB44100950D465D43C8
:1048400001942C0C2F040D465543AE462D0C3D43D0
:10485000029503947546049C2D04641B049406D2AF
:10486000029C039D641C002675410395029401ACD3
:1048700070CC009F7D1B01E03EE162E1B441090480
:104880000095079101940599A4086143090C0C4611
:104890004443650BE7040C4666467443A646640B26
:1048A0003C43039502947446049DE4042C1B049439
:1048B00006D2029C039D641C002675410395029458
:1048C00001AC70CC009F7D1BB44101940C465C434D
:1048D0000095650FE7000C465443A646640F3C4321
:1048E000039502947446049DE4002C1B049406D2A4
:1048F000029C039D641C002675410395029401AC43
:1049000070CC009F7D1BB441AE09AF06049DC90069
:10491000AD092F43049DA406AD060495079D3443BD
:1049200069180791059DE10B4D432D0C29466646FC
:10493000754302950D4645432E46029D7D1BB441AD
:1049400000950D465D4301942C0C2F040D465543F4
:10495000AE462D0C3D43029503947546049C2D04F0
:10496000641B049406D2029C039D641C00267541BE
:104970000395029401AC70CC009F7D1BB44101945F
:104980008C050694079C890A611800950791019C83
:104990000599A4086143090C0D464543680BEF04D3
:1049A0000D46644665436C0B3C43049FED047D1B40
:1049B000AC4602D20025641C6841009E019D371B55
:1049C00085410846584301950C46460FC50054439F
:1049D000600F28436546E4002C1B02D20025401CD2
:1049E0006E41019D3F1AB5412846BD098006284306
:1049F0008446A009BF064E020699A406761807430E
:104A0000079D002068410A99079019430020099BDF
:104A100000906046FF1913434041E20F64003A439F
:104A2000A4460446D71A8C41A04203D90120009025
:104A300020463A46C70F941840416246D20F22439F
:104A4000644664000494009CBE466400D71AA446E1
:104A5000044602978C417746002F01D1A04204D929
:104A60006046401C8446029A2046C40FA64694180D
:104A70004041049A0546D20F224364466400D31A8B
:104A80008D417146002901D1A84202D928461A4613
:104A9000641C10430122002800D01643610200204C
:104AA000079B891904465C410223002C02DB49184C
:104AB00013466441089DCE0A2D145D194B05670508
:104AC000E10A2C050D1908993E43C9076940002BDE
:104AD00008D0934006D30022761C5141002B01D10F
:104AE000760876001C4A002D43DB154241D0AA43CC
:104AF0003FD030460BB0F0BD06180D464D41174C67
:104B00007642AC411AD395181C465C41134A6D425B
:104B1000A24113D3012252054C00D4420AD15C00B9
:104B2000D4420BD04B4002D592021143E2E7490038
:104B30004908DFE75940C90FC90718E000200849B4
:104B4000D8E7054801420DD10342F7D0F2E7000053
:104B50000000FF07008201000000F07F0000E0FF7E
:104B60000000F87F114859400143C0124140002025
:104B7000C0E70123089A9B069A4205DC03225207EC
:104B80008918C90FC907B5E7052252078918074ACE
:104B90001143D2125140ADE770B515461C4602468E
:104BA0000B4628462146FFF7DFFD70BDFFFFFF7F64
:104BB0001F22030C02D10F22000402D0030E03D0E7
:104BC00004E00020014670470002083A030F01D1BB
:104BD0000001121F830F01D18000921E002801DB0B
:104BE0004000521E120551184205C01241181046CD
:104BF0007047C10FC90700D04042012292071143FC
:104C0000D6E701218907D3E7F0B58B4C0F0925467C
:104C100089B0BD437BD01D092646AE43FAD00E466F
:104C20005E402740F60F3E43254071D024012142CB
:104C3000FBD0FF24AD19A4042D1B039501252D05E0
:104C4000DB02DB0AC9022B43C90A29431E01090101
:104C5000040F130F050121431701880B82039143B1
:104C60002D098C46A90B1E438A039543B30B9A0367
:104C700096433F09BA0B9403A74302962E467E4300
:104C80000497B6464E19D7190C460196544305971A
:104C90007E43371B7646BF1B3601B646BE0B361920
:104CA00000967646BC043719009C01D3641C00941E
:104CB0006400002F01D001263443029E049F7543F7
:104CC00066467E430496760034196E0034190094CB
:104CD000029C019E1C196643751BAE4606946546F0
:104CE0004519059C05956C43594375460891691A09
:104CF0000191049E01465143A41B0491611A009C3A
:104D00000791E10605D061090122114302E072E03A
:104D10006EE06109089D00272C0A2D066918049D84
:104D20007C412A0A2D066918019D6241AC0DAD0235
:104D30006D185441079A910D920255196141029ADA
:104D4000644658435443069B059A5A43121A131B50
:104D50009A0E9B015B187A41010B0005C318514163
:104D6000220A200644195A419A4200D2491C0120C5
:104D70004002814203D315230226F64302E01423A6
:104D80000326F6432020C51AA9401746AF40DA4053
:104D90000A4320460399D84009147318190551187D
:104DA000039A3843D2075140AC4009D001229440C5
:104DB00006D30022401C5141002C01D14008400084
:104DC0001E4A934212D3012203989206904207DBB7
:104DD0000520400709181A480143C012414004E069
:104DE000032040070818C10FC907002009B0F0BD13
:104DF0000020F107FAE705180C464C4111486D42B6
:104E0000A04115D394181A465A410E486442904165
:104E10000ED301204A004005824209D35A00824243
:104E200006D35940C90F084AC90700201143DDE7DE
:104E300000200649DAE700000000FF07FE07000037
:104E4000FFFFFF7F0000E0FF0000F07F0000F87F21
:104E5000F8B5224C4E00069DA6420AD8A64201D1C2
:104E6000002806D15E00A64203D8A6420AD1002A35
:104E700008D00D24240425422CD02946002000F01F
:104E8000DFF8F8BD0C461C430CD4994202D0EFF376
:104E90000080F8BD904202D0EFF30080F8BDEFF340
:104EA0000080F8BD09242407E5008B4206D0EFF30B
:104EB0000080A043591A06D2284304E0101A05D3F3
:104EC000EFF30080A04380F30088F8BDEFF300808B
:104ED000A043F1E70095FFF789FAF8BD0000E0FF75
:104EE00070B505464800440D124B0020002C0AD036
:104EF000634008D09A4206DA6642B24203DD1205E8
:104F00004019514170BD002C08D0002B09D0C90FA9
:104F1000C907002AF6DB084A114370BDC90FC9074B
:104F200070BD28460A03104302D00020034970BD1B
:104F3000284670BDFF0700000000F07F0000F87FEA
:104F4000F0B53D4B02460C461C400020002C63D0BF
:104F50003A4D8B4366D000296BDB0B0D1D05A94331
:104F600001252D0529430124FD33E34001D3921887
:104F70004941FF3381339C468B02940D0121234329
:104F800089074C42920200271B198C105D1A04D429
:104F90002D1B02D42B466500491992185B41640809
:104FA000F4D15C1A08D40125ED07EE1755197441A8
:104FB00002D42A462346491C94185B4101229207D9
:104FC0001D46E61B8D4106D4B61A854103D42B46F7
:104FD000550034467F1924195B415208802AEFD1CD
:104FE000234300D0022338460A22D04001D30122B5
:104FF00013438A0510436246890A12058918002B5B
:1050000009D00122D34002D30022401C5141002B81
:1050100001D140084000F0BD0B03134307D0C90F76
:10502000C907F0BD0803104303D1002901DB104676
:10503000F0BD00202946F0BD0000F07F0000F87FA1
:10504000C80212D54803400F002804D0C803C0434B
:10505000012188407047EFF300800001000903211F
:105060000907084380F3008870470020704700005C
:1050700000487047D80800207546FFF7F9FFAE4694
:10508000050069465346C008C000854618B020B5E3
:10509000FFF784F860BC00274908B6460026C0C563
:1050A000C0C5C0C5C0C5C0C5C0C5C0C5C0C5403DE0
:1050B00049008D46704710B50446C046C04620469C
:1050C000FFF73BF810BD10B50C461107090F092971
:1050D00004D00A290AD008290CD104E0114608207E
:1050E000FFF7AEFF06E0510606D501E0510601D5F7
:1050F0000120C007214610BDD10607D501010909CD
:10510000CC084907000E0006044309E0410F2002C5
:105110004907000A0143200E00061D22D141014328
:105120000846E7E77047000001491820ABBEFEE7DC
:105130002600020070B58C180578401C6B075B0FC9
:1051400001D10378401C2A1106D10278401C03E0EB
:105150000678401C0E70491C5B1EF9D12B0705D444
:105160000023521E0DD40B70491CFAE70378401C33
:10517000CB1A921C03E01D780D70491C5B1C521E5B
:10518000F9D5A142D8D3002070BD000010B546204B
:1051900005F0C0FA012800D100E00020194908708C
:1051A00008460078184909790907C90F884224D0B0
:1051B00014484078401CC0B21249487019281FDBBF
:1051C000002048700846007800280FD00E4840683C
:1051D00001210905884340180B494860084640688A
:1051E0000821884308300849486009E006484068BB
:1051F000082188430449486002E0002001494870C2
:1052000010BD0000B5F0FF1F30F1FF1F10B50446C0
:10521000012C03D12D2005F05DFA02E02D2005F0D0
:105220009DF810BD10B50121462005F0B7F8022207
:105230000021024809F07EFD10BD0000B5F0FF1FFF
:1052400010B50021062005F0A9F80021282005F05E
:10525000A5F810BD10B504461F21204600F011F935
:10526000034840690121490788430149486110BD4D
:105270000080044070B504460D462146024800F007
:10528000DBF82880012070BD00B0034070470000AB
:1052900030B504460D466548844206D164484069ED
:1052A000012149070843624948612979204600F0F5
:1052B000D5F86979204600F0D9F8A979204600F0A0
:1052C000F0F8E979204600F0E4F86888A0612878D1
:1052D0000007C00F002806D000BF606820210843E7
:1052E000606000BF00BF2878C006C00F002806D04D
:1052F00000BF606810210843606000BF00BF2878CD
:105300008007C00F002806D000BF20682021084376
:10531000206000BF00BF2888C005C00F002806D04D
:1053200000BFE06820210843E06000BF00BF28788C
:105330000006C00F002806D000BFE06840210843E7
:10534000E06000BF00BF28784007C00F002806D0EB
:1053500000BF606840210843606000BF00BF28783C
:10536000C007C00F00280CD000BF206840210843B0
:10537000206000BF0F20012181402E4A116000BF34
:1053800000BF28784006C00F002806D000BFA068E4
:1053900010210843A06000BF00BF28788006C00F1E
:1053A000002806D000BFA06880210843A06000BF8D
:1053B00000BF28888005C00F002807D000BFE06824
:1053C000FF2101310843E06000BF07E000BFE06853
:1053D000FF2101318843E06000BF00BF28884005FD
:1053E000C00F002806D000BFE06902210843E06139
:1053F00000BF06E000BFE06902218843E06100BF12
:1054000000BF28880005C00F002806D000BFE06953
:1054100001210843E06100BF06E000BFE0694008E9
:105420004000E06100BF00BF30BD000000B003409D
:105430000080044000E100E030B504460D462946F6
:10544000204600F01EF800BF00BF20688021084001
:105450000028F9D000BF206980B230BD8268920870
:1054600092008B079B0F13438360704710B58268CF
:1054700060241346A3431A464B0123401343836021
:1054800010BD026852095201CB06DB0E13430360C4
:105490007047C268D208D2004B075B0F1343C3604A
:1054A000704710B582680C241346A3431A468B003C
:1054B00023401343836010BD10B500212F2004F05A
:1054C0006DFF0021152004F069FF02210D2004F07A
:1054D00065FF10BD10B51D2005F01CF9002801D195
:1054E000012000E0002016490870084600781549A0
:1054F00049684903C90F88421ED011484078401CB2
:10550000C0B20F494870192819DB002048700846BE
:105510000078002808D00B4840680121890488439E
:105520004018084948600AE006484068012189049B
:1055300088430449486002E000200149487010BDDA
:10554000B7F0FF1F30F1FF1F02480349886003488E
:10555000C86070477DD000003CF7FF1FA1D000005D
:1055600010B5044606480078032807D10448C068EF
:10557000002803D00248C1682046884710BD0000BB
:105580003CF7FF1F10B500201B49487100241BE0A9
:105590001A49085D05F0CCF9002813D01648407967
:1055A000002808D11548005D134948700120487152
:1055B0000846C47006E01148005D0F49887008462F
:1055C000047103E0601CC4B2042CE1DB00BF0A4894
:1055D000C078042801D1002010BD0748C0788000A1
:1055E00007490858002805D00349C9788900044AAA
:1055F000505880470120EFE73CF7FF1F80F0000084
:1056000084F0000000214868804700BFFEE70000EA
:105610001CB5044609227FA1204609F069FB012838
:1056200001D17F49087004227EA1204609F060FB69
:1056300001281FD100207D4908701E22611D7C4871
:1056400009F06AFB05227BA1794809F051FB01288A
:1056500001D17649087072480078002805D183226C
:1056600092000A21032006F003FA132273A10020FE
:1056700007F0EBFE062276A1204609F039FB01284F
:1056800010D10C2221460931734809F045FB6448CA
:10569000007800280BD1FF220D320A21032006F0EA
:1056A000E7F904E006226DA1204609F021FB09225A
:1056B0006CA1204609F01CFB012807D1607A303824
:1056C000002810D101206A4908700CE0092269A164
:1056D000204609F00DFB012805D1607A30380028FA
:1056E00001D163490870042265A1204609F000FB3E
:1056F00001280ED10C22E11D574809F00DFB484846
:105700000078002805D1FF220D320A21032006F07F
:10571000AFF908225CA1204609F0EAFA012813D16A
:1057200001222146083101A809F0F6FA68460079FD
:10573000302805D1002057490870012056490870CB
:10574000012007F0C1F811E0082254A1204609F019
:10575000CFFA01280AD100204F490870012007F034
:10576000B3F80E2250A1002007F06FFE082252A1CC
:10577000204609F0BDFA012813D101222146083143
:10578000684609F0C9FA68460078302805D100203B
:105790004149087001203F490870012007F094F842
:1057A00011E0082247A1204609F0A2FA01280AD1F7
:1057B000002038490870012007F086F80E223AA12F
:1057C000002007F042FE082241A1204609F090FA8D
:1057D000012801D107F078F8052240A1204609F000
:1057E00087FA012801D107F06FF808223DA1204671
:1057F00009F07EFA01280BD10020094908700E2219
:1058000029A107F022FE13220CA1002007F01DFEA3
:105810001CBD000044415441494E49542000000041
:10582000B9F0FF1F4756455220000000BBF0FF1F94
:1058300015070020505930373200000041542B42E8
:1058400020534C444E204453505F384348310D00A0
:105850004846434F4E4E2000080700204846444922
:105860005343200041324450434F4E4E200000002D
:10587000BDF0FF1F41324450444953432000000013
:10588000474C424420000000535050434F4E4E209E
:1058900000000000BCF0FF1FBAF0FF1F535050443F
:1058A000495343200000000041542B4220424C4504
:1058B00041445620310D0000424C45434F4E4E208E
:1058C00000000000424C45444953432000000000C2
:1058D000535050444154412000000000474F544170
:1058E00020000000534E4B494E4954200000000058
:1058F00010B50446002C0CD0012C0AD0022C03D188
:10590000012005F071FF04E0032C02D1002005F016
:105910006BFF10BD10B502211D2004F03FFD0222D7
:105920000021024809F006FA10BD0000B7F0FF1F81
:10593000F8B505460C46BEE103F052FC6520005D5B
:10594000062873D006DC030007F08BFE06112B3B04
:105950004E61787320286AD004DC102868D01128A2
:1059600067D1A9E0212878D03028F9D195E101222A
:105970002146284607F04BFD2078AA2803D10121B3
:10598000652001550CE02078412803D102216520D3
:10599000015505E02078442802D1032165200155F6
:1059A00088E10122611C284607F031FD6078552806
:1059B00003D110216520015502E000216520015529
:1059C00078E10122611C284607F021FD6078542807
:1059D00006D104216520015500216420015502E013
:1059E00000216520015565E10122611C284607F070
:1059F0000EFD6078422806D1302165200155002136
:105A00006420015502E000216520015552E1012288
:105A1000A11C284607F0FBFCA0782D280AD10521FF
:105A20006520015500216420015506E01AE070E070
:105A30002BE03EE10021652001553BE10122E11C04
:105A4000284607F0E4FCE078422807D106216520CB
:105A5000015500216420015503E078E00021652014
:105A6000015527E10122211D284607F0D0FC2079AD
:105A7000202806D1212165200155002164200155EF
:105A800002E000216520015514E10122A11C2846F5
:105A900007F0BDFCA17864200155005D502803DCAF
:105AA0006420005D032803DA00216520015501E12F
:105AB000112165200155FDE06420005DC01E82B209
:105AC000E11C284607F0A3FC002800D1F8BD6420A3
:105AD000005D401EC1B2204604F03AFE6421095D1B
:105AE000491E615C88420ED177480078A84208D0F0
:105AF000284600F0FDFF6420025D2146734809F04E
:105B00000BF900F08DF90021652001556420015545
:105B1000DCE76420005D401D01190122284607F0E2
:105B200076FC6420005D401D205C202802D12121EC
:105B3000652001556420005D401CC1B26420015500
:105B4000005D962802DD002165200155B2E0642049
:105B5000005D401D01190122284607F058FC0A2269
:105B60005BA1601D09F0C4F8012806D00A225BA1E0
:105B7000601D09F0BDF8012873D10026607C2C2837
:105B800002D0A07C2C281DD1E07B202809D1607C8C
:105B90002C2806D1207C3138C6B211205249087019
:105BA00010E0E07B20280DD1A07C2C280AD1207C9D
:105BB00030380A214843617C40183038C6B2122080
:105BC000494908706420015D30460E3081423ADB5D
:105BD000002E38D06420005D401D205C0D282CD1A3
:105BE00039480078A84202D0284600F081FF3E489C
:105BF0000078C01C225C3C480078401C21183348C7
:105C000009F08AF8002701E0781CC7B2364800780E
:105C1000C01C205CB842F7DC2C488078401EC1B222
:105C20002A4804F095FD29498978491E274A515C84
:105C3000884201D100F0F4F800BF00216420015532
:105C40006520015528E06420005D401CC1B264203D
:105C50000155005D64281FDD0021652001551BE012
:105C6000FFE76420005D401D205C0D2808D1601D09
:105C7000FFF7CEFC002164200155652001550BE0A3
:105C80006420005D401CC1B264200155005D6428A1
:105C900002DD0021652001550CE00122A11C2846EF
:105CA00007F0B5FBA07801F037F800216520015519
:105CB00000E000BF00BF284607F0A2FB002800D08C
:105CC0003AE600BF02E70000C1F0FF1FB6F7FF1F72
:105CD00053505044415441494E440000424C4544C5
:105CE000415441494E440000C4F0FF1F10B500214B
:105CF000072004F053FB10BD10B506F05FFB10BD8C
:105D000010B509F09FF810BD10B506F089FB10BD65
:105D100010B5074804F067FA0548403004F063FA0C
:105D20000348803004F05FFA04F047FA10BD000029
:105D300000F00F4010B50120800309F0EBF810BD12
:105D400010B50449002006F00BFC0249012006F0C2
:105D500007FC10BD801A060010B509F0B5F810BD9B
:105D600010B5002009498861094848610720086189
:105D70000321081F05F0A0FD0020C043C206D20E7B
:105D800001219140034A116000BF10BD00E000E016
:105D9000FF70020000E100E010B5E121490200209F
:105DA00006F01AFDE1214902012006F015FDE1216E
:105DB0004902022006F010FD10BD70471CB5684670
:105DC000008804218843011D68460180008808215D
:105DD00088430146684601800088102188430146B7
:105DE0006846018000884021884341186846018048
:105DF0000088022188430146684601800088FF210F
:105E00008131884301468031684601807D21490106
:105E100041800021818007F0B1FB07F08FFB1CBDA2
:105E2000FEB5F84CA01F0079F02802DAFF2000F040
:105E300011FEF448801F00790B287DD006DC012874
:105E400015D0082879D00A2878D11DE00F2876D0FF
:105E5000FF28F9D1EB48801FC078EB49497B884285
:105E600004D10021E848603041720172F1E3E54855
:105E7000801F4079042805D103220121104605F036
:105E8000F7FD00BF00BFF1E7DE48801F407913280F
:105E90007ED019DC13287CD243007B449B885B00B6
:105EA0009F443B0090005101C30105020E032F03E4
:105EB00060037E039C03C303E2032D045E04850498
:105EC0007700770077006701872875D010DC83287A
:105ED00073D006DC142871D0152870D0822858D1D0
:105EE0007EE184286CD085286BD08628F7D130E3FA
:105EF00088380D28CFD243007B449B885B009F44A9
:105F000064038B034800480048004D0481044800A6
:105F10004800480078018B015002BC48807D002871
:105F200042D1207800280BD1B648801F42790A213F
:105F3000032005F09DFD3EE0EFE3EFE3EFE3EFE349
:105F40002078012814D1B24840680003C00F00280F
:105F500004D10120AD4988756078C875A948801FB3
:105F60004079C21DF9320A21032005F081FD22E0AB
:105F7000207802281FD1A64840680003C00F0028DF
:105F800004D10220A14988756078C8759D4801E058
:105F90000AE1FDE3801F4079C21DFF32FA320A2177
:105FA000032005F065FD06E09648801F42790A212E
:105FB000032005F05DFD1DE2E9E26FE148E21AE22F
:105FC000BCE195E22078002805D101220A210320B6
:105FD00005F04EFDB6E02078012808D18C484068D5
:105FE0000003C00F0028F5D100F02EFFAAE02078B2
:105FF000022827D160780028ECD08548406800034B
:10600000C00F002802D1607801F0D2F86078C10F8B
:10601000091849104900411A0AD06078401E400111
:106020000121C903084381B278482038418689E0BC
:106030006078401E40010121C9030843734920399B
:1060400088867FE02078032827D16078002879D0DF
:106050006F4840680003C00F002803D16078012119
:1060600000F044FF6078C10F091849104900411A37
:1060700009D06078401E40010121C90308436349EB
:10608000203948865EE06078401E40010121C90346
:1060900008435E492039888654E02078042820D1BE
:1060A000607800284ED05A4840680003C00F00288E
:1060B00002D1607801F048FB6078401E4002C01CAD
:1060C00082B20A21032005F0D3FC6078401E400014
:1060D000401C0002C01C82B20A21032005F0C8FC4B
:1060E00030E02078052828D1607800282AD0484858
:1060F00040680003C00F002803D16078002100F041
:10610000F5FE6078C10F091849104900411A0AD0FC
:106110006078401E40010121C903084381B23B4819
:10612000203841860EE06078401E40010121C903FD
:10613000084336492039888604E02078062801D1B2
:1061400002F0DAFA68E3324840680003C00F002822
:1061500003D12078A11C01F02FFF207800022949EB
:10616000891F4979401882B20A21032005F080FC7A
:1061700052E3274840680003C00F002808D10522D9
:10618000A11C244808F0C8FD2078A11C01F014FFD0
:10619000207800021B49891F4979401882B20A21E0
:1061A000032005F065FC37E3194840680003C00F81
:1061B000002809D10522A11C1648401D08F0ACFD9D
:1061C0002078144901F0F8FE207800020D49891F5B
:1061D0004979401882B20A21032005F049FC1BE3EB
:1061E00020780002801C82B20A21032005F040FCC6
:1061F00012E320780002123082B20A21032005F057
:1062000037FC09E3BCF7FF1F4CF7FF1FE006002037
:1062100030F1FF1FF4F8FF1F20780002133082B224
:106220000A21032005F024FCF6E2F7484068000349
:10623000C00F002827D1617868460170A1784170AD
:10624000E178817020790006617909044018A1790C
:1062500009024018E17940180190207A0002617A21
:10626000401881B2684601812578EA0F5219521010
:106270005200AA1AD1B22E46EA0F921950106A465D
:1062800001F0C0FA00BF20780002E04949794018C7
:1062900082B20A21032005F0EBFBBDE22078000268
:1062A000C01C82B20A21032005F0E2FBB4E2D6480A
:1062B00040680003C00F002835D16178684601703E
:1062C000A1784170E07800022179401881B26846D7
:1062D000418060790006A17909044018E17909023A
:1062E0004018217A40180190607A0002A17A401883
:1062F00081B268460181E07A0002217B401881B2B8
:10630000684641812578EA17D20E5219521152017E
:10631000AA1AD1B22E46EA17D20E921950116A4625
:1063200001F028F800BF20780002B84949794018E8
:1063300082B20A21032005F09BFB6DE22078C11791
:10634000C90E091849114901411A1F2920D1207885
:10635000C117890E091889118901411A20290BDA00
:106360002078C117C90E0918491149010122D20329
:106370001143A74A518613E02078C117C90E0918A6
:10638000491149010122D2031143A14A918607E034
:1063900020780002001D82B20A21032005F068FB6C
:1063A0003AE22078C117C90E091849114901411A6A
:1063B0001F291FD12078C117890E09188911890159
:1063C000411A20290BDA2078C117C90E0918491182
:1063D00049010122D20311438D4A51860AE02078F7
:1063E000C117C90E0918491149010122D2031143ED
:1063F000874A918610E2844840680003C00F002855
:106400001BD160780002A178401882490881E078A9
:106410000002217940187F4948812578EA17D20E79
:10642000521952115201AA1AD1B22E46EA17D20EAF
:1064300092195011774A00F09DFF207800027349AD
:106440004979401882B20A21032005F011FBE3E1EB
:106450006D4840680003C00F002826D160786D4960
:106460000870A0784870E0780002217940186949E6
:10647000488060790006A17909044018E179090291
:106480004018217A4018634948602578EA17D20EEF
:10649000521952115201AA1AD1B22E46EA17D20E3F
:1064A000921950115B4A00F065FF207800025749AD
:1064B0004979401882B20A21032005F0D9FAABE1EC
:1064C000514840680003C00F002806D162781202CC
:1064D000A378D118207800F0D3FC207800024B4933
:1064E0004979401882B20A21032005F0C1FA93E1EC
:1064F00020780002401D82B20A21032005F0B8FA7C
:106500008AE1414840680003C00F002811D120787B
:10651000002806D1E0780002217940183C49403932
:10652000C88262781202A378D21891B2207801F062
:106530001BFF2078000235494979401882B20A21B0
:10654000032005F095FA2078002801D100F008FB1F
:1065500062E120780002801D82B20A21032005F04A
:1065600087FA59E1284840680003C00F002803D18A
:106570006178207801F03EFE2078000223494979B5
:10658000401882B20A21032005F072FA44E1207813
:106590000002C01D82B20A21032005F069FA3BE126
:1065A000194840680003C00F002803D161782078A3
:1065B00001F056FD2078000214494979401882B252
:1065C0000A21032005F054FA26E120780002083061
:1065D00082B20A21032005F04BFA1DE10A48406807
:1065E0000003C00F002803D12078611C01F094FE45
:1065F0002078000205494979401882B20A21032017
:1066000005F036FA08E1000030F1FF1FB6F7FF1F72
:10661000C0060020E8F8FF1F20780002093082B28F
:106620000A21032005F024FAF6E02078F8490871E1
:10663000607848716178207802F09EF8002809D0CF
:10664000F4484079C21DF9320A21032005F010FAFE
:1066500009E0FCE1EF484079C21DFF32FA320A211D
:10666000032005F005FAD7E02078012829D1207809
:10667000E9490870601C04F087FA002817D0E01D73
:1066800005F006FE002808D0E2484079C21DF93224
:106690000A21032005F0ECF930E0DE4840790321BF
:1066A000090242180A21032005F0E2F926E0D94840
:1066B0004079C21DFF32FA320A21032005F0D8F9D1
:1066C0001CE02078022819D12078D3490870601C7A
:1066D00004F05AFA002808D0CE484079C21DF93299
:1066E0000A21032005F0C4F908E0CA484079C21D18
:1066F000FF32FA320A21032005F0BAF98CE0207843
:10670000012819D1C548007800280AD1FF220D328E
:106710000A21032005F0ACF921E07FE06BE195E16F
:1067200063E1BF480078002819D1FF220D320A2109
:10673000032005F09DF912E0207802280FD1B74818
:106740000078002806D1832292000A21032005F058
:106750008FF904E00B22B3A1002006F076FE5BE087
:106760002078012819D1B24840680003C00F0028E2
:1067700002D1607806F0CCFE20780002A549497964
:10678000401882B20A21032005F072F9062200E0C7
:1067900041E00A21032005F06BF93DE0207800027A
:1067A0000D3082B20A21032005F062F934E020782E
:1067B00001280AD101F0C8FC9D4840680121C904A4
:1067C000884340189A4948600BE02078022808D195
:1067D00001F0F4FC964840680121C90488439449BB
:1067E0004860207800028B494979401882B20A211A
:1067F000032005F03DF97F2252020A21032005F013
:1068000037F909E0207800020E3082B20A21032015
:1068100005F02EF900BF00BF00BF18E17D484079A8
:10682000030006F01EFF0504476395BADF002078D9
:10683000012815D176482038807D002809D160785C
:10684000002806D0607872492039C8750320887501
:106850002FE0FF2212020B21032005F009F928E0A6
:106860002078022815D16A482038807D002809D177
:106870006078002806D0607865492039C875042002
:10688000887516E0FF2212020B21032005F0F0F8B4
:106890000FE0207881280CD100205D492039C8758F
:1068A0006039C86760310876487688760021584894
:1068B000016098E056482038807D032815D1207863
:1068C00053492039C97D88420FD15A4850498039EF
:1068D000C86708466030C07D00024E4949794018BB
:1068E00082B20B21032005F0C3F87CE04848203831
:1068F000807D03282BD1207845492039C97D8842E5
:1069000025D16178424820380176007E401C4049FC
:106910008039C96F3F318909884208D33C488038A3
:10692000C06F8106890E3A482038417603E0402046
:1069300037492039487636482038C07D000235492D
:106940004979401882B20B21032005F091F84AE002
:106950002F482038807D04281ED120782C492039EA
:10696000C97D884218D160780006A17809044018D2
:10697000E178090240182179401825498039C86713
:1069800060790006A17909044018E17909024018EC
:10699000217A41181E48016025E01D482038807D7D
:1069A00004281ED121781A482038C07D814218D190
:1069B000607817492039097E884212D11E4D14484B
:1069C0002038007E80012D1812488078093882B264
:1069D000A11C284608F0A0F901200D49203988762D
:1069E00000BF00E000BF00BF31E00E2213A1002075
:1069F00006F02BFD2BE007484079012806D10C4812
:106A0000406802218843801C094948601FE000005B
:106A100000070020B6F7FF1F9DF0FF1FC1F0FF1F0A
:106A20009CF0FF1F41542B4220475645520D000059
:106A300030F1FF1FAC0D000000F9FF1F41542B4245
:106A400020534F544120310D0A00000000BF00BF09
:106A5000FEBD000010B586B00446412168460171B4
:106A6000542141713E2181710121C1711C4800787E
:106A7000002803D00120694608720AE0194800780E
:106A8000002803D002206946087202E0002069460F
:106A90000872002168464172092181728021C17209
:106AA000002101730D21417355218173AA21C17306
:106AB000062101740C48C17868464174847405212C
:106AC0000E3003F045FE01466846C1740D21017584
:106AD000112201A90548007806F0B7FC06B010BDE8
:106AE000BCF0FF1FBAF0FF1FB6F7FF1FC1F0FF1F7A
:106AF00010B504461448807D002824D1134800783E
:106B0000844204D11149124802F069F907E01148A2
:106B10000078844203D10F490D4802F060F90C4817
:106B20000078012803D10C4805F0BAFB0BE00848B7
:106B30000078022803D1094805F0B2FB03E00020E9
:106B4000C04305F0ADFB10BDE0060020C2F0FF1F02
:106B5000C1F0FF1FC3F0FF1F5555AAAA55AA55AA99
:106B600010B5002411E00B48408861000A4A515AD0
:106B7000884208DA09480470FF220E320A210320F5
:106B800004F076FF10BD601CC4B2282CEBDD00BF02
:106B9000F8E700008006002070C80100EAF0FF1F3F
:106BA00010B50F4803F0FDFD002809D001200D4964
:106BB000087000200C49087002200C4908700DE094
:106BC0000B4803F0EEFD002808D0022005490870AC
:106BD00000200549087001200449087010BD00001C
:106BE0005555AAAAC1F0FF1FC2F0FF1FC3F0FF1F37
:106BF00055AA55AA10B5002400BF04E0204600F0B5
:106C000005F8601CC4B2042CF8DB10BD10B50446B6
:106C10002101024A881804F0DBFF10BDF0F0FF1FCD
:106C200010B50021292003F0B9FB0021122003F048
:106C3000B5FB0021372003F0B1FB372003F04AFDFC
:106C400010BD000010B50221452003F0A7FB022271
:106C50000021024808F06EF810BD00008CF0FF1F04
:106C600010B529480078062800D010BD452003F053
:106C700051FD002801D1012000E0002023490870C7
:106C80000846007822490978884237D01F48407862
:106C9000401CC0B21D494870192832DB00204870E2
:106CA0000846007800280ED01A4840680121C9041F
:106CB000884340181749486001201549087001248D
:106CC00001F042FA0CE0134840680121C9048843EE
:106CD0001049486000200E490870022401F06EFA45
:106CE00020020E3082B20A21032004F0C1FE7F226E
:106CF00052020A21032004F0BBFE02E000200349F7
:106D0000487000BFB1E7000072F0FF1F8CF0FF1F5A
:106D10008EF0FF1F30F1FF1F70B50546042D2AD0FD
:106D200008DC002D0DD0012D0CD0022D0DD0032D2F
:106D300047D115E0052D29D0062D32D0102D40D198
:106D400030E03FE007F042F83CE0292003F006FB8A
:106D5000FF20F53005F0B8FD292003F0BBFC31E041
:106D6000062003F0FBFAFF20F53005F0ADFD06200C
:106D700003F0B0FC26E0282003F0F0FAFF20F53005
:106D800005F0A2FD282003F0A5FC1BE0072003F07E
:106D9000E5FAFF20F53005F097FD072003F09AFC97
:106DA00010E00FE0002409E0204602F0F7FF02F0B7
:106DB00017FA082005F088FD601CC4B2082CF3DD2A
:106DC00000E000BF00BF70BD70B504460D4601F085
:106DD000B5FA002C01D001F08FF800F05FFC00F054
:106DE000D1F800F075F8002C01D001F051FB01F052
:106DF0009FF901F02FFA70BD10B5002007494874C3
:106E000020394886888620310874887500F008F893
:106E100001210846FFF7D8FF10BD0000E006002062
:106E200010B5002408E0E200054950180822054981
:106E300007F072FF601CC4B2082CF4DB10BD000028
:106E4000B0060020EEC5010010B500200B494874C3
:106E500003F096F901210846FFF7B6FF0121084625
:106E600001F0E8FC00220A21032004F001FE7F2249
:106E700052020A21032004F0FBFD10BDE0060020B1
:106E800038B505460C4600200090082D01DC002D89
:106E900000D138BD210E684601702002010E6846FF
:106EA00041702004010E68468170C4706800064A73
:106EB000115A6B460422002004F0D8FF6900034AEF
:106EC000545200BFE5E70000C0C501007006002075
:106ED00010B5002005E000214200034B9952411CEF
:106EE00088B20928F7DB10BD7006002070B5044693
:106EF0000E46082C01DC002C01D1002070BD601E64
:106F0000C4B2002537E0012E14D1642005F0E8FC5E
:106F1000FF20813060431A4941180C206843085C07
:106F2000B043FF2181316143154A8A180C2169431E
:106F3000505412E0FF2081306043114941180C2069
:106F40006843085C40084000401CFF2181316143D8
:106F50000B4A8A180C2169435054FF20813060434A
:106F6000074941180C2068430A182946204600F0BA
:106F700001FA681CC5B2202DC5DB0120BEE7000068
:106F800070FAFF1F10B5002159E0002053E00024E3
:106F9000FF2281324A432B4BD3180C2242439C548C
:106FA000FF2281324A43274BD3180C2242439A5C7A
:106FB00052085200521CFF2381334B43214C1C19B1
:106FC0000C234343E2540024FF2281324A431D4BE9
:106FD000D3180C2242439A1854704B246401FF22A8
:106FE00081324A43174BD3180C2242439A185480DB
:106FF0008200154B9C58FF2281324A43114BD31813
:107000000C2242439A185460104CFF2281320B46E6
:1070100053430C4A9B180C2242439A1814818D2426
:10702000FF2281324A43074BD3180C2242439A185D
:107030005481421C90B22028A9DB4A1C91B2082935
:10704000A3DB10BD70FAFF1F18C70100DC050000AC
:1070500010B55248408E0121C9030840002800D1D4
:1070600010BD4F480078401C4D4908704D480078CD
:10707000002803D14C480078002835D048480078D3
:10708000042803DB4948007801280FD044480078E1
:10709000042803DB45480078022807D040480078E0
:1070A000082878DB41480078002874D100203C494A
:1070B00008703A48408E0002001D82B20A21032067
:1070C00004F0D6FC002866D03448408E401C33497A
:1070D0004886488EC117C90E091849114901411A3D
:1070E00059D12E48418656E02D480078042803D116
:1070F0002E48007801280FD029480078042803D1B1
:107100002A480078022807D02548007828280CD182
:1071100026480078002808D12048408E000214300C
:1071200082B20A21032004F0A3FC1D48007808283D
:1071300003DB1E48007801280FD019480078082882
:1071400003DB1A480078022807D0154800783C284D
:1071500021DB1648007800281DD100201049087056
:107160000E48408E0002153082B20A21032004F03E
:107170007FFC00280FD00948408E401C07494886F4
:10718000488EC117C90E091849114901411A02D187
:1071900000200249488600BF62E70000C0060020C8
:1071A000E7F0FF1FBAF0FF1FBBF0FF1FC1F0FF1F8A
:1071B0003EB50546082D01DC002D01D100203EBD65
:1071C000681EC5B200216846017000784108490078
:1071D000491C68460170002141704B2149014180E2
:1071E0000A4901818D21418100240AE0A00008495B
:1071F000085801906A462146284600F0BBF8601CFA
:10720000C4B2202CF2DB0120D9E70000DC0500002D
:1072100018C7010010B55248808E0121C9030840EB
:10722000002800D110BD4F480078401C4D4908701F
:107230004D480078002803D14C480078002835D00C
:1072400048480078042803DB4948007801280FD01B
:1072500044480078042803DB45480078022807D01A
:1072600040480078082878DB41480078002874D12D
:1072700000203C4908703A48808E0002001D82B20E
:107280000A21032004F0F4FB002866D03448808EE5
:10729000401C33498886888EC117C90E09184911C8
:1072A0004901411A59D12E48818656E02D4800786F
:1072B000042803D12E48007801280FD029480078EF
:1072C000042803D12A480078022807D025480078EE
:1072D0000C280CD126480078002808D12048808E40
:1072E0000002143082B20A21032004F0C1FB1D48C1
:1072F0000078082803DB1E48007801280FD01948C1
:107300000078082803DB1A480078022807D01548BF
:107310000078192821DB1648007800281DD10020AC
:10732000104908700E48808E0002153082B20A2182
:10733000032004F09DFB00280FD00948808E401CDC
:1073400007498886888EC117C90E09184911490155
:10735000411A02D100200249888600BF62E700007E
:10736000C0060020E8F0FF1FBAF0FF1FBBF0FF1FB0
:10737000C1F0FF1FF0B593B006460D461446082E27
:1073800001DA1F2D02DB002013B0F0BD61884B2213
:107390009201002003F04CFD60804D4A002061689E
:1073A00003F046FD606021894A4A002003F040FD59
:1073B0002081618919229201002003F039FD60814A
:1073C000EA17120F521912117300D2185200424BD1
:1073D0009A5A2846EB171B0F1B181B111B01EB1A9F
:1073E0009F00DB19D21892B212922078C007C00F0A
:1073F00000280DD06078002808D16089009023898A
:10740000618808A8626801F0E7FA12E00020BBE793
:10741000FF202D3005F064FA0021089109910A91AE
:107420000B912E480C910D9000200E900F90109013
:1074300011902078C006C00F002810D00122D2077A
:10744000099951400898099108900B9951400A9860
:107450000B910A900D9951400C980D910C9009993F
:10746000089803AA0191009004F044FC0B990A9833
:1074700004AA0191009004F03DFC0D990C9805AA16
:107480000191009004F036FC0F990E9806AA019124
:10749000009004F02FFC1199109807AA0191009018
:1074A00004F028FC03AB05220020129904F068FCCC
:1074B000FF20813070430A4941180C2068430818A6
:1074C000A3682268616883600260416001205BE715
:1074D00000770100B80B000098C701000000F03FE2
:1074E00070FAFF1F70B5044668480078401C674971
:1074F000087067480078030006F0B3F805041437F5
:107500006F94C3006348C07D0002C01C82B20B218F
:10751000032004F0ADFA00205C49087001205C49AA
:107520000870AFE05B486038C06F00280CD0594845
:10753000C07D0002001D82B20B21032004F098FAE6
:107540000220534908700FE0504800780A280BDBEE
:1075500000204E4908704F48C07D0002C01C82B216
:107560000B21032004F084FA8CE04A48807E002836
:1075700022D04848007E401C46496039C96F3F31DF
:107580008909884203D303204149087010E0002094
:107590003E4908703F48007E401C3E490876084638
:1075A000C07D0002001D82B20B21032004F060FAAE
:1075B0000020384988760FE03448007832280BDB09
:1075C0000020324908703348C07D0002001D82B29D
:1075D0000B21032004F04CFA54E000212E4A002035
:1075E00003E013785918521C401C2A4B603BDB6F98
:1075F0008342F6D8274B20331B688B4203D10423E8
:10760000234D2B700DE00023214D2B701F4D2B704F
:10761000204D603DEB6760352B766B76AB76203581
:107620002B602FE01B49C87D00F04AFF002827D0BF
:107630000020174908700121084601F0FBF81548A1
:10764000C07D1449487402F09BFD00201149C875A3
:10765000002110486038C1676030017600200D4974
:10766000487600210B48817600200A4920310860C5
:10767000412252020B21032004F0FAF9012070BDCF
:1076800000E000BF00BF0020F9E70000C9F0FF1FC5
:10769000C8F0FF1FE006002000F9FF1F00204BE0AC
:1076A000002318214143264A535418214143891885
:1076B0000B7318214143515C49084900491C1822A9
:1076C00042431F4B9954182141431A468918097B9C
:1076D00049084900491C18224243D2181173032358
:1076E00018214143164A89184B70182102464A4313
:1076F000134951184B7318214143114A89188B7053
:10770000182102464A430E4951188B73142318213D
:1077100041430B4A89184B600A4B18214143891891
:107720000B6100231821414389180B811821414323
:1077300089188B82411C88B20828B1DB7047000091
:10774000B0F9FF1F204E00003EB50446082C01DCB6
:10775000002C01D100203EBD601EC4B2002168464D
:107760000170007841084900491C684601700321F6
:1077700041708170142001900021684601816A46A1
:10778000204600F03FF8044801906A460121204657
:1077900000F038F80120DEE7204E000070B5044606
:1077A0000D46012D02D100201449087013480078BD
:1077B000002802D001281CD112E0204600F06CFB0A
:1077C00000280CD00E48447402F0DAFCFF2201328B
:1077D0000B21032004F04CF901200849087009E04E
:1077E0000748C07D002803D104490870012070BDFE
:1077F00000E000BF00BF0020F9E70000C7F0FF1F56
:10780000E0060020F0B5B1B005460F46144614213D
:1078100003A8FCF7F3FC082D01DA022F02DB00209D
:1078200031B0F0BD18206843ED4941180C20784371
:10783000085CC006C00F2178C906C90F48400290F5
:10784000E84A0020616803F0F3FA60602078C0071E
:10785000C00F00287ED06078012815D1A0780128BB
:1078600012D12389394608A8626801F0BDFC23893A
:10787000394612A8626801F0B7FC1CA802F03CF877
:1078800026A802F039F81EE16078012815D1A07809
:10789000032812D12389394608A8626801F0DCFE6A
:1078A0002389394612A8626801F0D6FE1CA802F0AE
:1078B00023F826A802F020F805E16078012823D1FA
:1078C000A078052820D10020032100910190238970
:1078D000394608A8626802F025F82389394612A8BB
:1078E000626801F081FC002003210091019023894E
:1078F00039461CA8626802F015F82389394626A883
:10790000626801F071FCDEE0607801282DD1A0787A
:1079100007282AD1002004210091019023893946AB
:1079200008A8626801F0FEFF012004210091019087
:107930002389394612A8626801F0F4FF002004216F
:1079400000910190238939461CA8626801F0EAFF82
:10795000012000E0A7E0042100910190238939462D
:1079600026A8626801F0DEFFADE06078022812D13F
:10797000A07801280FD12389394608A8626801F050
:1079800019FD12A801F0B8FF1CA801F0B5FF26A848
:1079900001F0B2FF97E06078022815D1A0780228A4
:1079A00012D12389394608A8626801F003FD2389B2
:1079B000394612A8626801F017FC1CA801F09CFF70
:1079C00026A801F099FF7EE06078022815D1A07802
:1079D000032812D12389394608A8626801F0EAFC1D
:1079E0002389394612A8626801F0E4FC1CA801F062
:1079F00083FF26A801F080FF65E06078032812D19C
:107A0000A07801280FD12389394608A8626801F0BF
:107A100023FE12A801F070FF1CA801F06DFF26A83C
:107A200001F06AFF4FE06078032819D1A07802289E
:107A300016D100200321009101902389394608A81E
:107A4000626801F06FFF2389394612A8626801F06D
:107A5000CBFB1CA801F050FF26A801F04DFF32E03F
:107A6000607803281DD1A07803281AD100200421B2
:107A7000009101902389394608A8626801F052FFFD
:107A800001200421009101902389394612A86268DF
:107A900001F048FF1CA801F02FFF26A801F02CFFE1
:107AA00011E00020BCE6FF202D3004F019FF08A8EB
:107AB00001F022FF12A801F01FFF1CA801F01CFF1B
:107AC00026A801F019FF2078C006C00F002810D0AA
:107AD0000122D207099951400898099108900B9901
:107AE00051400A980B910A900D9951400C980D91B4
:107AF0000C90029800280DD03B49681C085C0128B6
:107B000008D1691CC8B20022114600F0BDFA0A2053
:107B100004F0DAFE002643E02820704308A9081884
:107B200003C803AA0191009004F0E4F828207043F0
:107B300008A941188868C96804AA0191009004F056
:107B4000D9F82820704308A940184169006905AA9E
:107B50000191009004F0CEF82820704308A9411844
:107B60008869C96906AA0191009004F0C3F8282029
:107B7000704308A94018416A006A07AA0191009061
:107B800004F0B8F82801194A8018FA008018720029
:107B9000815A03AB0522002004F0F2F8701CC6B233
:107BA000042EB9DB029800280DD00F49681C085C30
:107BB000012808D11E2004F087FE691CC8B20022EB
:107BC000012100F061FA18206843054941180C2092
:107BD0007843081821460EC90EC0012020E6000097
:107BE000B0F9FF1F0077010098060020B8C7010018
:107BF000F0B585B004460F46601E4000644A115A35
:107C000003AA012004F098F86846007B0106684644
:107C1000407B000409186846807B0002091868460A
:107C2000C07B081802900298FCF7E3FF054600228B
:107C3000584BFCF799FD49004908621ED200564B8B
:107C40009A1803C2601EC000194609180D684968D9
