:020000040000FA
:10400000C80D00209F410000AB410000AD41000001
:1040100000000000000000000000000000000000A0
:10402000000000000000000000000000AF410000A0
:104030000000000000000000B141000075BD00005C
:10404000B5410000B5410000B5410000B541000098
:10405000B5410000B5410000B541000015A50000C4
:10406000B5410000B5410000B1B60000B3B6000094
:104070003DC8000047C8000051C800004D52000074
:10408000B5410000B5410000B5410000B541000058
:10409000B5410000B5410000B5410000B541000048
:1040A00071A50000B5410000B5410000B541000018
:1040B000B5410000B5410000B5410000B541000028
:1040C00000F002F800F03EF80CA030C808382418C0
:1040D0002D18A246671EAB4654465D46AC4201D140
:1040E00000F030F87E460F3E0FCCB6460126334234
:1040F00000D0FB1AA246AB46334318471C8201008E
:104100003C820100103A02D378C878C1FAD852072D
:1041100001D330C830C101D504680C60704700007D
:104120000023002400250026103A01D378C1FBD8D3
:10413000520700D330C100D50B6070471FB51FBDBB
:1041400010B510BD00F0A6FF1146FFF7F7FF09F00C
:1041500005FC00F0BEFF03B4FFF7F2FF03BC00F064
:10416000EFFF000070B505460C46164602E00FCC86
:104170000FC5103E102EFAD2082E02D303CC03C571
:10418000083E042E07D301CC01C5361F03E0217879
:104190002970641C6D1C761EF9D270BD70470948E9
:1041A00080470948804709480047FEE7FEE7FEE7E9
:1041B000FEE7FEE7FEE7000005480649044A064B15
:1041C0007047000009C100009D410000C14000008F
:1041D000C8080020C80D0020C808002001E004C065
:1041E000091F0429FBD28B0701D50280801CC90757
:1041F00000D00270704700290BD0C30702D00270B4
:10420000401C491E022904D3830702D50280801C6A
:10421000891EE3E70022EEE70022DFE70022030920
:104220008B422CD3030A8B4211D300239C464EE0D1
:1042300003460B433CD4002243088B4231D303098D
:104240008B421CD3030A8B4201D394463FE0C3093F
:104250008B4201D3CB01C01A524183098B4201D357
:104260008B01C01A524143098B4201D34B01C01A42
:10427000524103098B4201D30B01C01A5241C308BA
:104280008B4201D3CB00C01A524183088B4201D329
:104290008B00C01A524143088B4201D34B00C01A15
:1042A0005241411A00D201465241104670475DE02A
:1042B000CA0F00D04942031000D3404253400022AD
:1042C0009C4603098B422DD3030A8B4212D3FC2256
:1042D000890112BA030A8B420CD3890192118B42D5
:1042E00008D3890192118B4204D389013AD09211EB
:1042F00000E08909C3098B4201D3CB01C01A5241A6
:1043000083098B4201D38B01C01A524143098B426E
:1043100001D34B01C01A524103098B4201D30B0157
:10432000C01A5241C3088B4201D3CB00C01A52417C
:1043300083088B4201D38B00C01A5241D9D2430863
:104340008B4201D34B00C01A5241411A00D20146A0
:10435000634652415B10104601D34042002B00D50A
:104360004942704763465B1000D3404201B50020CC
:10437000C046C04602BD70477047704730B503461F
:10438000CA02400D1043164D164C0A1502D02043A8
:10439000002A06DBAA1A002A12DDD040FF2A0BDC15
:1043A00030BD5205520D01D140004008AA1A07D471
:1043B000D0404042FF2A01DD002030BD0028FCDD56
:1043C0004A00002B01D0012000E00020101801223B
:1043D0005205D042F0D8C817C043604030BD00003D
:1043E0001E0400000000008010B500F029FE0068E7
:1043F00010BD10B5044600F023FE046010BD7047E8
:10440000FFFFFFFFFFFFFFFFFFFFFFFFFFFFFEFEBE
:10441000F0B50C46871A9C410D46861A9D4103D281
:10442000C01BA141D21963410D0D1F0DC94EEC1BDC
:10443000AE435CD07F057F0D0026002F51D02D05A7
:10444000AC46A943DD020123ED0A1B051D432023D1
:104450001B1B24D41746E740381871412F46E7400C
:10446000CC199D402818314661410C0D27D161447B
:104470009A4013D50023401C594152000ED14008E8
:10448000400001224B005205D34207D305204007CC
:10449000C14201D5B04900E0B0493046F0BD6B00E3
:1044A000002A00D001229A181F23203C1B1B01D593
:1044B000002302E0E540281871410C0DD7D00124FB
:1044C00024050919C407CD0740084908E40F28430B
:1044D0006144002CD5D00024401C61419A40D0D1C9
:1044E000CDE76A05520DD9D1C90FC907D5E79C4D53
:1044F0004E00002801D0012400E0002434195F00A0
:10450000002A01D0012600E00026BE19954FAC42DA
:104510000CD8AE420AD8B44206D001256D05EC4253
:10452000BCD010461946F0BD9942FCD00020394657
:10453000F0BDF0B51FB40C460F46811A9F412546C9
:10454000861A9D4106D20125ED076F40401ABC41F5
:1045500052187B41210D1E0D8D1BAC467D4D8D43A8
:104560007ED075056D0D7CD00D05AE46AC431B03AA
:104570001B0B794D52429D41202366469B1B14D351
:104580001746F740381800260090744160462F46C1
:104590000741E41900989D402818664116D47146D9
:1045A00071189A4025D5012320E093182A466A41C4
:1045B0005200002B00D0521C1E23203E9B1B002BC0
:1045C00061DD3541EE1728186641E8D500187641BF
:1045D0005B1C9A4000D3401C4B05F3181524E340A4
:1045E00010D3002B52D071467118D30FC01802D3CC
:1045F000491C05B0F0BD0123DB079A42F9D1400800
:104600004000F6E701225205B21801D1002853D02C
:104610000123CC0ADB029943891E002A08D1020C2F
:1046200003D0020C0004103902E0024600202039B9
:104630000023550B05D112020823550B01D152015D
:104640000D23550C01D112011B1DD50C01D1920077
:104650009B1C150D01D152005B1C2025EE1A01E0B8
:104660002CE022E00546F54015439840CA1AE107C0
:1046700069181305C918002ABBDA03204007081877
:10468000C10FC9070FE071466118B2E7F107400892
:104690000843711071444A000CD001235B059A4213
:1046A000A7D2C90FC9070020A3E74905490D26D1A4
:1046B000002001E00028F4D100219AE7284D66008F
:1046C000002801D0012100E0002171185F00002ABC
:1046D00001D0012600E00026BE19224FA94210D8C1
:1046E000AE420ED8B14208D001256D05E94206D090
:1046F0001946A802414010467BE79C4201D0214662
:1047000077E70020394674E710B50C465C4005D5C4
:104710000124E4076340FFF70CFF10BDFFF778FEAC
:1047200010BD30B40C465C4004D50124E40763405E
:1047300030BC6DE630BCFCE670B50124E407614096
:104740000D465D4002D4FFF763FE70BD6340FFF786
:10475000F0FE70BDFF0700000000F0FF0000F07FDA
:104760000000E0FF0000F87FF0B5F94D0C091E09CC
:104770002C402E402F468BB0A7437DD0B543FCD0B4
:10478000002E7AD0002CFCD00D465D40ED0F254365
:10479000AC1BFF25AD0464190894C502440DC90281
:1047A0002143500DDC0204430120C00701430443B0
:1047B000D2020191200C110C00958C460104234675
:1047C0008B430A9161460904E24D8A430991010A2B
:1047D0007D4449198039097805464D4301266D18F5
:1047E000F605751B6943C90C640B891C4C4364189E
:1047F000B5012C1B250C2E04B4434C434D43210C16
:10480000691889090591009DE90701D00121C907AF
:1048100004912C4601996708CD072F434C08059D4C
:10482000E10B4D432D0C29466646754302950D4616
:1048300045432E46029D7D1BB44100950D465D43C8
:1048400001942C0C2F040D465543AE462D0C3D43D0
:10485000029503947546049C2D04641B049406D2AF
:10486000029C039D641C002675410395029401ACD3
:1048700070CC009F7D1B01E03EE162E1B441090480
:104880000095079101940599A4086143090C0C4611
:104890004443650BE7040C4666467443A646640B26
:1048A0003C43039502947446049DE4042C1B049439
:1048B00006D2029C039D641C002675410395029458
:1048C00001AC70CC009F7D1BB44101940C465C434D
:1048D0000095650FE7000C465443A646640F3C4321
:1048E000039502947446049DE4002C1B049406D2A4
:1048F000029C039D641C002675410395029401AC43
:1049000070CC009F7D1BB441AE09AF06049DC90069
:10491000AD092F43049DA406AD060495079D3443BD
:1049200069180791059DE10B4D432D0C29466646FC
:10493000754302950D4645432E46029D7D1BB441AD
:1049400000950D465D4301942C0C2F040D465543F4
:10495000AE462D0C3D43029503947546049C2D04F0
:10496000641B049406D2029C039D641C00267541BE
:104970000395029401AC70CC009F7D1BB44101945F
:104980008C050694079C890A611800950791019C83
:104990000599A4086143090C0D464543680BEF04D3
:1049A0000D46644665436C0B3C43049FED047D1B40
:1049B000AC4602D20025641C6841009E019D371B55
:1049C00085410846584301950C46460FC50054439F
:1049D000600F28436546E4002C1B02D20025401CD2
:1049E0006E41019D3F1AB5412846BD098006284306
:1049F0008446A009BF064E020699A406761807430E
:104A0000079D002068410A99079019430020099BDF
:104A100000906046FF1913434041E20F64003A439F
:104A2000A4460446D71A8C41A04203D90120009025
:104A300020463A46C70F941840416246D20F22439F
:104A4000644664000494009CBE466400D71AA446E1
:104A5000044602978C417746002F01D1A04204D929
:104A60006046401C8446029A2046C40FA64694180D
:104A70004041049A0546D20F224364466400D31A8B
:104A80008D417146002901D1A84202D928461A4613
:104A9000641C10430122002800D01643610200204C
:104AA000079B891904465C410223002C02DB49184C
:104AB00013466441089DCE0A2D145D194B05670508
:104AC000E10A2C050D1908993E43C9076940002BDE
:104AD00008D0934006D30022761C5141002B01D10F
:104AE000760876001C4A002D43DB154241D0AA43CC
:104AF0003FD030460BB0F0BD06180D464D41174C67
:104B00007642AC411AD395181C465C41134A6D425B
:104B1000A24113D3012252054C00D4420AD15C00B9
:104B2000D4420BD04B4002D592021143E2E7490038
:104B30004908DFE75940C90FC90718E000200849B4
:104B4000D8E7054801420DD10342F7D0F2E7000053
:104B50000000FF07107901000000F07F0000E0FF77
:104B60000000F87F114859400143C0124140002025
:104B7000C0E70123089A9B069A4205DC03225207EC
:104B80008918C90FC907B5E7052252078918074ACE
:104B90001143D2125140ADE770B515461C4602468E
:104BA0000B4628462146FFF7DFFD70BDFFFFFF7F64
:104BB0001F22030C02D10F22000402D0030E03D0E7
:104BC00004E00020014670470002083A030F01D1BB
:104BD0000001121F830F01D18000921E002801DB0B
:104BE0004000521E120551184205C01241181046CD
:104BF0007047C10FC90700D04042012292071143FC
:104C0000D6E701218907D3E7F0B58B4C0F0925467C
:104C100089B0BD437BD01D092646AE43FAD00E466F
:104C20005E402740F60F3E43254071D024012142CB
:104C3000FBD0FF24AD19A4042D1B039501252D05E0
:104C4000DB02DB0AC9022B43C90A29431E01090101
:104C5000040F130F050121431701880B82039143B1
:104C60002D098C46A90B1E438A039543B30B9A0367
:104C700096433F09BA0B9403A74302962E467E4300
:104C80000497B6464E19D7190C460196544305971A
:104C90007E43371B7646BF1B3601B646BE0B361920
:104CA00000967646BC043719009C01D3641C00941E
:104CB0006400002F01D001263443029E049F7543F7
:104CC00066467E430496760034196E0034190094CB
:104CD000029C019E1C196643751BAE4606946546F0
:104CE0004519059C05956C43594375460891691A09
:104CF0000191049E01465143A41B0491611A009C3A
:104D00000791E10605D061090122114302E072E03A
:104D10006EE06109089D00272C0A2D066918049D84
:104D20007C412A0A2D066918019D6241AC0DAD0235
:104D30006D185441079A910D920255196141029ADA
:104D4000644658435443069B059A5A43121A131B50
:104D50009A0E9B015B187A41010B0005C318514163
:104D6000220A200644195A419A4200D2491C0120C5
:104D70004002814203D315230226F64302E01423A6
:104D80000326F6432020C51AA9401746AF40DA4053
:104D90000A4320460399D84009147318190551187D
:104DA000039A3843D2075140AC4009D001229440C5
:104DB00006D30022401C5141002C01D14008400084
:104DC0001E4A934212D3012203989206904207DBB7
:104DD0000520400709181A480143C012414004E069
:104DE000032040070818C10FC907002009B0F0BD13
:104DF0000020F107FAE705180C464C4111486D42B6
:104E0000A04115D394181A465A410E486442904165
:104E10000ED301204A004005824209D35A00824243
:104E200006D35940C90F084AC90700201143DDE7DE
:104E300000200649DAE700000000FF07FE07000037
:104E4000FFFFFF7F0000E0FF0000F07F0000F87F21
:104E5000F8B5224C4E00069DA6420AD8A64201D1C2
:104E6000002806D15E00A64203D8A6420AD1002A35
:104E700008D00D24240425422CD02946002000F01F
:104E8000E3F8F8BD0C461C430CD4994202D0EFF372
:104E90000080F8BD904202D0EFF30080F8BDEFF340
:104EA0000080F8BD09242407E5008B4206D0EFF30B
:104EB0000080A043591A06D2284304E0101A05D3F3
:104EC000EFF30080A04380F30088F8BDEFF300808B
:104ED000A043F1E7009500F0CFF8F8BD0000E0FF37
:104EE00070B505464800440D124B0020002C0AD036
:104EF000634008D09A4206DA6642B24203DD1205E8
:104F00004019514170BD002C08D0002B09D0C90FA9
:104F1000C907002AF6DB084A114370BDC90FC9074B
:104F200070BD28460A03104302D00020034970BD1B
:104F3000284670BDFF0700000000F07F0000F87FEA
:104F4000F0B53D4B02460C461C400020002C63D0BF
:104F50003A4D8B4366D000296BDB0B0D1D05A94331
:104F600001252D0529430124FD33E34001D3921887
:104F70004941FF3381339C468B02940D0121234329
:104F800089074C42920200271B198C105D1A04D429
:104F90002D1B02D42B466500491992185B41640809
:104FA000F4D15C1A08D40125ED07EE1755197441A8
:104FB00002D42A462346491C94185B4101229207D9
:104FC0001D46E61B8D4106D4B61A854103D42B46F7
:104FD000550034467F1924195B415208802AEFD1CD
:104FE000234300D0022338460A22D04001D30122B5
:104FF00013438A0510436246890A12058918002B5B
:1050000009D00122D34002D30022401C5141002B81
:1050100001D140084000F0BD0B03134307D0C90F76
:10502000C907F0BD0803104303D1002901DB104676
:10503000F0BD00202946F0BD0000F07F0000F87FA1
:105040000048704768080020C80212D54803400F86
:10505000002804D0C803C043012188407047EFF303
:1050600000800001000903210907084380F300883C
:10507000704700207047000010B500200249029AD6
:1050800000F02FF810BD00000000F87F00487047C6
:10509000680800207546FFF7F9FFAE46050069462F
:1050A0005346C008C000854618B020B5FFF784F805
:1050B00060BC00274908B6460026C0C5C0C5C0C5AB
:1050C000C0C5C0C5C0C5C0C5C0C5403D49008D46AE
:1050D000704710B50446C046C0462046FFF73BF86F
:1050E00010BD10B50C461107090F092904D00A2973
:1050F0000AD008290CD104E011460820FFF7A4FFCC
:1051000006E0510606D501E0510601D50120C00791
:10511000214610BDD10607D501010909CC08490770
:10512000000E0006044309E0410F20024907000A6F
:105130000143200E00061D22D14101430846E7E746
:1051400001491820ABBEFEE72600020010B546203C
:1051500004F0B8FF012800D100E0002019490870D0
:1051600008460078184909790907C90F884224D0F0
:1051700014484078401CC0B21249487019281FDBFF
:10518000002048700846007800280FD00E4840687C
:1051900001210905884340180B49486008464068CA
:1051A0000821884308300849486009E006484068FB
:1051B000082188430449486002E000200149487002
:1051C00010BD00009CF0FF1F10F1FF1F10B504463A
:1051D000012C03D12D2004F055FF02E02D2004F016
:1051E00095FD10BD10B50121462004F0AFFD02224F
:1051F0000021024809F026F910BD00009CF0FF1FB5
:1052000010B50021062004F0A1FD0021282004F0A3
:105210009DFD10BD10B504461F21204600F011F978
:10522000034840690121490788430149486110BD8D
:105230000080044070B504460D462146024800F047
:10524000DBF82880012070BD00B0034070470000EB
:1052500030B504460D466548844206D1644840692D
:10526000012149070843624948612979204600F035
:10527000D5F86979204600F0D9F8A979204600F0E0
:10528000F0F8E979204600F0E4F86888A061287811
:105290000007C00F002806D000BF60682021084327
:1052A000606000BF00BF2878C006C00F002806D08D
:1052B00000BF606810210843606000BF00BF28780D
:1052C0008007C00F002806D000BF206820210843B7
:1052D000206000BF00BF2888C005C00F002806D08E
:1052E00000BFE06820210843E06000BF00BF2878CD
:1052F0000006C00F002806D000BFE0684021084328
:10530000E06000BF00BF28784007C00F002806D02B
:1053100000BF606840210843606000BF00BF28787C
:10532000C007C00F00280CD000BF206840210843F0
:10533000206000BF0F20012181402E4A116000BF74
:1053400000BF28784006C00F002806D000BFA06824
:1053500010210843A06000BF00BF28788006C00F5E
:10536000002806D000BFA06880210843A06000BFCD
:1053700000BF28888005C00F002807D000BFE06864
:10538000FF2101310843E06000BF07E000BFE06893
:10539000FF2101318843E06000BF00BF288840053D
:1053A000C00F002806D000BFE06902210843E06179
:1053B00000BF06E000BFE06902218843E06100BF52
:1053C00000BF28880005C00F002806D000BFE06994
:1053D00001210843E06100BF06E000BFE06940082A
:1053E0004000E06100BF00BF30BD000000B00340DE
:1053F0000080044000E100E030B504460D46294637
:10540000204600F01EF800BF00BF20688021084041
:105410000028F9D000BF206980B230BD82689208B0
:1054200092008B079B0F13438360704710B582680F
:1054300060241346A3431A464B0123401343836061
:1054400010BD026852095201CB06DB0E1343036004
:105450007047C268D208D2004B075B0F1343C3608A
:10546000704710B582680C241346A3431A468B007C
:1054700023401343836010BD10B500212F2004F09A
:1054800065FC0021152004F061FC02210D2004F0D0
:105490005DFC10BD10B51D2004F014FE002801D1E4
:1054A000012000E0002016490870084600781549E0
:1054B00049684903C90F88421ED011484078401CF2
:1054C000C0B20F494870192819DB002048700846FF
:1054D0000078002808D00B484068012189048843DF
:1054E0004018084948600AE00648406801218904DC
:1054F00088430449486002E000200149487010BD1B
:105500009EF0FF1F10F1FF1F024803498860034807
:10551000C86070478DC700001CF7FF1FB1C70000AF
:1055200010B5044606480078032807D10448C0682F
:10553000002803D00248C1682046884710BD0000FB
:105540001CF7FF1F10B500201B49487100241BE009
:105550001A49085D04F0C4FE002813D016484079AB
:10556000002808D11548005D134948700120487192
:105570000846C47006E01148005D0F49887008466F
:10558000047103E0601CC4B2042CE1DB00BF0A48D4
:10559000C078042801D1002010BD0748C0788000E1
:1055A00007490858002805D00349C9788900044AEA
:1055B000505880470120EFE71CF7FF1F90E70000DD
:1055C00094E7000000214868804700BFFEE7000024
:1055D00010B5044609222CA1204608F011FF08222C
:1055E0002CA1204608F00CFF012808D100202C49EE
:1055F000087001202B49087006F0EEFC0CE0082230
:1056000029A1204608F0FCFE012805D100202549EB
:105610000870012006F0E0FC082226A1204608F0D0
:10562000EFFE012808D100201E49087001201C4906
:10563000087006F0D1FC11E0082221A1204608F0F4
:10564000DFFE01280AD1002015490870012006F06C
:10565000C3FC0E221DA1002007F07FFA08221FA123
:10566000204608F0CDFE012801D106F0B5FC082245
:105670001DA1204608F0C4FE012804D113221DA15B
:10568000002007F06AFA10BD44415441494E495484
:1056900020000000535050434F4E4E2000000000A9
:1056A000A1F0FF1FA0F0FF1F535050444953432067
:1056B00000000000424C45434F4E4E2000000000C9
:1056C000424C4544495343200000000041542B42C2
:1056D00020424C4541445620310D00005350504467
:1056E0004154412000000000534E4B494E49542084
:1056F0000000000041542B4220534C444E204453A0
:10570000505F384348330D0010B50446002C0CD0D0
:10571000012C0AD0022C03D1012005F0FFFB04E08C
:10572000032C02D1002005F0F9FB10BD10B50221B9
:105730001D2004F00BFB02220021024808F082FE2B
:1057400010BD00009EF0FF1F70B506460C46ABE191
:1057500003F01EFA6520005D062873D006DC030006
:1057600007F007FB06112B3B4E61787320286AD0A7
:1057700004DC102868D0112867D1A9E0212878D04E
:105780003028F9D182E101222146304607F0C7F9DD
:105790002078AA2803D10121652001550CE020784A
:1057A000412803D102216520015505E020784428D5
:1057B00002D103216520015575E10122611C3046AB
:1057C00007F0ADF96078552803D110216520015507
:1057D00002E000216520015565E10122611C30468F
:1057E00007F09DF96078542806D104216520015501
:1057F00000216420015502E000216520015552E19D
:105800000122611C304607F08AF96078422806D1EF
:1058100030216520015500216420015502E000215E
:10582000652001553FE10122A11C304607F077F9C0
:10583000A0782D280AD1052165200155002164207A
:10584000015506E01AE070E02BE02BE10021652015
:10585000015528E10122E11C304607F060F9E078AB
:10586000422807D1062165200155002164200155F9
:1058700003E078E000216520015514E10122211D9B
:10588000304607F04CF92079202806D121216520E7
:10589000015500216420015502E0002165200155D9
:1058A00001E10122A11C304607F039F9A1786420FA
:1058B0000155005D502803DC6420005D032803DAF5
:1058C000002165200155EEE0112165200155EAE037
:1058D0006420005DC01E82B2E11C304607F01FF953
:1058E000002800D170BD6420005D401EC1B220467A
:1058F00004F006FC6421095D491E615C88420ED1FA
:105900006D480078B04208D0304600F0C9FE6420EF
:10591000025D2146694808F087FD00F079F9002111
:105920006520015564200155DCE76420005D401DC1
:1059300001190122304607F0F2F86420005D401D95
:10594000205C202802D12121652001556420005DC2
:10595000401CC1B264200155005D962802DD002183
:10596000652001559FE06420005D401D0119012262
:10597000304607F0D4F80A2251A1601D08F040FD1E
:10598000012806D00A2251A1601D08F039FD012826
:1059900060D10025607C2C2802D0A07C2C281DD151
:1059A000E07B202809D1607C2C2806D1207C31386E
:1059B000C5B211204849087010E0E07B20280DD1C5
:1059C000A07C2C280AD1207C30380A214843617CF5
:1059D00040183038C5B212203F4908706420015D7C
:1059E00028460E30814228DB002D26D06420005D41
:1059F000401D205C0D281AD137480078C01C225C5D
:105A000035480078401C21182C4808F00DFD2B4823
:105A10008078401EC1B2294804F072FB274989787A
:105A2000491E264A515C884201D100F0F1F800215C
:105A3000642001556520015527E06420005D401C6D
:105A4000C1B264200155005D64281EDD002165207F
:105A500001551AE06420005D401D205C0D2808D12E
:105A6000601DFFF7B5FD002164200155652001553B
:105A70000BE06420005D401CC1B264200155005D54
:105A8000642802DD0021652001550CE00122A11CE3
:105A9000304607F044F8A07800F006FF00216520AA
:105AA000015500E000BF00BF304607F031F8002884
:105AB00000D04DE600BF15E7A4F0FF1F82F7FF1FDF
:105AC00053505044415441494E440000424C4544D7
:105AD000415441494E440000A7F0FF1F10B500217A
:105AE000072004F033F910BD10B505F0EFFF10BD2D
:105AF00010B508F02FFD10BD10B506F019F810BD57
:105B000010B5074804F047F80548403004F043F862
:105B10000348803004F03FF804F027F810BD00007F
:105B200000F00F4010B50120800308F07BFD10BD90
:105B300010B50449002006F09BF80249012006F048
:105B400097F810BD801A060010B508F045FD10BD8D
:105B500010B500200949886109484861072008619B
:105B60000321081F05F042FA0020C043C206D20EEE
:105B700001219140034A116000BF10BD00E000E028
:105B8000FF70020000E100E010B5E12149020020B1
:105B900006F0AAF9E1214902012006F0A5F9E12168
:105BA0004902022006F0A0F910BD70471CB56846F6
:105BB000008804218843011D68460180008808216F
:105BC00088430146684601800088102188430146C9
:105BD000684601800088402188434118684601805A
:105BE0000088022188430146684601800088FF2121
:105BF0008131884301468031684601807D21490119
:105C000041800021818007F041F807F01FF81CBD9A
:105C1000FEB5FE4CA01F0079F02802DAFF2000F04C
:105C2000F1FCFA48801F00790B287DD006DC0128A2
:105C300015D0082879D00A2878D11DE00F2876D011
:105C4000FF28F9D1F148801FC078F149497B88428B
:105C500004D10021EE48403041750175C2E3EB48A4
:105C6000801F4079042805D103220121104605F048
:105C700099FA00BF00BFF1E7E448801F40790C2883
:105C800072D009DC030007F074F80C297DF3F2F1FF
:105C9000F0EFEEEDECEBEA7C86286ED00EDC83288C
:105CA0006CD006DC0D286AD00E2869D0822868D115
:105CB0004AE184286FD08528F9D12CE2873808285A
:105CC0005FD243007B449B885B009F447302910238
:105CD000AF025A005A005A0052038003CD48807D1B
:105CE000002842D12078002807D1C848801F427977
:105CF0000A21032005F056FA3EE0207801281AD147
:105D0000C54840680003C00F002805D10120C149E3
:105D100088756178BF48C175BC48801F4079C21D35
:105D2000F9320A21032003E05DE3FCE3FCE3FCE33A
:105D300005F038FA20E0207802281DD1B6484068E6
:105D40000003C00F002804D10221B2488175617898
:105D5000C175AE48801F4079C21DFF32FA320A2158
:105D6000032005F01FFA07E0D3E2A848801F42791C
:105D70000A21032005F016FA33E3FDE127E1DCE216
:105D800000E32DE32078002806D101220A21032018
:105D900005F008FAC1E073E12078012808D19E4897
:105DA00040680003C00F0028F4D100F015FEB4E0F5
:105DB0002078022828D160780028EBD096484068E7
:105DC0000003C00F002802D1607800F057FF607810
:105DD000C10F091849104900411A0AD06078401EC5
:105DE00040010121C903084381B28A482038418615
:105DF00093E06078401E40010121C903084381B24D
:105E000084482038818688E02078032831D1607862
:105E1000002819D0804840680003C00F002803D133
:105E20006078012100F02AFE6078C10F091849103E
:105E30004900411A09D06078401E40010121C90380
:105E4000084374492039488667E06078401E400165
:105E50000121C90308436F49203988865DE00DE2BE
:105E6000EDE1CEE1AFE190E15EE13CE1B8E074E06C
:105E700054E02078042820D1607800284DD066486E
:105E800040680003C00F002802D1607801F060F97B
:105E90006078401E4002C01C82B20A21032005F037
:105EA00081F96078401E4000401C0002C01C82B294
:105EB0000A21032005F076F92FE02078052827D164
:105EC0006078002829D0544840680003C00F00289B
:105ED00003D16078002100F0D1FD6078C10F09186E
:105EE00049104900411A09D06078401E4001012143
:105EF000C90308434749203948860EE06078401EB0
:105F000040010121C903084342492039888604E041
:105F10002078062801D102F0C7F862E23E484068C6
:105F20000003C00F002803D12078A11C01F042FD1E
:105F3000207800023549891F4979401882B20A2128
:105F4000032005F02FF94CE220780002801C82B279
:105F50000A21032005F026F943E22F484068000398
:105F6000C00F002827D1617868460170A178417080
:105F7000E178817020790006617909044018A179DF
:105F800009024018E17940180190207A0002617AF4
:105F9000401881B2684601812578EA0F52195210E3
:105FA0005200AA1AD1B22E46EA0F921950106A4630
:105FB00001F02CF900BF207800021449891F4979AB
:105FC000401882B20A21032005F0ECF809E220789B
:105FD0000002C01C82B20A21032005F0E3F800E2AF
:105FE0000D4840680003C00F00283ED16178684624
:105FF0000170A1784170E07800022179401881B2E7
:106000006846418060790006A17907E088F7FF1FA4
:106010002CF7FF1F9406002010F1FF1F0904401801
:10602000E17909024018217A40180190607A000253
:10603000A17A401881B268460181E07A0002217B92
:10604000401881B2684641812578EA17D20E52196C
:1060500052115201AA1AD1B22E46EA17D20E921943
:1060600050116A4600F08AFE00BF20780002F8490D
:106070004979401882B20A21032005F093F8B0E173
:106080002078C117C90E091849114901411A1F2961
:1060900020D12078C117890E091889118901411A68
:1060A00020290BDA2078C117C90E091849114901B6
:1060B0000122D2031143E74A518613E02078C11729
:1060C000C90E0918491149010122D2031143E14ABD
:1060D000918607E020780002001D82B20A21032089
:1060E00005F060F87DE1DC4840680003C00F00283F
:1060F00006D162781202A378D118207800F088FCCB
:1061000020780002D2494979401882B20A2103203E
:1061100005F048F865E120780002401D82B20A21AE
:10612000032005F03FF85CE1CB4840680003C00F56
:10613000002811D12078002806D1E07800022179CA
:106140004018C4494039C88262781202A378D21834
:1061500091B2207801F0E6FD20780002BC4949792F
:10616000401882B20A21032005F01CF8207800288C
:1061700001D100F0CDFA34E120780002801D82B216
:106180000A21032005F00EF82BE1B3484068000314
:10619000C00F002803D16178207801F00FFD20782E
:1061A0000002AB494979401882B20A21032004F069
:1061B000F9FF16E120780002C01D82B20A210320F7
:1061C00004F0F0FF0DE1A44840680003C00F002870
:1061D00003D16178207801F041FC207800029C49CD
:1061E0004979401882B20A21032004F0DBFFF8E06D
:1061F00020780002083082B20A21032004F0D2FF86
:10620000EFE0954840680003C00F002803D12078D4
:10621000611C01F05FFD207800028D49497940182A
:1062200082B20A21032004F0BDFFDAE020780002E8
:10623000093082B20A21032004F0B4FFD1E02178B2
:10624000844840300171617841716178207801F0B3
:106250006BFF002808D07E484079C21DF9320A2120
:10626000032004F09FFF08E079484079C21DFF3207
:10627000FA320A21032004F095FFB2E020780128C9
:1062800029D1207875490870601C04F055F9002860
:1062900017D0E01D05F090FB002808D06C4840792D
:1062A000C21DF9320A21032004F07CFF30E0684867
:1062B00040790321090242180A21032004F072FFE9
:1062C00026E063484079C21DFF32FA320A210320DA
:1062D00004F068FF1CE02078022819D120785F497B
:1062E0000870601C04F028F9002808D0584840794C
:1062F000C21DF9320A21032004F054FF08E054487B
:106300004079C21DFF32FA320A21032004F04AFF0D
:1063100067E0207801280FD151480078002806D185
:10632000FF220D320A21032004F03CFF04E00B227F
:106330004CA1002006F011FC53E02078012817D171
:10634000454840680003C00F002802D1607806F07D
:1063500067FC207800023E494979401882B20A2140
:10636000032004F01FFF06220A21032004F01AFF75
:1063700037E0207800020D3082B20A21032004F0B9
:1063800011FF2EE0207801280AD101F0DBFB324812
:1063900040680121C904884340182F4948600BE038
:1063A0002078022808D101F0F9FB2B484068012130
:1063B000C904884328494860207800022449497963
:1063C000401882B20A21032004F0ECFE09E0207894
:1063D00000020E3082B20A21032004F0E3FE00BF67
:1063E00000BF00BFFCE01A484079030006F0C1FC82
:1063F0000504566F9EC2E2002078012815D1154889
:106400002030807D002809D16078002806D060788F
:1064100010492031C875032088753EE0FF22120222
:106420000B21032004F0BEFE37E02078022826D19D
:1064300008482030807D00281AD16078002817D0C5
:10644000607804492031C8750420887525E0000073
:1064500082F7FF1F7406002010F1FF1F8DF0FF1F51
:10646000A4F0FF1F41542B4220474C42440D000032
:10647000FF2212020B21032004F094FE0DE020788D
:1064800081280AD100205749C8756039C867603132
:10649000087648768876203108608CE05148807D07
:1064A000032813D120784F49C97D88420ED14E4828
:1064B0004C496039C8674B48C07D00024B49497957
:1064C000401882B20B21032004F06CFE73E04548B3
:1064D000807D032826D120784249C97D884221D178
:1064E0006078404908760846007E401C6039C96FD4
:1064F0003F318909884207D33A486038C06F810626
:10650000890E3848417602E04021364841763548C8
:10651000C07D000235494979401882B20B21032021
:1065200004F040FE47E04EE059E046E02D48807D13
:1065300004281ED120782B49C97D884219D1607862
:106540000006A17809044018E17809024018217971
:10655000411824486038C16760790006A1790904B0
:106560004018E17909024018217A40181D4920316C
:10657000086020E01B48807D04281AD12078194942
:10658000C97D884215D160781649097E884210D1AC
:10659000174D1448007E80012D1814488078093862
:1065A00082B2A11C284607F03FFF01210D488176E9
:1065B00000BF00E000BF00BF12E00A220DA10020D2
:1065C00006F0CBFA0CE009484079012806D10C48C6
:1065D000406802218843801C0949486000E000BFF0
:1065E00000BFFEBD94060020AC0D000082F7FF1F27
:1065F000B4F8FF1F41542B4F54413D310D000000B2
:1066000010F1FF1F10B586B00446412168460171A4
:10661000542141713E2181710121C1711C480078D2
:10662000002803D00120694608720AE01948007862
:10663000002803D002206946087202E00020694663
:106640000872002168464172092181728021C1725D
:10665000002101730D21417355218173AA21C1735A
:10666000062101740C48C178684641748474052180
:106670000E3003F045FD01466846C1740D210175D9
:10668000112201A90548007806F067FA06B010BD8E
:10669000A1F0FF1FA0F0FF1F82F7FF1FA4F0FF1F54
:1066A00010B504461448807D002824D11348007892
:1066B000844204D11149124802F069F807E01148F8
:1066C0000078844203D10F490D4802F060F80C486D
:1066D0000078012803D10C4805F076F90BE0084852
:1066E0000078022803D1094805F06EF903E0002084
:1066F000C04305F069F910BD94060020A5F0FF1F06
:10670000A4F0FF1FA6F0FF1F5555AAAA55AA55AA27
:1067100010B5002411E00B48408861000A4A515A24
:10672000884208DA09480470FF220E320A21032049
:1067300004F038FD10BD601CC4B2282CEBDD00BF96
:10674000F8E700003406002080BF0100CBF0FF1FF7
:1067500010B50F4803F0FDFC002809D001200D49B9
:10676000087000200C49087002200C4908700DE0E8
:106770000B4803F0EEFC002808D002200549087001
:1067800000200549087001200449087010BD000070
:106790005555AAAAA4F0FF1FA5F0FF1FA6F0FF1FE2
:1067A00055AA55AA10B5002400BF04E0204600F009
:1067B00005F8601CC4B2042CF8DB10BD10B504460B
:1067C0002101024A881804F097FD10BDD0F0FF1F88
:1067D00010B50021292003F0B9FA0021122003F09E
:1067E000B5FA0021372003F0B1FA372003F04AFC54
:1067F00010BD000010B50221452003F0A7FA0222C7
:106800000021024807F01EFE10BD000080F0FF1FAF
:1068100010B521480078062800D010BD452003F0AF
:1068200051FC002801D1012000E000201B49087024
:10683000084600781A490978884228D017484078D5
:10684000401CC0B215494870192823DB002048704D
:106850000846007800280DD0124840680121C9047C
:10686000884340180F49486001200D49087001F025
:1068700069F90FE00B4840680121C90488430949C0
:10688000486000200649087001F088F902E0002005
:106890000249487000BFC0E76CF0FF1F80F0FF1F87
:1068A00082F0FF1F10F1FF1F70B50546042D2AD09E
:1068B00008DC002D0DD0012D0CD0022D0DD0032DA4
:1068C00047D115E0052D29D0062D32D0102D40D10D
:1068D00030E03FE006F002FE3CE0292003F016FA2B
:1068E000FF20F53005F078FB292003F0CBFB31E0E9
:1068F000062003F00BFAFF20F53005F06DFB0620B3
:1069000003F0C0FB26E0282003F000FAFF20F5305A
:1069100005F062FB282003F0B5FB1BE0072003F025
:10692000F5F9FF20F53005F057FB072003F0AAFB2F
:1069300010E00FE0002409E0204602F007FF02F01B
:1069400027F9082005F048FB601CC4B2082CF3DDD1
:1069500000E000BF00BF70BD70B504460D4601F0F9
:10696000CBF9002C01D000F0C5FF00F09BFB00F03C
:10697000D1F800F075F8002C01D001F067FA01F0B1
:10698000D5F801F04BF970BD10B5002007494874E7
:1069900020394886888620310874887500F008F808
:1069A00001210846FFF7D8FF10BD00009406002023
:1069B00010B5002408E0E2000549501808220549F6
:1069C00007F032FD601CC4B2082CF4DB10BD0000DF
:1069D00064060020FEBC010010B500200B4948747D
:1069E00003F0A6F801210846FFF7B6FF012108468B
:1069F00001F0F8FB00220A21032004F0D3FB7F22E0
:106A000052020A21032004F0CDFB10BD94060020A1
:106A100038B505460C4600200090082D01DC002DFD
:106A200000D138BD210E684601702002010E684673
:106A300041702004010E68468170C4706800064AE7
:106A4000115A6B460422002004F0A4FD6900034A99
:106A5000545200BFE5E70000D0BC0100240600202E
:106A600010B5002005E000214200034B9952411C63
:106A700088B20928F7DB10BD2406002070B5044653
:106A80000E46082C01DC002C01D1002070BD601ED8
:106A9000C4B2002537E0012E14D1642005F0A8FA15
:106AA000FF20813060431A4941180C206843085C7C
:106AB000B043FF2181316143154A8A180C21694393
:106AC000505412E0FF2081306043114941180C20DE
:106AD0006843085C40084000401CFF21813161434D
:106AE0000B4A8A180C2169435054FF2081306043BF
:106AF000074941180C2068430A182946204600F02F
:106B00003DF9681CC5B2202DC5DB0120BEE70000A1
:106B100024FAFF1F10B5002159E0002053E00024A3
:106B2000FF2281324A432B4BD3180C2242439C5400
:106B3000FF2281324A43274BD3180C2242439A5CEE
:106B400052085200521CFF2381334B43214C1C1925
:106B50000C234343E2540024FF2281324A431D4B5D
:106B6000D3180C2242439A1854704B246401FF221C
:106B700081324A43174BD3180C2242439A1854804F
:106B80008200154B9C58FF2281324A43114BD31887
:106B90000C2242439A185460104CFF2281320B465B
:106BA00053430C4A9B180C2242439A1814818D249B
:106BB000FF2281324A43074BD3180C2242439A18D2
:106BC0005481421C90B22028A9DB4A1C91B20829AA
:106BD000A3DB10BD24FAFF1F28BE0100DC05000066
:106BE00010B52348408E0121C9030840002800D178
:106BF00010BD20480078401C1E49087008460078E7
:106C0000042803DB1C48007801280FD019480078BD
:106C1000042803DB18480078022807D015480078BC
:106C2000082822DB1448007800281ED100201149D2
:106C300008700F48408E0002001D82B20A21032016
:106C400004F0B0FA002810D00948408E401C81B2F0
:106C5000074841860146488EC117C90E09184911D7
:106C60004901411A01D10248418600BFC0E7000036
:106C700074060020C9F0FF1FA4F0FF1F3EB50546B3
:106C8000082D01DC002D01D100203EBD681EC5B2DB
:106C9000002168460170007841084900491C684697
:106CA0000170002141704B21490141800A49018155
:106CB0008D21418100240AE0A00008490858019074
:106CC0006A462146284600F059F8601CC4B2202CC0
:106CD000F2DB0120D9E70000DC05000028BE01003E
:106CE00010B52348808E0121C9030840002800D137
:106CF00010BD20480078401C1E49087008460078E6
:106D0000042803DB1C48007801280FD019480078BC
:106D1000042803DB18480078022807D015480078BB
:106D2000082822DB1448007800281ED100201149D1
:106D300008700F48808E0002001D82B20A210320D5
:106D400004F030FA002810D00948808E401C81B22F
:106D5000074881860146888EC117C90E0918491156
:106D60004901411A01D10248818600BFC0E70000F5
:106D700074060020CAF0FF1FA4F0FF1FF0B593B007
:106D800006460D461446082E01DA1F2D02DB0020B0
:106D900013B0F0BD61884B229201002003F020FD6A
:106DA00060804D4A0020616803F01AFD606021890F
:106DB0004A4A002003F014FD2081618919229201C2
:106DC000002003F00DFD6081EA17120F5219121115
:106DD0007300D2185200424B9A5A2846EB171B0FE9
:106DE0001B181B111B01EB1A9F00DB19D21892B262
:106DF00012922078C007C00F00280DD060780028BC
:106E000008D1608900902389618808A8626801F030
:106E1000BBFA12E00020BBE7FF202D3005F0E8F8B8
:106E20000021089109910A910B912E480C910D9027
:106E300000200E900F90109011902078C006C00F87
:106E4000002810D00122D2070999514008980991D1
:106E500008900B9951400A980B910A900D99514056
:106E60000C980D910C900999089803AA0191009033
:106E700004F0D4FA0B990A9804AA0191009004F046
:106E8000CDFA0D990C9805AA0191009004F0C6FA6C
:106E90000F990E9806AA0191009004F0BFFA11997B
:106EA000109807AA0191009004F0B8FA03AB0522EC
:106EB0000020129904F0F8FAFF20813070430A494B
:106EC00041180C2068430818A36822686168836031
:106ED0000260416001205BE700770100B80B000011
:106EE000A8BE01000000F03F24FAFF1F70B5044661
:106EF00068480078401C67490870674800780300BC
:106F000005F037FF050414376F94C3006348C07D54
:106F10000002C01C82B20B21032004F043F90020C0
:106F20005C49087001205C490870AFE05B4860383C
:106F3000C06F00280CD05948C07D0002001D82B2ED
:106F40000B21032004F02EF90220534908700FE0B2
:106F5000504800780A280BDB00204E4908704F4843
:106F6000C07D0002C01C82B20B21032004F01AF97C
:106F70008CE04A48807E002822D04848007E401C91
:106F800046496039C96F3F318909884203D30320DC
:106F90004149087010E000203E4908703F48007EDB
:106FA000401C3E4908760846C07D0002001D82B2A2
:106FB0000B21032004F0F6F80020384988760FE012
:106FC0003448007832280BDB0020324908703348FF
:106FD000C07D0002001D82B20B21032004F0E2F804
:106FE00054E000212E4A002003E013785918521C67
:106FF000401C2A4B603BDB6F8342F6D8274B203383
:107000001B688B4203D10423234D2B700DE000231A
:10701000214D2B701F4D2B70204D603DEB6760356F
:107020002B766B76AB7620352B602FE01B49C87D25
:1070300000F024FF002827D0002017490870012104
:10704000084601F0CFF81548C07D1449487402F095
:107050006FFD00201149C875002110486038C167D4
:107060006030017600200D49487600210B4881767A
:1070700000200A4920310860412252020B210320DE
:1070800004F090F8012070BD00E000BF00BF0020B8
:10709000F9E70000ACF0FF1FABF0FF1F94060020E3
:1070A000B4F8FF1F00204BE0002318214143264A7B
:1070B00053541821414389180B7318214143515CE3
:1070C00049084900491C182242431F4B9954182172
:1070D00041431A468918097B49084900491C18226E
:1070E0004243D2181173032318214143164A8918C9
:1070F0004B70182102464A43134951184B7318210B
:107100004143114A89188B70182102464A430E499F
:1071100051188B731423182141430B4A89184B6073
:107120000A4B1821414389180B6100231821414360
:1071300089180B811821414389188B82411C88B220
:107140000828B1DB7047000064F9FF1F204E0000E3
:107150003EB50446082C01DC002C01D100203EBDC8
:10716000601EC4B2002168460170007841084900E1
:10717000491C684601700321417081701420019000
:107180000021684601816A46204600F03FF8044825
:1071900001906A460121204600F038F80120DEE720
:1071A000204E000070B504460D46012D02D100208E
:1071B0001449087013480078002802D001281CD117
:1071C00012E0204600F066FB00280CD00E48447404
:1071D00002F0AEFCFF2201320B21032003F0E2FF9C
:1071E00001200849087009E00748C07D002803D144
:1071F00004490870012070BD00E000BF00BF0020FE
:10720000F9E70000AAF0FF1F94060020F0B5B1B026
:1072100005460F461446142103A8FCF7FDFF082D70
:1072200001DA022F02DB002031B0F0BD18206843E4
:10723000ED4941180C207843085CC006C00F217846
:10724000C906C90F48400290E84A0020616803F06F
:10725000C7FA60602078C007C00F00287ED0607831
:10726000012815D1A078012812D12389394608A810
:10727000626801F091FC2389394612A8626801F026
:107280008BFC1CA802F010F826A802F00DF81EE1F5
:107290006078012815D1A078032812D123893946B6
:1072A00008A8626801F0B0FE2389394612A8626816
:1072B00001F0AAFE1CA801F0F7FF26A801F0F4FFD8
:1072C00005E16078012823D1A078052820D100208D
:1072D0000321009101902389394608A8626801F0D2
:1072E000F9FF2389394612A8626801F055FC002095
:1072F000032100910190238939461CA8626801F09E
:10730000E9FF2389394626A8626801F045FCDEE0E2
:10731000607801282DD1A07807282AD100200421E7
:10732000009101902389394608A8626801F0D2FFD4
:1073300001200421009101902389394612A8626836
:1073400001F0C8FF002004210091019023893946F3
:107350001CA8626801F0BEFF012000E0A7E0042144
:10736000009101902389394626A8626801F0B2FF96
:10737000ADE06078022812D1A07801280FD12389CE
:10738000394608A8626801F0EDFC12A801F08CFFF4
:107390001CA801F089FF26A801F086FF97E060781D
:1073A000022815D1A078022812D12389394608A8CD
:1073B000626801F0D7FC2389394612A8626801F09F
:1073C000EBFB1CA801F070FF26A801F06DFF7EE02A
:1073D0006078022815D1A078032812D12389394674
:1073E00008A8626801F0BEFC2389394612A86268C9
:1073F00001F0B8FC1CA801F057FF26A801F054FFCB
:1074000065E06078032812D1A07801280FD1238984
:10741000394608A8626801F0F7FD12A801F044FFA0
:107420001CA801F041FF26A801F03EFF4FE0607864
:10743000032819D1A078022816D100200321009139
:1074400001902389394608A8626801F043FF238927
:10745000394612A8626801F09FFB1CA801F024FFC6
:1074600026A801F021FF32E0607803281DD1A07822
:1074700003281AD100200421009101902389394664
:1074800008A8626801F026FF012004210091019004
:107490002389394612A8626801F01CFF1CA801F07C
:1074A00003FF26A801F000FF11E00020BCE6FF204A
:1074B0002D3004F09DFD08A801F0F6FE12A801F0A1
:1074C000F3FE1CA801F0F0FE26A801F0EDFE2078E6
:1074D000C006C00F002810D00122D20709995140E0
:1074E0000898099108900B9951400A980B910A90BD
:1074F0000D9951400C980D910C90029800280DD0D8
:107500003B49681C085C012808D1691CC8B20022EC
:10751000114600F0B7FA0A2004F05EFD002643E0B1
:107520002820704308A9081803C803AA01910090F5
:1075300003F074FF2820704308A941188868C968BF
:1075400004AA0191009003F069FF2820704308A964
:1075500040184169006905AA0191009003F05EFF9F
:107560002820704308A941188869C96906AA0191B1
:10757000009003F053FF2820704308A94018416A87
:10758000006A07AA0191009003F048FF2801194AF8
:107590008018FA0080187200815A03AB052200207F
:1075A00003F082FF701CC6B2042EB9DB02980028DB
:1075B0000DD00F49681C085C012808D11E2004F07A
:1075C0000BFD691CC8B20022012100F05BFA1820F3
:1075D0006843054941180C207843081821460EC914
:1075E0000EC0012020E6000064F9FF1F00770100B3
:1075F0004C060020C8BE0100F0B585B004460F4619
:10760000601E4000614A115A03AA012003F028FFBE
:107610006846007B01066846407B000409186846FE
:10762000807B000209186846C07B08180290029807
:10763000FDF7DFFA05460022554BFDF795F84900A6
:107640004908621ED200534B9A1803C2601EC00044
:10765000194609180D68496800221346284606F0A5
:10766000E7FF04D10021601E4B4A11548BE0601EDD
:107670001821484349490918601EC0000D684B682D
:107680004449081803C82A460191009007F002F8FF
:1076900024D23878322803DB0021601E3E4A115480
:1076A0003878401CC0B2387064280FDB0020387076
:1076B000601E3B49085C002808D10121601E384A41
:1076C000115401220021204600F0DCF9601E3449EB
:1076D000085C012857D10020387054E0601E182142
:1076E00048432E4941188868C96801910090601E7E
:1076F000C00028490818056841682846019B009A7F
:1077000006F0FAFF3DD2601E182148432349411874
:107710000869496901910090601EC0001D49081860
:10772000056841682846019B009A06F0E5FF13D2E0
:107730001C480078062811D13878401CC0B2387037
:107740000A280BDB002038700121601E124A1154F8
:10775000122002F097FC01E000203870601E1049F2
:10776000085C01280FD10021601E0D4A11540E48FB
:10777000005D012807D101221146204600F082F960
:1077800001E00020387005B0F0BD000058BD0100D8
:1077900000007041E8060020B8F0FF1F68BD01003E
:1077A000B0F0FF1F6CF0FF1F4C06002010B53448EE
:1077B000007C032800D010BD32480078062800D095
:1077C000F9E72F48807D002800D0F4E72E480078A4
:1077D000030005F0CEFA08050A10161C22282E34E4
:1077E0002A490120FFF708FF2AE02849491C022006
:1077F000FFF702FF24E02549891C0320FFF7FCFE68
:107800001EE02249C91C0420FFF7F6FE18E01F49BC
:10781000091D0520FFF7F0FE12E01C49491D062056
:10782000FFF7EAFE0CE01949891D0720FFF7E4FE87
:1078300006E01649C91D0820FFF7DEFE00E000BF84
:1078400000BF114801780078401C0F4A10700C29C5
:1078500002DB002011460870002406E00C48005DA1
:10786000012800D103E0601CC4B2082CF6DB00BF85
:10787000082C02D1122002F049FA00BF9BE7000059
:10788000940600206CF0FF1FC0F0FF1FC1F0FF1F27
:10789000B8F0FF1F10B50446002C00D110BD0B4AF4
:1078A0000B49204601F08CFE002800D1F6E70121AB
:1078B000084600F097FC611ECA00064950180822CD
:1078C0000349091D06F0B0FD0120E7E7AC0D0000FB
:1078D000B4F8FF1F6406002010B5442204490020BC
:1078E00001F06EFE002800D110BD0120FCE7000071
:1078F0006006002010B500211AE0002014E00029E5
:1079000003D0002801D0814206D190240B224A43A3
:10791000094BD218145405E000240B224A43064BAD
:10792000D2181454421C90B20B28E8DB4A1C91B2C6
:107930000929E2DB10BD000000F9FF1FF0B585B09A
:10794000074600200490002427E03846FDF759F947
:107950000022144B03910290FCF7E3FE05460E460D
:107960000022114B28463146FCF7FEFE02460B462C
:107970000191009000200D4906F044F804AA0391FB
:10798000029003F04BFD6000094A115A04AB01223A
:10799000002003F089FD601CC4B20A2CD5DB012055
:1079A00005B0F0BD000062400000344000002440FB
:1079B0005ABF010070B588B005460C4600200590FE
:1079C000082D01DC002D02D1002008B070BD00267A
:1079D00036E02178BA22002002F002FF20702078E1
:1079E000FDF70FF90022184B03910290FCF799FE66
:1079F000079106900022154B07990698FCF7B4FEF4
:107A000002460B46019100900020114905F0FAFF53
:107A100005AA0391029003F001FD68000D4A105A77
:107A2000801981B205AB0122002003F03DFD2278D0
:107A30000B20684308494118701C0A54641CC6B2E4
:107A40000A2EC6DB0120C0E700006240000034407F
:107A50000000244048BF010000F9FF1F70B5044634
:107A60000D46002D01D0012000E000200646002236
:107A70003146204600F006F80148065570BD00006A
:107A80004C060020F8B504460D461646002000902E
:107A90006846C570082C00DDF8BD002D08D1002E09
:107AA00006D10021204600F037FC0A2004F094FAA9
:107AB0006000124A115A6B460422002003F06AFD4E
:107AC000012D18D1002C0DD00D48007E002809D1C1
:107AD0000A4801886B460422002003F05BFD012068
:107AE00007490876002E06D10A2004F075FA012114
:107AF000204600F011FC00BFCEE70000D2BF01001D
:107B00003406002070B504460D46002D01D001203A
:107B100000E000200646012231462046FFF7B2FF72
:107B20000148065570BD00004C060020002004E00E
:107B30000121034A1154411C88B20928F8DB70471F
:107B40004C06002010B500210846FEF705FF002472
:107B50000AE00022182060430F490A5418206043AD
:107B600040180273601C84B2082CF2DB0021084626
:107B700000F038FB002408E001F00AF8611CC8B2EC
:107B80000121FEF77BFF601C84B2082CF4DB9220FD
:107B9000FFF7D4FE10BD000064F9FF1F10B50220EE
:107BA000054988750846407CC875012252020A21A1
:107BB000032003F0F7FA10BD9406002038B5044600
:107BC0000D4600200090082C01DC002C00D138BDAF
:107BD00008222946002002F003FE6946C8700B48BF
:107BE0004078012805D16846C0780949095C684693
:107BF000C1706000074A115A6B460422002003F04E
:107C0000C9FC0548055500BFE1E7000010F1FF1F62
:107C1000E2BC0100ECBC010055060020012003E09D
:107C2000034A1054411C88B20928F9DB7047000050
:107C30005506002010B52648007C030005F099F891
:107C4000060405213B3C40443FE005F047FC01F0C1
:107C5000ABFE1F48407C002806D002201C498875D6
:107C60000846407CC87508E00121084600F0BAFAD1
:107C700000220A21032003F095FA0221144801741E
:107C800023E01348807D002814D105211048817518
:107C900003220121104603F085FA0D48407C00289C
:107CA00005D17F2252020A21032003F07BFA032030
:107CB0000749087409E008E005200549087404E054
:107CC00000200349087400E000BF00BF10BD0000A1
:107CD0009406002070B504460D46082C00DD70BDEA
:107CE000E200044950180822294606F09DFB00BF17
:107CF000F5E70000B8F8FF1F10B500240AE0E20025
:107D0000064BD118E300064A9818082206F08CFBAF
:107D1000601C84B2092CF2DB10BD0000FEBC010027
:107D2000B8F8FF1FF8B505460F46082D00DDF8BD71
:107D3000002D06D11948C28A3946002002F050FDB4
:107D400087B26900154A921C505A6421FCF770FAF8
:107D500084B264213846FCF76BFA86B215E0B4426F
:107D600002DD601E84B203E0B44201DA601C84B21A
:107D70006420604381B2284600F012F8B44204D176
:107D80003946284600F00CF800E0E8E700BF68003C
:107D90000249891C0F5200BFC9E7000034060020C9
:107DA000F0B589B004460F4622A0006803907D22FA
:107DB00092013946002002F013FD87B23846FCF7E5
:107DC00020FF054600221C4BFCF7ABFC00221B4B9E
:107DD00001910090FCF7C8FC079106900022184B17
:107DE00007990698FCF7C0FC05462A460B4600207A
:107DF000144905F007FE059104906000124A105ADC
:107E0000401C81B203AB0422002003F0C3FB03AA91
:107E10000599049803F002FB60000B4A115A03AB6A
:107E20000122002003F040FB012004F0D5F809B046
:107E3000F0BD00000000208A0040BF400000594013
:107E400000003440000024406EBF010010B57D21C9
:107E50008901094A5180012007E07D218901420002
:107E6000054B9B1C9952411C88B20928F5DB7D21EA
:107E70008901014AD18210BD3406002010B50446A4
:107E8000002C00D110BD094A0949204601F088FCA8
:107E9000002800D1F6E7611ECA00064950180822E2
:107EA0000349091D06F0C0FA0120EBE7AC0D000004
:107EB000B4F8FF1F6406002010B572480088401C0B
:107EC000704908807048807D030004F052FF070568
:107ED000092C5B87ABC0D80000206A490880CFE03E
:107EE00068480088FF21783188420ADD01F02AFEC7
:107EF000002065498875FF2212020A21032003F041
:107F000051F96149C87DFFF7B9FF00280AD0002068
:107F10005C49088006205C4988750846C07D487425
:107F200001F006FEACE057480088FF217831884216
:107F30000CDD01F0EBFD002153488175FF22120298
:107F40000A21032003F02EF9FEF746FD4E49C87DB5
:107F5000FFF7A0FC002814D000214B488175C07D9C
:107F60004949487401F0E4FDFEF7D2FB00220A21E2
:107F7000032003F017F97F2252020A21032003F0A5
:107F800011F97DE03F4800887D21C90088420FDD5E
:107F900001F0BCFD00203C498875FF2212020B2134
:107FA000032003F0FFF83849C87D0121FFF7FAF8F4
:107FB0003549C87D0021FFF7F5F800280DD00020D5
:107FC0003149887500220A21032003F0EBF87F2253
:107FD00052020A21032003F0E5F851E02948008805
:107FE0007D21C90088420ADD01F0ACFD0020264950
:107FF0008875FF2212020B21032003F0D3F82249D7
:10800000C87DFEF773FF00280BD000201D490880B3
:1080100006201D4988757F2252020A21032003F0A1
:10802000C1F82DE017480088FF217831884206DD2D
:1080300001F06CFDFEF7BCFC002013498875FFF7CA
:108040004BFC002802D000200F49887518E00D482D
:108050000088FF217831884204DD01F073FD0021A2
:108060000948817500F012F8002807D00021064861
:10807000817500220A21032003F094F800E000BF7C
:1080800000BF10BDAEF0FF1F9406002010B54422C3
:108090000449002001F084FB002800D110BD01201C
:1080A000FCE700006006002010B500201C49487461
:1080B00001F03EFD01210846FEF74EFC7D208001C7
:1080C000174960394880C88200240AE0002218203D
:1080D000604314490A541820604340180273601C1E
:1080E00084B2082CF2DB0121084600F07BF8002462
:1080F00008E000F04DFD611CC8B20121FEF7BEFC96
:10810000601C84B2082CF4DB00220A21032003F057
:1081100049F87F2252020A21032003F043F810BDE0
:108120009406002064F9FF1FFEB505460C46A542E3
:1081300007D0082D05DC082C03DC002D01D0002C15
:1081400001D10020FEBD681E182148432349421872
:1081500007CA6B4607C36946087810218843611E29
:10816000182251431D4A515CC906C90F090110224A
:108170001140084369460870611EC8B26A46002172
:10818000FFF744F8691E18235943144BC9180A46CF
:108190000C32611EC8B20121FFF738F8002612E048
:1081A00000F0F6FC6B1EFF2781377B430B4FC03777
:1081B000DB190C277743DA19F1B2631ED8B2FEF748
:1081C000DDFD701C86B2202EEADB6800044A115ADD
:1081D0002046FFF7A7FD0120B4E7000064F9FF1F68
:1081E00036060020F8B506460F460220FDF78CFA49
:1081F000122001F08BFD002E0DD0012409E00B228E
:108200006243414BD218511CE0B2FFF7D3FB601C14
:1082100084B2092CF3DB9620FFF790FB002417E0D3
:1082200000F0B6FC18216143374B6433CA18E0B242
:108230000021FEF7EBFF18216143334B6433C9186B
:108240000A460C32E0B20121FEF7E0FF601C84B266
:10825000082CE5DB012408E060002C4A115AE0B24A
:108260000090FEF7D5FB601C84B2092CF4DB002FD4
:108270000DD0002409E06100244A1232515AE0B2C4
:108280000091FFF74FFD601C84B2092CF3DB002442
:1082900007E01E4A2832115DE0B2FFF733FC601C94
:1082A00084B2092CF5DB002407E0184A3132115D55
:1082B000E0B2FFF783FC601C84B2092CF5DB0024DC
:1082C00016E0002510E000F063FCFF2081306043E1
:1082D0000F4BC0180C236B43C218E9B2E0B20090F8
:1082E000FEF74CFD681C85B2202DECDB601C84B2CF
:1082F000082CE6DBFEF70CFA06480078062802D1C7
:108300000320FDF701FAF8BD00F9FF1F2406002045
:1083100024FAFF1F6CF0FF1FF8B506460F46002F2A
:1083200008D17100174A505A6421FBF781FF84B2CB
:10833000002509E0012F07D100247100114A505A8D
:108340006421FBF775FF85B219E0AC4202DD601EC7
:1083500084B203E0AC4201DA601C84B26420604362
:1083600081B23046FFF71CFDAC4208D1012F05D188
:108370007000044A115A3046FFF712FD00E0E4E7AE
:1083800000BFF8BD36060020FFB597B004460F4683
:108390001A98FCF736FC0022814B03910290FCF7FF
:1083A000C0F900227F4B05910490FCF7DDF915918F
:1083B00014902098FCF725FC00227A4B059104903C
:1083C000FCF7D2F9139112903846FCF71AFC002200
:1083D000754B03910290FCF7A4F90022714B0591B3
:1083E0000490FCF7C1F9119110901998FCF709FC61
:1083F0000F910E9000226D4B11991098FCF7B4F973
:1084000002460B46059104900020694905F0FAFAEE
:108410000D910C9067480CC8002001218907FCF7DA
:10842000F3FB039102900F9B0E9AFCF7EDFB059175
:10843000049061480CC80498FCF796F90B910A90D7
:10844000002001218907139B129AFCF7DDFB05919F
:1084500004900B990A9806F001F803910290059B8D
:10846000049AFCF781F9099108900022534B159961
:108470001498FCF779F902460B4605910490002008
:108480004B4905F0BFFA079106900D9B0C9A09998C
:108490000898FCF769F90022494B05910490FCF714
:1084A00033F905460E460D9B0C9A09990898FCF77E
:1084B000ABFB0022424B01910090FCF73DF9039188
:1084C0000290079B069AFCF79FFB2A4633460591CC
:1084D0000490FCF749F96160206008340B990A9810
:1084E00004F0B0FF002201239B0701910090FCF7EC
:1084F0008BFB0122D207514003910290079B069A01
:10850000FCF782FB2A46334605910490FCF72CF9D0
:108510006160206008340D9B0C9A09990898FCF75B
:1085200073FB0022264B01910090FCF7EDF80391BC
:108530000290079B069AFCF767FB2A463346059193
:108540000490FCF711F96160206008340D9B0C9ACF
:1085500009990898FCF708F90022194B0391029039
:10856000FCF7DFF82A46334605910490FCF7FCF847
:108570006160206008340B990A9804F063FF0022C0
:1085800001239B0703910290FCF73EFB2A463346EA
:1085900005910490FCF7E8F8616020601BB0F0BD25
:1085A000007097400000594000C0A24000004440C5
:1085B00000002440C8BC0100C0BC010000003440E1
:1085C0000000F03F10B50120FEF7F8F80322022169
:1085D000002002F0E7FD10BD10B50220FDF794F871
:1085E000042011490870002003F0CAF90020FCF7AC
:1085F000EDFD292001F08AFB072001F087FB062012
:1086000001F084FB282001F081FB0848406801212B
:108610000904884305494860084640680003C00FC4
:108620000349087010BD00001CF7FF1F10F1FF1F69
:1086300082F0FF1F10B50021232001F087FB2320CB
:1086400001F020FD10BDF8B506460C4615461F4644
:10865000232001F05BFB3146002003F02BF92002C0
:10866000010E002003F026F92004010E002003F083
:1086700021F9E1B2002003F01DF905E0FF210020FF
:1086800003F018F928706D1C3846791E8FB2002847
:10869000F4D1232001F0F6FCF8BDF8B505460C46F0
:1086A00016461F46232001F031FB2946002003F027
:1086B00001F92002010E002003F0FCF82004010E55
:1086C000002003F0F7F8E1B2002003F0F3F803E034
:1086D0003146002003F0EEF83846791E8FB20028AC
:1086E000F6D1232001F0CEFCF8BD70B505460C464E
:1086F000232001F00BFB2946002003F0DBF82002C9
:10870000010E002003F0D6F82004010E002003F033
:10871000D1F8E1B2002003F0CDF8232001F0B2FC43
:1087200070BDF8B506460C4615461F46232001F0DD
:10873000EDFA3146002003F0BDF82002010E0020C2
:1087400003F0B8F82004010E002003F0B3F8E1B202
:10875000002003F0AFF804E029786D1C002003F03E
:10876000A9F83846791E8FB20028F5D1232001F0F0
:1087700089FCF8BD10B50446232001F0C7FA214654
:10878000002003F097F8232001F07CFC10BD027854
:108790000B785A4002700A7803785A400A700278BF
:1087A0000B785A400270704700B5034618460830EF
:1087B00002F094FC586801F04DFE1748007804213F
:1087C00088431549087008460078C02188438030E6
:1087D0001149087008464078102188430E494870B6
:1087E00000BF0D4800790C21084080080228F8D10C
:1087F00000BF09480079102108400028F9D1064837
:108800004078E02188430449487008460079802177
:1088100008430149087100BD0040064000B5034609
:108820001846083002F05AFC586801F013FE104850
:108830000078042188430E49087000BF0C48007975
:10884000102108400028F9D100BF094800794021D3
:1088500008400028F9D006484078E02188430449C0
:10886000487008460079802108430149087100BD1D
:108870000040064000B503461846083002F02EFCC2
:10888000586801F0E7FD10480078042188430E493C
:10889000087000BF0C480079102108400028F9D169
:1088A00000BF09480079402108400028F9D0064857
:1088B0004078E021884304494870084600798021C7
:1088C00008430149087100BD0040064010B5034649
:1088D00000249807800F002802D01E4C204610BDAF
:1088E00030201D494871002048700A204872180243
:1088F000000E0872012048700B721804000E4872B6
:10890000012000F073F81448407920210840002825
:1089100002D01048C01D04430F4840791021084080
:10892000002802D00B480F3004430B484079C007A1
:10893000C00F002802D00748103004430648407991
:1089400002210840002802D002481130044320468A
:10895000C5E70000013000000000024070B5064687
:1089600000241F493046FBF759FC401EC5B21D4884
:10897000407980210840002803D11B480443204649
:1089800070BD1848C0784021084000281AD1154809
:10899000C0788021084000280AD01248C07880069C
:1089A000800EA906890E884202D00F48001D04439C
:1089B0000C48C07880098001A906890E084309493E
:1089C000C8700AE00748C0788006800EA906890EA4
:1089D000884202D00448001D04432046D0E700002E
:1089E00040420F0000000240143000000949C968ED
:1089F000012212041143074AD1608021064A5171B5
:108A0000002806D000BF044949798022114000297E
:108A1000F9D07047003000F00000024030B5034646
:108A20000C4600259807800F002802D0244D2846C8
:108A300030BD30202349487100204870062048721C
:108A40001802000E0872012048700B721804000E04
:108A50004872022048702004000E48720C720320F5
:108A60004870200E48722002000E08720120FFF7A5
:108A7000BDFF1448407920210840002802D010484A
:108A8000C01D05430F48407910210840002802D03E
:108A90000B480F3005430B484079C007C00F002832
:108AA00002D00748103005430648407902210840AB
:108AB000002802D00248113005432846B8E70000DC
:108AC000013000000000024070B503460C46154618
:108AD00000269807800F002802D02B4E304670BD2C
:108AE00030202A4948710020487006204872180238
:108AF000000E0872012048700B721804000E4872B4
:108B0000022048702004000E48720C720320487046
:108B1000200E48722002000E0872042048702804BB
:108B2000000E48720D7205204870280E4872280207
:108B3000000E08720120FFF759FF144840792021E8
:108B40000840002802D01048C01D06430F48407955
:108B500010210840002802D00B480F3006430B4874
:108B60004079C007C00F002802D0074810300643E4
:108B70000648407902210840002802D002481130FE
:108B800006433046ABE70000013000000000024021
:108B900010B504F06DF810BDFFB58FB004460F4658
:108BA0001198FCF72EF8039102906A480CC8002037
:108BB00001218907FCF728F801910090039B029A94
:108BC000FCF722F80591049063480CC80498FBF761
:108BD000CBFD0D910C900D990C9805F03FFC0B917D
:108BE0000A900D990C9804F02DFC09910890099BAE
:108BF000089A0B990A98FBF787FD0022574B0591BD
:108C00000490FBF781FD0791069014211298FBF761
:108C10000FFB0390FBF7EDFF02460B460591049016
:108C200000204F4904F0EEFE05460E46002F50D1BD
:108C3000002121606160083400204849099B089A9E
:108C4000FBF762FD039102900120C0077040009580
:108C500001900B462846029A0199FBF7D5FF059132
:108C60000490079B069AFBF77FFD61602060083443
:108C700000203A49099B089AFBF746FD2A463346ED
:108C800003910290FBF7C0FF05910490079B069AA1
:108C9000FBF76AFD6160206008340021216061609B
:108CA0000834099B089A0B990A98FBF73AFD0022B1
:108CB0002A4B03910290FBF734FD0122D207514069
:108CC00005910490079B069AFBF74EFD61602060BA
:108CD0003DE0012F3BD1002121606160083428462E
:108CE00031460B9B0A9AFBF78FFF05910490079B77
:108CF000069AFBF739FD616020600834284631464A
:108D00000B9B0A9AFBF780FF05910490079B069A3C
:108D1000FBF72AFD6160206008340021216061605A
:108D20000834099B089A0B990A98FBF7FAFC002271
:108D30000A4B03910290FBF7F4FCFA0751400591AE
:108D40000490079B069AFBF70FFD6160206013B04B
:108D5000F0BD0000C8BC0100C0BC01000000F03F35
:108D600000002440FFB591B004460F461398FBF76E
:108D700048FF039102909F480CC8002001218907F9
:108D8000FBF742FF01910090039B029AFBF73CFF27
:108D90000591049098480CC80498FBF7E5FC0B91EA
:108DA0000A900B990A9805F059FB099108900B99C4
:108DB0000A9804F047FB0791069000208F4905F0C0
:108DC0009BFB02460B460191009000208C49FBF76B
:108DD000CBFC002201239B0703910290FBF714FFB9
:108DE00002460B460591049009990898FBF7BCFCD4
:108DF0000D910C90002082490D9B0C9AFBF784FC8E
:108E000005460E4614211498FBF712FA0390FBF75F
:108E1000F0FE02460B46059104900020794904F0CB
:108E2000F1FD0F910E90002F74D100207449079B23
:108E3000069AFBF769FC2A46334601910090FBF73E
:108E400093FC039102900F9B0E9AFBF7DDFE00222C
:108E500001239B0705910490FBF786FC616020606D
:108E6000083400206649079B069AFBF74DFC012257
:108E7000D2074A40039202902A4633460399FBF7F1
:108E800073FC059104900F9B0E9AFBF7BDFE616089
:108E90002060083400205A49079B069AFBF734FCEF
:108EA0002A46334601910090FBF75EFC0391029045
:108EB0000F9B0E9AFBF7A8FE002201239B0705914A
:108EC0000490FBF751FC61602060083400204C499D
:108ED0000D9B0C9AFBF725FC0122D2074A40059214
:108EE00004902A4633460599FBF73EFC61602060FA
:108EF0000834002001218907079B069AFBF784FEAE
:108F00002A46334605910490FBF72EFC61602060F1
:108F10006DE0FFE7012F6AD100203949079B069ACF
:108F2000FBF7FFFB2A46334601910090FBF71CFC40
:108F3000039102900F9B0E9AFBF766FE0022BB077F
:108F400005910490FBF710FC61602060083400205C
:108F50002B49079B069AFBF7E4FB2A46334603910D
:108F60000290FBF701FC059104900F9B0E9AFBF712
:108F70004BFE61602060083400202149079B069A5F
:108F8000FBF7CFFB2A46334601910090FBF7ECFB41
:108F9000039102900F9B0E9AFBF736FE0022BB074F
:108FA00005910490FBF7E0FB61602060083400202D
:108FB00013490D9B0C9AFBF7B4FBFA074A40059244
:108FC00004902A4633460599FBF7CEFB616020608A
:108FD00008340020B907079B069AFBF715FE2A46BE
:108FE000334605910490FBF7BFFB6160206015B02C
:108FF000F0BD0000C8BC0100C0BC0100000008407A
:109000000000F03F00002440FFB593B004460F4637
:109010001598FBF7F6FD079106909F480CC80020B5
:1090200001218907FBF7F0FD03910290079B069A47
:10903000FBF7EAFD0591049098480CC80498FBF7EB
:1090400093FB0D910C900D990C9805F007FA0B917C
:109050000A900D990C9804F0F5F9099108900020F8
:109060000121890705F048FA02460B46019100905C
:1090700000208B49FBF778FB002201239B0703911B
:109080000290FBF7C1FD02460B46059104900B9937
:109090000A98FBF769FB0F910E90002080490F9B07
:1090A0000E9AFBF731FB05460E4614211698FBF786
:1090B000BFF80390FBF79DFD02460B460591049017
:1090C0000020784904F09EFC11911090002F74D17B
:1090D00000207349099B089AFBF716FB2A46334682
:1090E00001910090FBF740FB03910290119B109AB5
:1090F000FBF78AFD002201239B0705910490FBF7F3
:1091000033FB61602060083400206549099B089AA0
:10911000FBF7FAFA0122D2074A40039202902A464C
:1091200033460399FBF720FB05910490119B109A9D
:10913000FBF76AFD61602060083400205849099BF4
:10914000089AFBF7E1FA2A46334601910090FBF7B3
:109150000BFB03910290119B109AFBF755FD002227
:1091600001239B0705910490FBF7FEFA61602060E4
:10917000083400204A490F9B0E9AFBF7D2FA0122CD
:10918000D2074A40059204902A4633460599FBF7D8
:10919000EBFA616020600834002001218907099BF7
:1091A000089AFBF731FD2A46334605910490FBF7F8
:1091B000DBFA616020606DE0FFE7012F6AD10020DB
:1091C0003749099B089AFBF7ACFA2A4633460191C6
:1091D0000090FBF7C9FA03910290119B109AFBF7DC
:1091E00013FD0022BB0705910490FBF7BDFA6160F7
:1091F0002060083400202A49099B089AFBF791FA5D
:109200002A46334603910290FBF7AEFA059104908B
:10921000119B109AFBF7F8FC616020600834002075
:109220001F49099B089AFBF77CFA2A4633460191AD
:109230000090FBF799FA03910290119B109AFBF7AB
:10924000E3FC0022BB0705910490FBF78DFA6160F7
:1092500020600834002012490F9B0E9AFBF761FA38
:10926000FA074A40059204902A4633460599FBF7CF
:109270007BFA6160206008340020B907099B089AD6
:10928000FBF7C2FC2A46334605910490FBF76CFAC3
:109290006160206017B0F0BDC8BC0100C0BC010017
:1092A0000000F03F000024400022026042600830CD
:1092B00002604260083006490260416008300021C7
:1092C0000160416008300260426008307047000071
:1092D0000000F03FFFB595B004460F461798FBF726
:1092E00090FC05910490B1480CC800200121890729
:1092F000FBF78AFC03910290059B049AFBF784FC20
:1093000007910690AA480CC80698FBF72DFA0F9112
:109310000E900F990E9805F0A1F80D910C900F99F1
:109320000E9804F08FF80B910A901F98FBF769FCD8
:109330000022A04B03910290FBF7E6F907910690FB
:109340001E98FBF75EFC02460B460391029097497C
:1093500003C9FBF709FA05910490079B069AFBF7EE
:1093600053FC099108900999089805F077F80022B4
:1093700001239B0701910090FBF746FC02460B4638
:109380000391029000208C49FBF7EEF900220123A3
:109390009B0705910490FBF737FC02460B460791AB
:1093A00006900D990C98FBF7DFF9119110900020B1
:1093B0008149119B109AFBF7A7F905460E46142127
:1093C0001898FAF735FF0590FBF713FC02460B4699
:1093D000079106900020794904F014FB1391129034
:1093E000002F74D1002074490B9B0A9AFBF78CF96B
:1093F0002A46334603910290FBF7B6F90591049093
:10940000139B129AFBF700FC002201239B07079194
:109410000690FBF7A9F961602060083400206649D6
:109420000B9B0A9AFBF770F90122D2074A4005927A
:1094300004902A4633460599FBF796F90791069062
:10944000139B129AFBF7E0FB616020600834002058
:1094500059490B9B0A9AFBF757F92A463346039161
:109460000290FBF781F905910490139B129AFBF788
:10947000CBFB002201239B0707910690FBF774F9B1
:1094800061602060083400204B49119B109AFBF763
:1094900048F90122D2074A40079206902A463346ED
:1094A0000799FBF761F96160206008340020012111
:1094B00089070B9B0A9AFBF7A7FB2A4633460791BD
:1094C0000690FBF751F9616020606DE0FFE7012F26
:1094D0006AD1002038490B9B0A9AFBF722F92A46E9
:1094E000334603910290FBF73FF905910490139BDB
:1094F000129AFBF789FB0022BB0707910690FBF746
:1095000033F961602060083400202B490B9B0A9AD4
:10951000FBF707F92A46334605910490FBF724F937
:1095200007910690139B129AFBF76EFB6160206017
:109530000834002020490B9B0A9AFBF7F2F82A46D0
:10954000334603910290FBF70FF905910490139BAA
:10955000129AFBF759FB0022BB0707910690FBF715
:1095600003F961602060083400201349119B109AB0
:10957000FBF7D7F8FA074A40079206902A46334687
:109580000799FBF7F1F86160206008340020B90703
:109590000B9B0A9AFBF738FB2A4633460791069045
:1095A000FBF7E2F86160206019B0F0BDC8BC0100B3
:1095B000C0BC01000000E03F0000F03F000024407C
:1095C000F7B584B00E46144635465F494878C10F5A
:1095D000091849100A0204990903511802915A48BE
:1095E0004078FF2806D058494878C10F091849101B
:1095F00009024D19544A5278D30F01929A18521009
:10960000521CE11DF831CB171B0E5B181B129A423E
:1096100002DAFF22013206E02046C217120E1218AB
:1096200012121202821A92B203924748407810280E
:1096300031D00BDC030003F09CFB10263E273F28B3
:109640004029412A422B432C442D458319283ED0E2
:1096500008DC1138030003F08CFB08361F37203874
:10966000213922731D2834D006DC1A2818D01B2873
:109670002ED01C2864D114E01E2813D01F2829D016
:10968000FF285DD144E000BF00BF00BF00BF00BFA6
:1096900000BF00BF00BF00BF00BF00BF00BF00BFD2
:1096A00000BF00BF0620FFF765F827484078401C40
:1096B0002549487045E000BF00BF00BF00BF00BFA4
:1096C00000BF00BF00BF00BF00BF00BF00BF00BFA2
:1096D00000BF00BF2A460320039B0299FEF7B3FF99
:1096E000E01DF830184A5178CA0F52185210521C17
:1096F000C3171B0E1B181B129A4203D1FF201249DD
:10970000487004E010484078401C0F49487018E049
:10971000324600212D1D002704E0287841186D1CD9
:10972000781C87B2201FB842F7DC0020064B587027
:109730001068884202D1012007B0F0BD0020FBE78D
:1097400000BF00BF0020F7E78EF0FF1F70B5044692
:1097500026030620FFF70EF8082002F03DFC3146F4
:109760002020FEF7C2FFC82002F036FC002513E0DF
:109770000620FEF7FFFF082002F02EFCFF23013336
:10978000FF2231460220FEF788FF082002F024FC69
:10979000FF360136681CC5B2102DE9DB70BD000034
:1097A000F7B584B00E461446354677480078002851
:1097B00004D075480078401E7349087072480078DC
:1097C000002802D0002007B0F0BD70498878C10F92
:1097D0000918491000292CD06C498878C10F091844
:1097E0004910491E0A020499090351180191674959
:1097F0008878C10F09184910491E09024D19634A9A
:109800009778FB0FDA195310E11DF831CA17120EC1
:1098100052181212934202DAFF22013206E0204669
:10982000C217120E121812121202821A92B2039268
:1098300002E004980003019054488078112870D009
:109840000CDC030003F095FA1129434E664F675074
:10985000685169526A536B546C559B001A284DD05D
:1098600008DC1238030003F084FA08455D465E47C1
:109870005F48608A1F285BD008DC1B2856D01C2854
:109880003DD01D2853D01E2879D139E0202838D06A
:1098900021284ED0FF2872D16CE037460020386076
:1098A0002D1D029008E029783868401838606D1C3A
:1098B0000298401C80B20290201F02998842F2DC7C
:1098C0000620FEF757FF01203049887058E020201D
:1098D0000199FEF70AFF19202B49087002202B4935
:1098E00088704DE000BF00BF00BF00BF00BF00BFD9
:1098F00000BF00BF00BF00BF00BF00BF00BF00BF70
:1099000000BF0620FEF736FF20488078401C1F4924
:10991000887035E000BF00BF00BF00BF00BF00BFC0
:1099200000BF00BF00BF00BF00BF00BF00BF00BF3F
:1099300000BF2A460220039B0199FEF7F2FEE01DBC
:10994000F830124A9178CA0F52185210C3171B0EE2
:109950001B181B129A4203D1FF200C49887004E0A7
:109960000A488078401C094988700620064908701A
:1099700006E004E0002005498870012023E700BFCD
:1099800000BF00201FE7000092F0FF1F8EF0FF1FB6
:1099900010B504462046FEF799FF002801D10120AA
:1099A00010BD0020FCE7000008B56946032000F068
:1099B0006FF80098082801D8009800E000200149BD
:1099C000487408BD94060020F8B507460D461446B5
:1099D000B807800F002801D00020F8BD16E0284607
:1099E00004F004FE00902D1D284604F0FFFD0646FD
:1099F0002D1D324638460099FFF766F8002801D041
:109A00000020EAE708372046083884B2E117490FFA
:109A10000919C9100029E2D10FE0284604F0E6FD3B
:109A200000902D1D38460099FEF7F8FF002801D060
:109A30000020D2E73F1D201F84B2E117890F0919CA
:109A400089100029E9D1002C20D0002000900026A8
:109A500012E0002C09D028786D1CF1008840009994
:109A600008430090601E84B205E0F100FF208840AA
:109A7000009908430090761C042EEAD338460099DA
:109A8000FEF7CCFF002801D00020A6E70120A4E7C4
:109A900030B503460C465802012149040D1A2146EF
:109AA000284600F039F830BD30B50346580201258C
:109AB0006D042C1A03E020780870491C641C1046C1
:109AC000551EAAB20028F6D1012030BD70B504465B
:109AD0000D466002012149040E1A3046FFF758FF77
