:020000040000FA
:10400000F80D00209F410000AB410000AD410000D1
:1040100000000000000000000000000000000000A0
:10402000000000000000000000000000AF410000A0
:104030000000000000000000B141000069C3000062
:10404000B5410000B5410000B5410000B541000098
:10405000B5410000B5410000B5410000E5A80000F1
:10406000B5410000B54100008DBC00008FBC0000D0
:1040700031CE00003BCE000045CE00004D52000086
:10408000B5410000B5410000B5410000B541000058
:10409000B5410000B5410000B5410000B541000048
:1040A00041A90000B5410000B5410000B541000044
:1040B000B5410000B5410000B5410000B541000028
:1040C00000F002F800F03EF80CA030C808382418C0
:1040D0002D18A246671EAB4654465D46AC4201D140
:1040E00000F030F87E460F3E0FCCB6460126334234
:1040F00000D0FB1AA246AB46334318470C88010098
:104100002C880100103A02D378C878C1FAD8520737
:1041100001D330C830C101D504680C60704700007D
:104120000023002400250026103A01D378C1FBD8D3
:10413000520700D330C100D50B6070471FB51FBDBB
:1041400010B510BD00F0A6FF1146FFF7F7FF09F00C
:10415000FFFE00F0BEFF03B4FFF7F2FF03BC00F068
:10416000EFFF000070B505460C46164602E00FCC86
:104170000FC5103E102EFAD2082E02D303CC03C571
:10418000083E042E07D301CC01C5361F03E0217879
:104190002970641C6D1C761EF9D270BD70470948E9
:1041A00080470948804709480047FEE7FEE7FEE7E9
:1041B000FEE7FEE7FEE7000005480649044A064B15
:1041C00070470000FDC600009D410000C140000096
:1041D000F8080020F80D0020F808002001E004C0D5
:1041E000091F0429FBD28B0701D50280801CC90757
:1041F00000D00270704700290BD0C30702D00270B4
:10420000401C491E022904D3830702D50280801C6A
:10421000891EE3E70022EEE70022DFE70022030920
:104220008B422CD3030A8B4211D300239C464EE0D1
:1042300003460B433CD4002243088B4231D303098D
:104240008B421CD3030A8B4201D394463FE0C3093F
:104250008B4201D3CB01C01A524183098B4201D357
:104260008B01C01A524143098B4201D34B01C01A42
:10427000524103098B4201D30B01C01A5241C308BA
:104280008B4201D3CB00C01A524183088B4201D329
:104290008B00C01A524143088B4201D34B00C01A15
:1042A0005241411A00D201465241104670475DE02A
:1042B000CA0F00D04942031000D3404253400022AD
:1042C0009C4603098B422DD3030A8B4212D3FC2256
:1042D000890112BA030A8B420CD3890192118B42D5
:1042E00008D3890192118B4204D389013AD09211EB
:1042F00000E08909C3098B4201D3CB01C01A5241A6
:1043000083098B4201D38B01C01A524143098B426E
:1043100001D34B01C01A524103098B4201D30B0157
:10432000C01A5241C3088B4201D3CB00C01A52417C
:1043300083088B4201D38B00C01A5241D9D2430863
:104340008B4201D34B00C01A5241411A00D20146A0
:10435000634652415B10104601D34042002B00D50A
:104360004942704763465B1000D3404201B50020CC
:10437000C046C04602BD70477047704730B503461F
:10438000CA02400D1043164D164C0A1502D02043A8
:10439000002A06DBAA1A002A12DDD040FF2A0BDC15
:1043A00030BD5205520D01D140004008AA1A07D471
:1043B000D0404042FF2A01DD002030BD0028FCDD56
:1043C0004A00002B01D0012000E00020101801223B
:1043D0005205D042F0D8C817C043604030BD00003D
:1043E0001E0400000000008010B500F029FE0068E7
:1043F00010BD10B5044600F023FE046010BD7047E8
:10440000FFFFFFFFFFFFFFFFFFFFFFFFFFFFFEFEBE
:10441000F0B50C46871A9C410D46861A9D4103D281
:10442000C01BA141D21963410D0D1F0DC94EEC1BDC
:10443000AE435CD07F057F0D0026002F51D02D05A7
:10444000AC46A943DD020123ED0A1B051D432023D1
:104450001B1B24D41746E740381871412F46E7400C
:10446000CC199D402818314661410C0D27D161447B
:104470009A4013D50023401C594152000ED14008E8
:10448000400001224B005205D34207D305204007CC
:10449000C14201D5B04900E0B0493046F0BD6B00E3
:1044A000002A00D001229A181F23203C1B1B01D593
:1044B000002302E0E540281871410C0DD7D00124FB
:1044C00024050919C407CD0740084908E40F28430B
:1044D0006144002CD5D00024401C61419A40D0D1C9
:1044E000CDE76A05520DD9D1C90FC907D5E79C4D53
:1044F0004E00002801D0012400E0002434195F00A0
:10450000002A01D0012600E00026BE19954FAC42DA
:104510000CD8AE420AD8B44206D001256D05EC4253
:10452000BCD010461946F0BD9942FCD00020394657
:10453000F0BDF0B51FB40C460F46811A9F412546C9
:10454000861A9D4106D20125ED076F40401ABC41F5
:1045500052187B41210D1E0D8D1BAC467D4D8D43A8
:104560007ED075056D0D7CD00D05AE46AC431B03AA
:104570001B0B794D52429D41202366469B1B14D351
:104580001746F740381800260090744160462F46C1
:104590000741E41900989D402818664116D47146D9
:1045A00071189A4025D5012320E093182A466A41C4
:1045B0005200002B00D0521C1E23203E9B1B002BC0
:1045C00061DD3541EE1728186641E8D500187641BF
:1045D0005B1C9A4000D3401C4B05F3181524E340A4
:1045E00010D3002B52D071467118D30FC01802D3CC
:1045F000491C05B0F0BD0123DB079A42F9D1400800
:104600004000F6E701225205B21801D1002853D02C
:104610000123CC0ADB029943891E002A08D1020C2F
:1046200003D0020C0004103902E0024600202039B9
:104630000023550B05D112020823550B01D152015D
:104640000D23550C01D112011B1DD50C01D1920077
:104650009B1C150D01D152005B1C2025EE1A01E0B8
:104660002CE022E00546F54015439840CA1AE107C0
:1046700069181305C918002ABBDA03204007081877
:10468000C10FC9070FE071466118B2E7F107400892
:104690000843711071444A000CD001235B059A4213
:1046A000A7D2C90FC9070020A3E74905490D26D1A4
:1046B000002001E00028F4D100219AE7284D66008F
:1046C000002801D0012100E0002171185F00002ABC
:1046D00001D0012600E00026BE19224FA94210D8C1
:1046E000AE420ED8B14208D001256D05E94206D090
:1046F0001946A802414010467BE79C4201D0214662
:1047000077E70020394674E710B50C465C4005D5C4
:104710000124E4076340FFF70CFF10BDFFF778FEAC
:1047200010BD30B40C465C4004D50124E40763405E
:1047300030BC6DE630BCFCE670B50124E407614096
:104740000D465D4002D4FFF763FE70BD6340FFF786
:10475000F0FE70BDFF0700000000F0FF0000F07FDA
:104760000000E0FF0000F87FF0B5F94D0C091E09CC
:104770002C402E402F468BB0A7437DD0B543FCD0B4
:10478000002E7AD0002CFCD00D465D40ED0F254365
:10479000AC1BFF25AD0464190894C502440DC90281
:1047A0002143500DDC0204430120C00701430443B0
:1047B000D2020191200C110C00958C460104234675
:1047C0008B430A9161460904E24D8A430991010A2B
:1047D0007D4449198039097805464D4301266D18F5
:1047E000F605751B6943C90C640B891C4C4364189E
:1047F000B5012C1B250C2E04B4434C434D43210C16
:10480000691889090591009DE90701D00121C907AF
:1048100004912C4601996708CD072F434C08059D4C
:10482000E10B4D432D0C29466646754302950D4616
:1048300045432E46029D7D1BB44100950D465D43C8
:1048400001942C0C2F040D465543AE462D0C3D43D0
:10485000029503947546049C2D04641B049406D2AF
:10486000029C039D641C002675410395029401ACD3
:1048700070CC009F7D1B01E03EE162E1B441090480
:104880000095079101940599A4086143090C0C4611
:104890004443650BE7040C4666467443A646640B26
:1048A0003C43039502947446049DE4042C1B049439
:1048B00006D2029C039D641C002675410395029458
:1048C00001AC70CC009F7D1BB44101940C465C434D
:1048D0000095650FE7000C465443A646640F3C4321
:1048E000039502947446049DE4002C1B049406D2A4
:1048F000029C039D641C002675410395029401AC43
:1049000070CC009F7D1BB441AE09AF06049DC90069
:10491000AD092F43049DA406AD060495079D3443BD
:1049200069180791059DE10B4D432D0C29466646FC
:10493000754302950D4645432E46029D7D1BB441AD
:1049400000950D465D4301942C0C2F040D465543F4
:10495000AE462D0C3D43029503947546049C2D04F0
:10496000641B049406D2029C039D641C00267541BE
:104970000395029401AC70CC009F7D1BB44101945F
:104980008C050694079C890A611800950791019C83
:104990000599A4086143090C0D464543680BEF04D3
:1049A0000D46644665436C0B3C43049FED047D1B40
:1049B000AC4602D20025641C6841009E019D371B55
:1049C00085410846584301950C46460FC50054439F
:1049D000600F28436546E4002C1B02D20025401CD2
:1049E0006E41019D3F1AB5412846BD098006284306
:1049F0008446A009BF064E020699A406761807430E
:104A0000079D002068410A99079019430020099BDF
:104A100000906046FF1913434041E20F64003A439F
:104A2000A4460446D71A8C41A04203D90120009025
:104A300020463A46C70F941840416246D20F22439F
:104A4000644664000494009CBE466400D71AA446E1
:104A5000044602978C417746002F01D1A04204D929
:104A60006046401C8446029A2046C40FA64694180D
:104A70004041049A0546D20F224364466400D31A8B
:104A80008D417146002901D1A84202D928461A4613
:104A9000641C10430122002800D01643610200204C
:104AA000079B891904465C410223002C02DB49184C
:104AB00013466441089DCE0A2D145D194B05670508
:104AC000E10A2C050D1908993E43C9076940002BDE
:104AD00008D0934006D30022761C5141002B01D10F
:104AE000760876001C4A002D43DB154241D0AA43CC
:104AF0003FD030460BB0F0BD06180D464D41174C67
:104B00007642AC411AD395181C465C41134A6D425B
:104B1000A24113D3012252054C00D4420AD15C00B9
:104B2000D4420BD04B4002D592021143E2E7490038
:104B30004908DFE75940C90FC90718E000200849B4
:104B4000D8E7054801420DD10342F7D0F2E7000053
:104B50000000FF07007F01000000F07F0000E0FF81
:104B60000000F87F114859400143C0124140002025
:104B7000C0E70123089A9B069A4205DC03225207EC
:104B80008918C90FC907B5E7052252078918074ACE
:104B90001143D2125140ADE770B515461C4602468E
:104BA0000B4628462146FFF7DFFD70BDFFFFFF7F64
:104BB0001F22030C02D10F22000402D0030E03D0E7
:104BC00004E00020014670470002083A030F01D1BB
:104BD0000001121F830F01D18000921E002801DB0B
:104BE0004000521E120551184205C01241181046CD
:104BF0007047C10FC90700D04042012292071143FC
:104C0000D6E701218907D3E7F0B58B4C0F0925467C
:104C100089B0BD437BD01D092646AE43FAD00E466F
:104C20005E402740F60F3E43254071D024012142CB
:104C3000FBD0FF24AD19A4042D1B039501252D05E0
:104C4000DB02DB0AC9022B43C90A29431E01090101
:104C5000040F130F050121431701880B82039143B1
:104C60002D098C46A90B1E438A039543B30B9A0367
:104C700096433F09BA0B9403A74302962E467E4300
:104C80000497B6464E19D7190C460196544305971A
:104C90007E43371B7646BF1B3601B646BE0B361920
:104CA00000967646BC043719009C01D3641C00941E
:104CB0006400002F01D001263443029E049F7543F7
:104CC00066467E430496760034196E0034190094CB
:104CD000029C019E1C196643751BAE4606946546F0
:104CE0004519059C05956C43594375460891691A09
:104CF0000191049E01465143A41B0491611A009C3A
:104D00000791E10605D061090122114302E072E03A
:104D10006EE06109089D00272C0A2D066918049D84
:104D20007C412A0A2D066918019D6241AC0DAD0235
:104D30006D185441079A910D920255196141029ADA
:104D4000644658435443069B059A5A43121A131B50
:104D50009A0E9B015B187A41010B0005C318514163
:104D6000220A200644195A419A4200D2491C0120C5
:104D70004002814203D315230226F64302E01423A6
:104D80000326F6432020C51AA9401746AF40DA4053
:104D90000A4320460399D84009147318190551187D
:104DA000039A3843D2075140AC4009D001229440C5
:104DB00006D30022401C5141002C01D14008400084
:104DC0001E4A934212D3012203989206904207DBB7
:104DD0000520400709181A480143C012414004E069
:104DE000032040070818C10FC907002009B0F0BD13
:104DF0000020F107FAE705180C464C4111486D42B6
:104E0000A04115D394181A465A410E486442904165
:104E10000ED301204A004005824209D35A00824243
:104E200006D35940C90F084AC90700201143DDE7DE
:104E300000200649DAE700000000FF07FE07000037
:104E4000FFFFFF7F0000E0FF0000F07F0000F87F21
:104E5000F8B5224C4E00069DA6420AD8A64201D1C2
:104E6000002806D15E00A64203D8A6420AD1002A35
:104E700008D00D24240425422CD02946002000F01F
:104E8000E3F8F8BD0C461C430CD4994202D0EFF372
:104E90000080F8BD904202D0EFF30080F8BDEFF340
:104EA0000080F8BD09242407E5008B4206D0EFF30B
:104EB0000080A043591A06D2284304E0101A05D3F3
:104EC000EFF30080A04380F30088F8BDEFF300808B
:104ED000A043F1E7009500F0CFF8F8BD0000E0FF37
:104EE00070B505464800440D124B0020002C0AD036
:104EF000634008D09A4206DA6642B24203DD1205E8
:104F00004019514170BD002C08D0002B09D0C90FA9
:104F1000C907002AF6DB084A114370BDC90FC9074B
:104F200070BD28460A03104302D00020034970BD1B
:104F3000284670BDFF0700000000F07F0000F87FEA
:104F4000F0B53D4B02460C461C400020002C63D0BF
:104F50003A4D8B4366D000296BDB0B0D1D05A94331
:104F600001252D0529430124FD33E34001D3921887
:104F70004941FF3381339C468B02940D0121234329
:104F800089074C42920200271B198C105D1A04D429
:104F90002D1B02D42B466500491992185B41640809
:104FA000F4D15C1A08D40125ED07EE1755197441A8
:104FB00002D42A462346491C94185B4101229207D9
:104FC0001D46E61B8D4106D4B61A854103D42B46F7
:104FD000550034467F1924195B415208802AEFD1CD
:104FE000234300D0022338460A22D04001D30122B5
:104FF00013438A0510436246890A12058918002B5B
:1050000009D00122D34002D30022401C5141002B81
:1050100001D140084000F0BD0B03134307D0C90F76
:10502000C907F0BD0803104303D1002901DB104676
:10503000F0BD00202946F0BD0000F07F0000F87FA1
:105040000048704798080020C80212D54803400F56
:10505000002804D0C803C043012188407047EFF303
:1050600000800001000903210907084380F300883C
:10507000704700207047000010B500200249029AD6
:1050800000F02FF810BD00000000F87F00487047C6
:10509000980800207546FFF7F9FFAE4605006946FF
:1050A0005346C008C000854618B020B5FFF784F805
:1050B00060BC00274908B6460026C0C5C0C5C0C5AB
:1050C000C0C5C0C5C0C5C0C5C0C5403D49008D46AE
:1050D000704710B50446C046C0462046FFF73BF86F
:1050E00010BD10B50C461107090F092904D00A2973
:1050F0000AD008290CD104E011460820FFF7A4FFCC
:1051000006E0510606D501E0510601D50120C00791
:10511000214610BDD10607D501010909CC08490770
:10512000000E0006044309E0410F20024907000A6F
:105130000143200E00061D22D14101430846E7E746
:1051400001491820ABBEFEE72600020010B546203C
:1051500005F0A0F9012800D100E0002019490870ED
:1051600008460078184909790907C90F884224D0F0
:1051700014484078401CC0B21249487019281FDBFF
:10518000002048700846007800280FD00E4840687C
:1051900001210905884340180B49486008464068CA
:1051A0000821884308300849486009E006484068FB
:1051B000082188430449486002E000200149487002
:1051C00010BD00009CF0FF1F10F1FF1F10B504463A
:1051D000012C03D12D2005F03DF902E02D2004F033
:1051E0007DFF10BD10B50121462004F097FF02227B
:1051F0000021024809F020FC10BD00009CF0FF1FB8
:1052000010B50021062004F089FF0021282004F0B9
:1052100085FF10BD10B504461F21204600F011F98E
:10522000034840690121490788430149486110BD8D
:105230000080044070B504460D462146024800F047
:10524000DBF82880012070BD00B0034070470000EB
:1052500030B504460D466548844206D1644840692D
:10526000012149070843624948612979204600F035
:10527000D5F86979204600F0D9F8A979204600F0E0
:10528000F0F8E979204600F0E4F86888A061287811
:105290000007C00F002806D000BF60682021084327
:1052A000606000BF00BF2878C006C00F002806D08D
:1052B00000BF606810210843606000BF00BF28780D
:1052C0008007C00F002806D000BF206820210843B7
:1052D000206000BF00BF2888C005C00F002806D08E
:1052E00000BFE06820210843E06000BF00BF2878CD
:1052F0000006C00F002806D000BFE0684021084328
:10530000E06000BF00BF28784007C00F002806D02B
:1053100000BF606840210843606000BF00BF28787C
:10532000C007C00F00280CD000BF206840210843F0
:10533000206000BF0F20012181402E4A116000BF74
:1053400000BF28784006C00F002806D000BFA06824
:1053500010210843A06000BF00BF28788006C00F5E
:10536000002806D000BFA06880210843A06000BFCD
:1053700000BF28888005C00F002807D000BFE06864
:10538000FF2101310843E06000BF07E000BFE06893
:10539000FF2101318843E06000BF00BF288840053D
:1053A000C00F002806D000BFE06902210843E06179
:1053B00000BF06E000BFE06902218843E06100BF52
:1053C00000BF28880005C00F002806D000BFE06994
:1053D00001210843E06100BF06E000BFE06940082A
:1053E0004000E06100BF00BF30BD000000B00340DE
:1053F0000080044000E100E030B504460D46294637
:10540000204600F01EF800BF00BF20688021084041
:105410000028F9D000BF206980B230BD82689208B0
:1054200092008B079B0F13438360704710B582680F
:1054300060241346A3431A464B0123401343836061
:1054400010BD026852095201CB06DB0E1343036004
:105450007047C268D208D2004B075B0F1343C3608A
:10546000704710B582680C241346A3431A468B007C
:1054700023401343836010BD10B500212F2004F09A
:105480004DFE0021152004F049FE02210D2004F0FC
:1054900045FE10BD10B51D2004F0FCFF002801D111
:1054A000012000E0002016490870084600781549E0
:1054B00049684903C90F88421ED011484078401CF2
:1054C000C0B20F494870192819DB002048700846FF
:1054D0000078002808D00B484068012189048843DF
:1054E0004018084948600AE00648406801218904DC
:1054F00088430449486002E000200149487010BD1B
:105500009EF0FF1F10F1FF1F024803498860034807
:10551000C860704781CD00001CF7FF1FA5CD0000BB
:1055200010B5044606480078032807D10448C0682F
:10553000002803D00248C1682046884710BD0000FB
:105540001CF7FF1F10B500201B49487100241BE009
:105550001A49085D05F0ACF8002813D016484079C8
:10556000002808D11548005D134948700120487192
:105570000846C47006E01148005D0F49887008466F
:10558000047103E0601CC4B2042CE1DB00BF0A48D4
:10559000C078042801D1002010BD0748C0788000E1
:1055A00007490858002805D00349C9788900044AEA
:1055B000505880470120EFE71CF7FF1F84ED0000E3
:1055C00088ED000000214868804700BFFEE700002A
:1055D00010B5044609222FA1204609F00BFA082233
:1055E0002FA1204609F006FA012808D100202F49F2
:1055F000087001202E49087006F0E8FF0CE0082230
:105600002CA1204609F0F6F9012805D100202849EF
:105610000870012006F0DAFF082229A1204609F0CF
:10562000E9F9012808D100202149087001201F490B
:10563000087006F0CBFF11E0082224A1204609F0F3
:10564000D9F901280AD1002018490870012006F074
:10565000BDFF0E2220A1002007F079FD082222A123
:10566000204609F0C7F9012801D106F0AFFF082252
:1056700020A1204609F0BEF9012809D10E2216A169
:10568000002007F064FD13221DA1002007F05FFD3C
:1056900010BD000044415441494E495420000000CF
:1056A000535050434F4E4E2000000000A1F0FF1F0A
:1056B000A0F0FF1F53505044495343200000000006
:1056C000424C45434F4E4E2000000000424C4544A2
:1056D000495343200000000041542B4220424C45D6
:1056E00041445620310D0000535050444154412054
:1056F00000000000534E4B494E495420000000006A
:1057000041542B4220534C444E204453505F384365
:1057100048310D0010B50446002C0CD0012C0AD0E5
:10572000022C03D1012005F0E7FE04E0032C02D196
:10573000002005F0E1FE10BD10B502211D2004F08F
:10574000EDFC02220021024809F076F910BD0000AC
:105750009EF0FF1FF8B505460C46BEE103F000FCC5
:105760006520005D062873D006DC030007F0FBFD12
:1057700006112B3B4E61787320286AD004DC102878
:1057800068D0112867D1A9E0212878D03028F9D134
:1057900095E101222146284607F0BBFC2078AA2883
:1057A00003D10121652001550CE02078412803D167
:1057B00002216520015505E02078442802D103210B
:1057C0006520015588E10122611C284607F0A1FCF3
:1057D0006078552803D110216520015502E0002191
:1057E0006520015578E10122611C284607F091FCF3
:1057F0006078542806D104216520015500216420D9
:10580000015502E000216520015565E10122611C7E
:10581000284607F07EFC6078422806D130216520BA
:10582000015500216420015502E000216520015549
:1058300052E10122A11C284607F06BFCA0782D281C
:105840000AD105216520015500216420015506E09B
:105850001AE070E02BE03EE10021652001553BE1BC
:105860000122E11C284607F054FCE078422807D1C9
:1058700006216520015500216420015503E078E0F0
:1058800000216520015527E10122211D284607F04E
:1058900040FC2079202806D12121652001550021D6
:1058A0006420015502E000216520015514E1012228
:1058B000A11C284607F02DFCA17864200155005D4D
:1058C000502803DC6420005D032803DA00216520F2
:1058D000015501E1112165200155FDE06420005DC5
:1058E000C01E82B2E11C284607F013FC002800D13C
:1058F000F8BD6420005D401EC1B2204604F0E8FD02
:105900006421095D491E615C88420ED177480078A8
:10591000A84208D0284600F0BDFF6420025D214661
:10592000734809F07BF800F08DF9002165200155DE
:1059300064200155DCE76420005D401D011901224F
:10594000284607F0E6FB6420005D401D205C20280F
:1059500002D12121652001556420005D401CC1B2A7
:1059600064200155005D962802DD00216520015567
:10597000B2E06420005D401D01190122284607F0B5
:10598000C8FB0A225BA1601D09F034F8012806D08B
:105990000A225BA1601D09F02DF8012873D10026B1
:1059A000607C2C2802D0A07C2C281DD1E07B2028F4
:1059B00009D1607C2C2806D1207C3138C6B2112058
:1059C0005249087010E0E07B20280DD1A07C2C28E3
:1059D0000AD1207C30380A214843617C4018303895
:1059E000C6B21220494908706420015D30460E306D
:1059F00081423ADB002E38D06420005D401D205CDF
:105A00000D282CD139480078A84202D0284600F051
:105A100041FF3E480078C01C225C3C480078401C96
:105A20002118334808F0FAFF002701E0781CC7B2BC
:105A300036480078C01C205CB842F7DC2C488078DF
:105A4000401EC1B22A4804F043FD29498978491E05
:105A5000274A515C884201D100F0F4F800BF0021D0
:105A6000642001556520015528E06420005D401C3C
:105A7000C1B264200155005D64281FDD002165204E
:105A800001551BE0FFE76420005D401D205C0D28F0
:105A900008D1601DFFF79CFD0021642001556520A1
:105AA00001550BE06420005D401CC1B2642001552B
:105AB000005D642802DD0021652001550CE0012213
:105AC000A11C284607F025FBA07800F0FDFF00216F
:105AD0006520015500E000BF00BF284607F012FB1B
:105AE000002800D03AE600BF02E70000A4F0FF1F44
:105AF00096F7FF1F53505044415441494E44000013
:105B0000424C4544415441494E440000A7F0FF1F18
:105B100010B50021072004F001FB10BD10B506F000
:105B2000CFFA10BD10B509F00FF810BD10B506F092
:105B3000F9FA10BD10B5074804F015FA05484030D1
:105B400004F011FA0348803004F00DFA04F0F5F97E
:105B500010BD000000F00F4010B50120800309F0D7
:105B60005BF810BD10B50449002006F07BFB02492C
:105B7000012006F077FB10BD801A060010B509F071
:105B800025F810BD10B50020094988610948486111
:105B9000072008610321081F05F016FD0020C043FF
:105BA000C206D20E01219140034A116000BF10BD10
:105BB00000E000E0FF70020000E100E010B5E1212C
:105BC0004902002006F08AFCE1214902012006F08A
:105BD00085FCE1214902022006F080FC10BD7047DF
:105BE0001CB56846008804218843011D6846018071
:105BF00000880821884301466846018000881021FA
:105C00008843014668460180008840218843411846
:105C10006846018000880221884301466846018069
:105C20000088FF2181318843014680316846018028
:105C30007D21490141800021818007F021FB07F08F
:105C4000FFFA1CBDFEB5F94CA01F0079F02802DA5E
:105C5000FF2000F0D1FDF548801F00790B287DD092
:105C600006DC012815D0082879D00A2878D11DE053
:105C70000F2876D0FF28F9D1EC48801FC078EC4976
:105C8000497B884204D10021E948603041720172A9
:105C9000FEE3E648801F4079042805D10322012154
:105CA000104605F06DFD00BF00BFF1E7DF48801F23
:105CB000407913287ED019DC13287CD243007B4422
:105CC0009B885B009F443B008F005201C501070287
:105CD00000032103530371038F03AD03D403210495
:105CE00035045F04770077007700680187286ED05D
:105CF00010DC83286CD006DC14286AD0152869D003
:105D0000822858D17FE1842876D0852875D08628CE
:105D1000F7D123E388380D28CFD243007B449B88FA
:105D20005B009F4457037503480048004800270460
:105D30005C0448004800480079018D015202BD48CA
:105D4000807D002847D1207800280BD1B748801FDC
:105D500042790A21032005F013FD43E0FEE3FEE350
:105D6000FEE3FEE32078012814D1B3484068000325
:105D7000C00F002804D10120AE4988756078C8752D
:105D8000AA48801F4079C21DF9320A21032005F07C
:105D9000F7FC27E02078022824D1A74840680003B8
:105DA000C00F002805D10220A24988756178A1485A
:105DB000C17501E00BE1F4E39C48801F4079C21DEE
:105DC000FF32FA320A21032005F0DAFC0AE0E3E2AE
:105DD00078E151E223E29548801F42790A210320AD
:105DE00005F0CEFC1AE22078002807D101220A2112
:105DF000032005F0C5FCB8E0B4E17DE2207801287D
:105E000008D18D4840680003C00F0028F3D100F08E
:105E1000F3FEAAE02078022827D160780028EAD093
:105E2000854840680003C00F002802D1607801F067
:105E300091F86078C10F091849104900411A0AD039
:105E40006078401E40010121C903084381B27948AE
:105E50002038418689E06078401E40010121C90355
:105E600008437449203988867FE02078032827D1A9
:105E70006078002879D0704840680003C00F00287F
:105E800003D16078012100F009FF6078C10F091883
:105E900049104900411A09D06078401E4001012193
:105EA000C90308436349203948865EE06078401E94
:105EB00040010121C90308435E492039888654E026
:105EC0002078042820D1607800284ED05A484068B5
:105ED0000003C00F002802D1607801F001FB607858
:105EE000401E4002C01C82B20A21032005F048FC7B
:105EF0006078401E4000401C0002C01C82B20A2193
:105F0000032005F03DFC30E02078052828D160789A
:105F100000282AD0484840680003C00F002803D159
:105F20006078002100F0BAFE6078C10F09184910AE
:105F30004900411A0AD06078401E40010121C9037E
:105F4000084381B23B48203841860EE06078401E0D
:105F500040010121C903084336492039888604E0FD
:105F60002078062801D102F087FA42E332484068DF
:105F70000003C00F002803D12078A11C01F0E8FE27
:105F8000207800022949891F4979401882B20A21E4
:105F9000032005F0F5FB2CE3274840680003C00F01
:105FA000002808D10522A11C244808F037FD2078DC
:105FB000A11C01F0CDFE207800021C49891F4979FF
:105FC000401882B20A21032005F0DAFB11E31A48D7
:105FD00040680003C00F002809D10522A11C174802
:105FE000401D08F01BFD2078144901F0B1FE207817
:105FF00000020E49891F4979401882B20A21032004
:1060000005F0BEFBF5E220780002801C82B20A2176
:10601000032005F0B5FBECE220780002123082B2DA
:106020000A21032005F0ACFBE3E200009CF7FF1F10
:106030002CF7FF1FC006002010F1FF1FD4F8FF1F30
:1060400020780002133082B20A21032005F098FB69
:10605000CFE2FE4840680003C00F002827D16178D6
:1060600068460170A1784170E1788170207900065E
:10607000617909044018A17909024018E1794018B2
:106080000190207A0002617A401881B2684601814D
:106090002578EA0F521952105200AA1AD1B22E4690
:1060A000EA0F921950106A4601F078FA00BF207882
:1060B0000002E7494979401882B20A21032005F01D
:1060C0005FFB96E220780002C01C82B20A21032006
:1060D00005F056FB8DE2DD4840680003C00F002844
:1060E00035D1617868460170A1784170E07800028E
:1060F0002179401881B26846418060790006A17913
:1061000009044018E17909024018217A40180190E9
:10611000607A0002A17A401881B268460181E07A73
:106120000002217B401881B2684641812578EA1738
:10613000D20E521952115201AA1AD1B22E46EA17A2
:10614000D20E921950116A4600F0E0FF00BF20788D
:106150000002BF494979401882B20A21032005F0A4
:106160000FFB46E22078C117C90E091849114901F1
:10617000411A1F2920D12078C117890E09188911C9
:106180008901411A20290BDA2078C117C90E091894
:10619000491149010122D2031143AE4A518613E04D
:1061A0002078C117C90E0918491149010122D203EB
:1061B0001143A84A918607E020780002001D82B2B0
:1061C0000A21032005F0DCFA13E22078C117C90E7A
:1061D000091849114901411A1F291FD12078C117F7
:1061E000890E091889118901411A20290BDA2078B2
:1061F000C117C90E0918491149010122D2031143DF
:10620000944A51860AE02078C117C90E091849112D
:1062100049010122D20311438E4A9186E9E18B485C
:1062200040680003C00F00281BD160780002A178ED
:10623000401889490881E078000221794018864990
:1062400048812578EA17D20E521952115201AA1A22
:10625000D1B22E46EA17D20E921950117E4A00F0A2
:1062600055FF207800027A494979401882B20A2104
:10627000032005F085FABCE1744840680003C00FB4
:10628000002816D1607874490870A0784870E078CA
:106290000002217940187049488060790006A17990
:1062A00009044018E17909024018217A40186A4926
:1062B00048602078000266494979401882B20A2174
:1062C000032005F05DFA94E1604840680003C00FC8
:1062D000002806D162781202A378D118207800F045
:1062E000A7FC207800025A494979401882B20A2155
:1062F000032005F045FA7CE120780002401D82B2BF
:106300000A21032005F03CFA73E15048406800037D
:10631000C00F002812D12078002807D1E0780002B1
:106320002179401881B24B484038C182627812020C
:10633000A378D21891B2207801F0DCFE2078000218
:1063400043494979401882B20A21032005F018FA1E
:106350002078002801D100F0D5FA4AE12078000227
:10636000801D82B20A21032005F00AFA41E1374874
:1063700040680003C00F002803D16178207801F045
:1063800005FE2078000232494979401882B20A217C
:10639000032005F0F5F92CE120780002C01D82B23F
:1063A0000A21032005F0ECF923E1284840680003A6
:1063B000C00F002803D16178207801F01DFD2078FE
:1063C000000223494979401882B20A21032005F0CE
:1063D000D7F90EE120780002083082B20A210320AA
:1063E00005F0CEF905E1194840680003C00F002808
:1063F00003D12078611C01F055FE20780002144979
:106400004979401882B20A21032005F0B9F9F0E079
:1064100020780002093082B20A21032005F0B0F989
:10642000E7E020780B494031087160784871617865
:10643000207802F061F8002810D005484079C21D8C
:10644000F9320A21032005F09BF910E010F1FF1F3B
:1064500096F7FF1FA0060020C8F8FF1FD948407913
:10646000C21DFF32FA320A21032005F089F9C0E08B
:10647000207801282BD12078D3490870601C04F0C3
:1064800043FA002819D0E01D05F084FD002800E043
:1064900096E108D0CB484079C21DF9320A21032089
:1064A00005F06EF930E0C74840790321090242182F
:1064B0000A21032005F064F926E0C2484079C21D94
:1064C000FF32FA320A21032005F05AF91CE0207845
:1064D000022819D12078BC490870601C04F014FA15
:1064E000002808D0B7484079C21DF9320A2103209C
:1064F00005F046F908E0B3484079C21DFF32FA3290
:106500000A21032005F03CF973E0207801280FD11F
:10651000AE480078002806D1FF220D320A21032060
:1065200005F02EF904E00B22A9A1002006F00FFED1
:106530005FE0207801281CD1A84840680003C00F04
:10654000002802D1607806F065FE207800029D499F
:106550004979401882B20A21032003E04BE022E18E
:106560002DE11AE105F00CF906220A21032005F0BD
:1065700007F93EE0207800020D3082B20A210320A4
:1065800005F0FEF835E0207801280BD101F0A8FCD9
:10659000924840680121C904884340188F494860E7
:1065A0000CE025E02078022808D101F0D3FC8B48CC
:1065B00040680121C9048843884948602078000266
:1065C00080494979401882B20A21032005F0D8F8A1
:1065D0007F2252020A21032005F0D2F809E0207838
:1065E00000020E3082B20A21032005F0C9F800BF74
:1065F00000BF00BFE4E073484079030006F0B3FE3B
:106600000504415A86AACA002078012813D174488B
:10661000807D002808D16078002805D06078704916
:10662000C875032088752BE0FF2212020B2103207E
:1066300005F0A6F824E02078022813D16848807D70
:10664000002808D16078002805D060786449C875B2
:106650000420887514E0FF2212020B21032005F0AC
:106660008FF80DE0207881280AD100205C49C87598
:106670006039C867603108764876887620310860CE
:1066800089E05748807D032813D120785449C97D7B
:1066900088420ED1534852496039C8675048C07D7E
:1066A000000248494979401882B20B21032005F0C5
:1066B00067F870E04A48807D032826D12078484951
:1066C000C97D884221D16078454908760846007E18
:1066D000401C6039C96F3F318909884207D340485F
:1066E0006038C06F8006800E3D49487602E0402148
:1066F0003B4841763A48C07D00023249497940180A
:1067000082B20B21032005F03BF844E03448807D41
:1067100004281ED121783248C07D814219D1607889
:106720000006A17809044018E1780902401821798F
:1067300041182B486038C16760790006A1790904C7
:106740004018E17909024018217A40182449203183
:10675000086020E02248807D04281AD12178204852
:10676000C07D814215D160781D49097E884210D1D3
:106770001D4D1B48007E80012D1812488078093875
:1067800082B2A11C284608F049F9012114488176FB
:1067900000BF00E000BF00BF12E00A2213A10020EA
:1067A00006F0D5FC0CE007484079012806D10B48DB
:1067B000406802218843801C0849486000E000BF0F
:1067C00000BFFEBD96F7FF1F8DF0FF1FA4F0FF1F57
:1067D00041542B4220474C42440D000010F1FF1F52
:1067E000C0060020AC0D0000E0F8FF1F41542B4F05
:1067F00054413D310D00000010B586B004464121E2
:1068000068460171542141713E2181710121C1719C
:106810001C480078002803D00120694608720AE06D
:1068200019480078002803D002206946087202E067
:106830000020694608720021684641720921817270
:106840008021C172002101730D2141735521817393
:10685000AA21C173062101740C48C17868464174AD
:10686000847405210E3003F033FE01466846C1747E
:106870000D210175112201A90548007806F067FC79
:1068800006B010BDA1F0FF1FA0F0FF1F96F7FF1F7D
:10689000A4F0FF1F10B504461448807D002824D1C1
:1068A00013480078844204D11149124802F057F984
:1068B00007E011480078844203D10F490D4802F0E7
:1068C0004EF90C480078012803D10C4805F06AFB0A
:1068D0000BE008480078022803D1094805F062FB64
:1068E00003E00020C04305F05DFB10BDC0060020A2
:1068F000A5F0FF1FA4F0FF1FA6F0FF1F5555AAAA81
:1069000055AA55AA10B5002411E00B484088610033
:106910000A4A515A884208DA09480470FF220E32A6
:106920000A21032004F02CFF10BD601CC4B2282CE7
:10693000EBDD00BFF8E700006006002070C5010035
:10694000CBF0FF1F10B50F4803F0EBFD002809D076
:1069500001200D49087000200C49087002200C49E4
:1069600008700DE00B4803F0DCFD002808D0022081
:106970000549087000200549087001200449087085
:1069800010BD00005555AAAAA4F0FF1FA5F0FF1FD7
:10699000A6F0FF1F55AA55AA10B5002400BF04E0B9
:1069A000204600F005F8601CC4B2042CF8DB10BDD2
:1069B00010B504462101024A881804F08BFF10BD6F
:1069C000D0F0FF1F10B50021292003F0A7FB002104
:1069D000122003F0A3FB0021372003F09FFB372098
:1069E00003F038FD10BD000010B50221452003F072
:1069F00095FB02220021024808F01EF810BD00009D
:106A000080F0FF1F10B52C480078062800D010BD7C
:106A1000452003F03FFD002801D1012000E00020C7
:106A200026490870084600782549097888423DD0F3
:106A300022484078401CC0B220494870192838DBF1
:106A40000020487008460078002811D01D48406892
:106A50000121C904884340181A4948600120184997
:106A60000870012401F03CFA0220FEF753FE0FE00B
:106A7000144840680121C904884312494860002035
:106A80000F490870022401F065FA0320FEF742FE68
:106A900020020E3082B20A21032004F071FE7F2210
:106AA00052020A21032004F06BFE02E00020034999
:106AB000487000BFABE700006CF0FF1F80F0FF1FC5
:106AC00082F0FF1F10F1FF1F70B50546042D2AD07C
:106AD00008DC002D0DD0012D0CD0022D0DD0032D82
:106AE00047D115E0052D29D0062D32D0102D40D1EB
:106AF00030E03FE006F0ECFF3CE0292003F0EEFA46
:106B0000FF20F53005F062FD292003F0A3FC31E001
:106B1000062003F0E3FAFF20F53005F057FD0620CC
:106B200003F098FC26E0282003F0D8FAFF20F53087
:106B300005F04CFD282003F08DFC1BE0072003F03E
:106B4000CDFAFF20F53005F041FD072003F082FC6F
:106B500010E00FE0002409E0204602F0DFFF02F021
:106B6000FFF9082005F032FD601CC4B2082CF3DDEB
:106B700000E000BF00BF70BD70B504460D4601F0D7
:106B8000A3FA002C01D001F083F800F053FC00F0D0
:106B9000D1F800F075F8002C01D001F03FFB01F0B6
:106BA00093F901F023FA70BD10B50020074948742D
:106BB00020394886888620310874887500F008F8E6
:106BC00001210846FFF7D8FF10BD0000C0060020D5
:106BD00010B5002408E0E2000549501808220549D4
:106BE00007F01CFF601CC4B2082CF4DB10BD0000D1
:106BF00090060020EEC2010010B500200B49487439
:106C000003F07EF901210846FFF7B6FF012108468F
:106C100001F0D0FC00220A21032004F0B1FD7F2204
:106C200052020A21032004F0ABFD10BDC006002073
:106C300038B505460C4600200090082D01DC002DDB
:106C400000D138BD210E684601702002010E684651
:106C500041702004010E68468170C4706800064AC5
:106C6000115A6B460422002004F082FF6900034A97
:106C7000545200BFE5E70000C0C2010050060020EA
:106C800010B5002005E000214200034B9952411C41
:106C900088B20928F7DB10BD5006002070B5044605
:106CA0000E46082C01DC002C01D1002070BD601EB6
:106CB000C4B2002537E0012E14D1642005F092FC07
:106CC000FF20813060431A4941180C206843085C5A
:106CD000B043FF2181316143154A8A180C21694371
:106CE000505412E0FF2081306043114941180C20BC
:106CF0006843085C40084000401CFF21813161432B
:106D00000B4A8A180C2169435054FF20813060439C
:106D1000074941180C2068430A182946204600F00C
:106D2000F5F9681CC5B2202DC5DB0120BEE70000C7
:106D300050FAFF1F10B5002159E0002053E0002455
:106D4000FF2281324A432B4BD3180C2242439C54DE
:106D5000FF2281324A43274BD3180C2242439A5CCC
:106D600052085200521CFF2381334B43214C1C1903
:106D70000C234343E2540024FF2281324A431D4B3B
:106D8000D3180C2242439A1854704B246401FF22FA
:106D900081324A43174BD3180C2242439A1854802D
:106DA0008200154B9C58FF2281324A43114BD31865
:106DB0000C2242439A185460104CFF2281320B4639
:106DC00053430C4A9B180C2242439A1814818D2479
:106DD000FF2281324A43074BD3180C2242439A18B0
:106DE0005481421C90B22028A9DB4A1C91B2082988
:106DF000A3DB10BD50FAFF1F18C40100DC05000022
:106E000010B55048408E0121C9030840002800D128
:106E100010BD4D480078401C4B4908704B48007825
:106E2000002836D008460078042803DB484800785C
:106E300001280FD044480078042803DB4448007838
:106E4000022807D040480078082879DB40480078BD
:106E5000002875D100203C4908703A48408E000255
:106E6000001D82B20A21032004F08AFC002867D0AA
:106E70003448408E401C33494886488EC117C90E9D
:106E8000091849114901411A5AD100202D49488653
:106E900056E02D480078042803D12D4800780128B9
:106EA0000FD029480078042803D129480078022807
:106EB00007D02548007810280CD1254800780028F4
:106EC00008D12048408E0002143082B20A210320EB
:106ED00004F056FC1C480078082803DB1C480078A6
:106EE00001280FD018480078082803DB18480078DC
:106EF000022807D0144800781E2821DB14480078A7
:106F000000281DD10020104908700E48408E000254
:106F1000153082B20A21032004F032FC00280FD081
:106F20000848408E401C07494886488EC117C90E44
:106F3000091849114901411A02D100200149488626
:106F400000BF65E7A0060020C9F0FF1FA0F0FF1FEB
:106F5000A4F0FF1F3EB50546082D01DC002D01D130
:106F600000203EBD681EC5B2002168460170007851
:106F700041084900491C68460170002141704B21BD
:106F8000490141800A4901818D21418100240AE0A3
:106F9000A0000849085801906A462146284600F09A
:106FA000B5F8601CC4B2202CF2DB0120D9E7000048
:106FB000DC05000018C4010010B55048808E012186
:106FC000C9030840002800D110BD4D480078401C7E
:106FD0004B4908704B480078002836D008460078A6
:106FE000042803DB4848007801280FD04448007883
:106FF000042803DB44480078022807D04048007882
:10700000082879DB40480078002875D100203C49E9
:1070100008703A48808E0002001D82B20A210320C7
:1070200004F0AEFB002867D03448808E401C334902
:107030008886888EC117C90E091849114901411A5D
:107040005AD100202D49888656E02D480078042822
:1070500003D12D48007801280FD029480078042852
:1070600003D129480078022807D02548007808284D
:107070000CD125480078002808D12048808E0002D5
:10708000143082B20A21032004F07AFB1C480078F5
:10709000082803DB1C48007801280FD01848007826
:1070A000082803DB18480078022807D01448007825
:1070B000102821DB1448007800281DD10020104939
:1070C00008700E48808E0002153082B20A2103201B
:1070D00004F056FB00280FD00848808E401C07495A
:1070E0008886888EC117C90E091849114901411AAD
:1070F00002D100200149888600BF65E7A006002074
:10710000CAF0FF1FA0F0FF1FA4F0FF1FF0B593B05F
:1071100006460D461446082E01DA1F2D02DB00201C
:1071200013B0F0BD61884B229201002003F040FDB6
:1071300060804D4A0020616803F03AFD606021895B
:107140004A4A002003F034FD20816189192292010E
:10715000002003F02DFD6081EA17120F5219121161
:107160007300D2185200424B9A5A2846EB171B0F55
:107170001B181B111B01EB1A9F00DB19D21892B2CE
:1071800012922078C007C00F00280DD06078002828
:1071900008D1608900902389618808A8626801F09D
:1071A000DBFA12E00020BBE7FF202D3005F01AFAD1
:1071B0000021089109910A910B912E480C910D9094
:1071C00000200E900F90109011902078C006C00FF4
:1071D000002810D00122D20709995140089809913E
:1071E00008900B9951400A980B910A900D995140C3
:1071F0000C980D910C900999089803AA01910090A0
:1072000004F0FAFB0B990A9804AA0191009004F08B
:10721000F3FB0D990C9805AA0191009004F0ECFB8A
:107220000F990E9806AA0191009004F0E5FB1199C0
:10723000109807AA0191009004F0DEFB03AB052231
:107240000020129904F01EFCFF20813070430A498F
:1072500041180C2068430818A3682268616883609D
:107260000260416001205BE700770100B80B00007D
:1072700098C401000000F03F50FAFF1F70B50446AB
:1072800068480078401C6749087067480078030028
:1072900006F069F8050414376F94C3006348C07D95
:1072A0000002C01C82B20B21032004F069FA002006
:1072B0005C49087001205C490870AFE05B486038A9
:1072C000C06F00280CD05948C07D0002001D82B25A
:1072D0000B21032004F054FA0220534908700FE0F8
:1072E000504800780A280BDB00204E4908704F48B0
:1072F000C07D0002C01C82B20B21032004F040FAC2
:107300008CE04A48807E002822D04848007E401CFD
:1073100046496039C96F3F318909884203D3032048
:107320004149087010E000203E4908703F48007E47
:10733000401C3E4908760846C07D0002001D82B20E
:107340000B21032004F01CFA0020384988760FE056
:107350003448007832280BDB00203249087033486B
:10736000C07D0002001D82B20B21032004F008FA48
:1073700054E000212E4A002003E013785918521CD3
:10738000401C2A4B603BDB6F8342F6D8274B2033EF
:107390001B688B4203D10423234D2B700DE0002387
:1073A000214D2B701F4D2B70204D603DEB676035DC
:1073B0002B766B76AB7620352B602FE01B49C87D92
:1073C00000F044FF002827D0002017490870012151
:1073D000084601F0EFF81548C07D1449487402F0E2
:1073E0008FFD00201149C875002110486038C16721
:1073F0006030017600200D49487600210B488176E7
:1074000000200A4920310860412252020B2103204A
:1074100004F0B6F9012070BD00E000BF00BF0020FD
:10742000F9E70000ACF0FF1FABF0FF1FC006002023
:10743000E0F8FF1F00204BE0002318214143264ABB
:1074400053541821414389180B7318214143515C4F
:1074500049084900491C182242431F4B99541821DE
:1074600041431A468918097B49084900491C1822DA
:107470004243D2181173032318214143164A891835
:107480004B70182102464A43134951184B73182177
:107490004143114A89188B70182102464A430E490C
:1074A00051188B731423182141430B4A89184B60E0
:1074B0000A4B1821414389180B61002318214143CD
:1074C00089180B811821414389188B82411C88B28D
:1074D0000828B1DB7047000090F9FF1F204E000024
:1074E0003EB50446082C01DC002C01D100203EBD35
:1074F000601EC4B20021684601700078410849004E
:10750000491C68460170032141708170142001906C
:107510000021684601816A46204600F03FF8044891
:1075200001906A460121204600F038F80120DEE78C
:10753000204E000070B504460D46012D02D10020FA
:107540001449087013480078002802D001281CD183
:1075500012E0204600F06CFB00280CD00E4844746A
:1075600002F0CEFCFF2201320B21032004F008F9C7
:1075700001200849087009E00748C07D002803D1B0
:1075800004490870012070BD00E000BF00BF00206A
:10759000F9E70000AAF0FF1FC0060020F0B5B1B067
:1075A00005460F461446142103A8FCF735FE082DA6
:1075B00001DA022F02DB002031B0F0BD1820684351
:1075C000ED4941180C207843085CC006C00F2178B3
:1075D000C906C90F48400290E84A0020616803F0DC
:1075E000E7FA60602078C007C00F00287ED060787E
:1075F000012815D1A078012812D12389394608A87D
:10760000626801F0B1FC2389394612A8626801F072
:10761000ABFC1CA802F030F826A802F02DF81EE101
:107620006078012815D1A078032812D12389394622
:1076300008A8626801F0D0FE2389394612A8626862
:1076400001F0CAFE1CA802F017F826A802F014F8F0
:1076500005E16078012823D1A078052820D10020F9
:107660000321009101902389394608A8626802F03D
:1076700019F82389394612A8626801F075FC0020C8
:10768000032100910190238939461CA8626802F009
:1076900009F82389394626A8626801F065FCDEE016
:1076A000607801282DD1A07807282AD10020042154
:1076B000009101902389394608A8626801F0F2FF21
:1076C00001200421009101902389394612A86268A3
:1076D00001F0E8FF00200421009101902389394640
:1076E0001CA8626801F0DEFF012000E0A7E0042191
:1076F000009101902389394626A8626801F0D2FFE3
:10770000ADE06078022812D1A07801280FD123893A
:10771000394608A8626801F00DFD12A801F0ACFF1F
:107720001CA801F0A9FF26A801F0A6FF97E0607849
:10773000022815D1A078022812D12389394608A839
:10774000626801F0F7FC2389394612A8626801F0EB
:107750000BFC1CA801F090FF26A801F08DFF7EE035
:107760006078022815D1A078032812D123893946E0
:1077700008A8626801F0DEFC2389394612A8626815
:1077800001F0D8FC1CA801F077FF26A801F074FFD7
:1077900065E06078032812D1A07801280FD12389F1
:1077A000394608A8626801F017FE12A801F064FFCC
:1077B0001CA801F061FF26A801F05EFF4FE0607891
:1077C000032819D1A078022816D1002003210091A6
:1077D00001902389394608A8626801F063FF238974
:1077E000394612A8626801F0BFFB1CA801F044FFF3
:1077F00026A801F041FF32E0607803281DD1A0786F
:1078000003281AD1002004210091019023893946D0
:1078100008A8626801F046FF012004210091019050
:107820002389394612A8626801F03CFF1CA801F0C8
:1078300023FF26A801F020FF11E00020BCE6FF2076
:107840002D3004F0CFFE08A801F016FF12A801F0B9
:1078500013FF1CA801F010FF26A801F00DFF2078EF
:10786000C006C00F002810D00122D207099951404C
:107870000898099108900B9951400A980B910A9029
:107880000D9951400C980D910C90029800280DD044
:107890003B49681C085C012808D1691CC8B2002259
:1078A000114600F0BDFA0A2004F090FE002643E0E5
:1078B0002820704308A9081803C803AA0191009062
:1078C00004F09AF82820704308A941188868C9680C
:1078D00004AA0191009004F08FF82820704308A9B1
:1078E00040184169006905AA0191009004F084F8EC
:1078F0002820704308A941188869C96906AA01911E
:10790000009004F079F82820704308A94018416AD3
:10791000006A07AA0191009004F06EF82801194A44
:107920008018FA0080187200815A03AB05220020EB
:1079300004F0A8F8701CC6B2042EB9DB0298002827
:107940000DD00F49681C085C012808D11E2004F0E6
:107950003DFE691CC8B20022012100F061FA182026
:107960006843054941180C207843081821460EC980
:107970000EC0012020E6000090F9FF1F00770100F3
:1079800078060020B8C40100F0B585B004460F4663
:10799000601E4000644A115A03AA012004F04EF808
:1079A0006846007B01066846407B0004091868466B
:1079B000807B000209186846C07B08180290029874
:1079C000FDF717F905460022584BFCF7CDFE49009C
:1079D0004908621ED200564B9A1803C2601EC000AE
:1079E000194609180D68496800221346284607F011
:1079F00019F904D10021601E4E4A115491E0601E15
:107A0000182148434C490918601EC0000D684B6896
:107A10004749081803C82A460191009007F034F935
:107A200027D23878322803DB0021601E414A1154E6
:107A30003878401CC0B23870642812DB00203870DF
:107A4000601E3E49085C00280BD10121601E3B4AA4
:107A5000115401220021204600F0E2F90220FDF736
:107A600059FE601E3549085C01285AD10020387043
:107A700057E0601E182148432F4941188868C9689B
:107A800001910090601EC0002949081805684168EE
:107A90002846019B009A07F029F940D2601E182160
:107AA0004843254941180869496901910090601EC1
:107AB000C0001F490818056841682846019B009AC4
:107AC00007F014F913D21E480078062811D138782F
:107AD000401CC0B238700A280BDB0020387001212E
:107AE000601E144A1154122002F0B4FC01E0002080
:107AF0003870601E1149085C012812D10021601EF7
:107B00000E4A11540F48005D01280AD10122114686
:107B1000204600F085F90320FDF7FCFD01E0002080
:107B2000387005B0F0BD000048C30100000070418E
:107B300018070020B8F0FF1F58C30100B0F0FF1F66
:107B40006CF0FF1F7806002010B53448007C032835
:107B500000D010BD32480078062800D0F9E72F4841
:107B6000807D002800D0F4E72E480078030005F05F
:107B7000FAFB08050A10161C22282E342A49012077
:107B8000FFF702FF2AE02849491C0220FFF7FCFE0C
:107B900024E02549891C0320FFF7F6FE1EE0224958
:107BA000C91C0420FFF7F0FE18E01F49091D05203D
:107BB000FFF7EAFE12E01C49491D0620FFF7E4FE2C
:107BC0000CE01949891D0720FFF7DEFE06E0164983
:107BD000C91D0820FFF7D8FE00E000BF00BF114814
:107BE00001780078401C0F4A10700C2902DB00203D
:107BF00011460870002406E00C48005D012800D101
:107C000003E0601CC4B2082CF6DB00BF082C02D1D4
:107C1000122002F063FA00BF9BE70000C0060020BC
:107C20006CF0FF1FC0F0FF1FC1F0FF1FB8F0FF1F77
:107C300010B50446002C00D110BD0B4A0B4920465C
:107C400001F0A6FE002800D1F6E70121084600F069
:107C5000B1FC611ECA000649501808220349091DDB
:107C600006F0DCFE0120E7E7AC0D0000E0F8FF1FA6
:107C70009006002010B544220449002001F088FE3F
:107C8000002800D110BD0120FCE700008C06002078
:107C900010B500211AE0002014E0002903D00028CC
:107CA00001D0814206D190240B224A43094BD218BD
:107CB000145405E000240B224A43064BD2181454F6
:107CC000421C90B20B28E8DB4A1C91B20929E2DB86
:107CD00010BD00002CF9FF1FF0B585B0074600204D
:107CE0000490002427E03846FCF78BFF0022144B59
:107CF00003910290FCF715FD05460E460022114B3C
:107D000028463146FCF730FD02460B4601910090B3
:107D100000200D4906F070F904AA0391029003F0C7
:107D20006BFE6000094A115A04AB0122002003F0E7
:107D3000A9FE601CC4B20A2CD5DB012005B0F0BD41
:107D40000000624000003440000024404AC50100A9
:107D500070B588B005460C4600200590082D01DC62
:107D6000002D02D1002008B070BD002636E0217839
:107D7000BA22002002F01CFF20702078FCF741FF9F
:107D80000022184B03910290FCF7CBFC0791069060
:107D90000022154B07990698FCF7E6FC02460B46B5
:107DA000019100900020114906F026F905AA0391DF
:107DB000029003F021FE68000D4A105A801981B22A
:107DC00005AB0122002003F05DFE22780B20684302
:107DD00008494118701C0A54641CC6B20A2EC6DB3E
:107DE0000120C0E700006240000034400000244051
:107DF00038C501002CF9FF1F70B504460D46002D53
:107E000001D0012000E00020064600223146204635
:107E100000F006F80148065570BD00007806002005
:107E2000F8B504460D461646002000906846C57019
:107E3000082C00DDF8BD002D08D1002E06D1002150
:107E4000204600F051FC0A2004F0C0FB6000124AFA
:107E5000115A6B460422002003F08AFE012D18D12E
:107E6000002C0DD00D48007E002809D10A48018859
:107E70006B460422002003F07BFE012007490876B0
:107E8000002E06D10A2004F0A1FB0121204600F0BB
:107E90002BFC00BFCEE70000C2C501006006002039
:107EA00070B504460D46002D01D0012000E00020F1
:107EB0000646012231462046FFF7B2FF014806552B
:107EC00070BD000078060020002004E00121034A74
:107ED0001154411C88B20928F8DB7047780600204D
:107EE00010B500210846FEF747FE00240AE00022F4
:107EF0001820604315490A54182060434018027343
:107F0000601C84B2082CF2DB00210720FFF774FF0D
:107F100000210820FFF770FF00200D490872C8718A
:107F20000021084600F046FB002408E001F018F8A4
:107F3000611CC8B20121FEF7B1FE601C84B2082C9E
:107F4000F4DB9220FFF7C8FE10BD000090F9FF1F80
:107F50007806002010B502210B488175417CC1755F
:107F6000012252020A21032003F00AFC012107200A
:107F7000FFF742FF01210820FFF73EFF01200249E1
:107F800048390872C87110BDC006002038B50446D3
:107F90000D4600200090082C01DC002C00D138BDDB
:107FA00008222946002002F003FE6946C8700B48EB
:107FB0004078012805D16846C0780949095C6846BF
:107FC000C1706000074A115A6B460422002003F07A
:107FD000CFFD0548055500BFE1E7000010F1FF1F88
:107FE000D2C20100DCC2010081060020012003E0B2
:107FF000034A1054411C88B20928F9DB704700007D
:108000008106002010B52648007C030005F0ABF97E
:10801000060405213B3C40443FE005F059FD01F0DA
:10802000ABFE1F48407C002806D002201C49887502
:108030000846407CC87508E00121084600F0BAFAFD
:1080400000220A21032003F09BFB02211448017443
:1080500023E01348807D002814D105211048817544
:1080600003220121104603F08BFB0D48407C0028C1
:1080700005D17F2252020A21032003F081FB032055
:108080000749087409E008E005200549087404E080
:1080900000200349087400E000BF00BF10BD0000CD
:1080A000C006002070B504460D46082C00DD70BDEA
:1080B000E200044950180822294606F0AFFC00BF30
:1080C000F5E70000E4F8FF1F10B500240AE0E20025
:1080D000064BD118E300064A9818082206F09EFCC9
:1080E000601C84B2092CF2DB10BD0000EEC201005E
:1080F000E4F8FF1FF8B505460F46082D00DDF8BD72
:10810000002D06D11948C28A3946002002F050FDE0
:1081100087B26900154A921C505A6421FCF788F80E
:1081200084B264213846FCF783F886B215E0B44285
:1081300002DD601E84B203E0B44201DA601C84B246
:108140006420604381B2284600F012F8B44204D1A2
:108150003946284600F00CF800E0E8E700BF680068
:108160000249891C0F5200BFC9E7000060060020C9
:10817000F0B589B004460F4622A0006803907D2226
:1081800092013946002002F013FD87B23846FCF711
:1081900038FD054600221C4BFCF7C3FA00221B4B9E
:1081A00001910090FCF7E0FA079106900022184B2D
:1081B00007990698FCF7D8FA05462A460B46002090
:1081C000144905F019FF059104906000124A105AF5
:1081D000401C81B203AB0422002003F0C9FC03AAB7
:1081E0000599049803F008FC60000B4A115A03AB90
:1081F0000122002003F046FC012004F0E7F909B059
:10820000F0BD00000000208A0040BF40000059403F
:1082100000003440000024405EC5010010B57D21FF
:108220008901094A5180012007E07D21890142002E
:10823000054B9B1C9952411C88B20928F5DB7D2116
:108240008901014AD18210BD6006002010B50446A4
:10825000002C00D110BD094A0949204601F088FCD4
:10826000002800D1F6E7611ECA000649501808220E
:108270000349091D06F0D2FB0120EBE7AC0D00001D
:10828000E0F8FF1F9006002010B572480088401CDF
:10829000704908807048807D030005F064F8070588
:1082A000092C5B87ABC0D80000206A490880CFE06A
:1082B00068480088FF21783188420ADD01F02AFEF3
:1082C000002065498875FF2212020A21032003F06D
:1082D00057FA6149C87DFFF7B9FF00280AD000208E
:1082E0005C49088006205C4988750846C07D487452
:1082F00001F006FEACE057480088FF217831884243
:108300000CDD01F0EBFD002153488175FF221202C4
:108310000A21032003F034FAFEF76EFC4E49C87DB3
:10832000FFF786FC002814D000214B488175C07DE2
:108330004949487401F0E4FDFEF7E4FA00220A21FD
:10834000032003F01DFA7F2252020A21032003F0CA
:1083500017FA7DE03F4800887D21C90088420FDD83
:1083600001F0BCFD00203C498875FF2212020B2160
:10837000032003F005FA3849C87D0121FFF7DAF838
:108380003549C87D0021FFF7D5F800280DD0002021
:108390003149887500220A21032003F0F1F97F2278
:1083A00052020A21032003F0EBF951E0294800882A
:1083B0007D21C90088420ADD01F0ACFD002026497C
:1083C0008875FF2212020B21032003F0D9F92249FC
:1083D000C87DFEF753FF00280BD000201D49088000
:1083E00006201D4988757F2252020A21032003F0CE
:1083F000C7F92DE017480088FF217831884206DD53
:1084000001F06CFDFEF7E4FB002013498875FFF7CF
:1084100031FC002802D000200F49887518E00D4873
:108420000088FF217831884204DD01F073FD0021CE
:108430000948817500F012F8002807D0002106488D
:10844000817500220A21032003F09AF900E000BFA1
:1084500000BF10BDAEF0FF1FC006002010B54422C3
:108460000449002001F084FB002800D110BD012048
:10847000FCE700008C06002010B500201C49487461
:1084800001F03EFD01210846FEF776FB7D208001CC
:10849000174960394880C88200240AE00022182069
:1084A000604314490A541820604340180273601C4A
:1084B00084B2082CF2DB0121084600F07BF800248E
:1084C00008E000F04DFD611CC8B20121FEF7E6FB9B
:1084D000601C84B2082CF4DB00220A21032003F084
:1084E0004FF97F2252020A21032003F049F910BDFF
:1084F000C006002090F9FF1FFEB505460C46A542B8
:1085000007D0082D05DC082C03DC002D01D0002C41
:1085100001D10020FEBD681E18214843234942189E
:1085200007CA6B4607C36946087810218843611E55
:10853000182251431D4A515CC906C90F0901102276
:108540001140084369460870611EC8B26A4600219E
:10855000FFF724F8691E18235943144BC9180A461B
:108560000C32611EC8B20121FFF718F8002612E094
:1085700000F0F6FC6B1EFF2781377B430B4FC037A3
:10858000DB190C277743DA19F1B2631ED8B2FEF774
:10859000BDFD701C86B2202EEADB6800044A115A29
:1085A0002046FFF7A7FD0120B4E7000090F9FF1F68
:1085B00062060020F8B506460F460220FDF7AAF82D
:1085C000122001F08BFD002E0DD0012409E00B22BA
:1085D0006243414BD218511CE0B2FFF7B9FB601C5B
:1085E00084B2092CF3DB9620FFF776FB002417E01A
:1085F00000F0B6FC18216143374B6433CA18E0B26F
:108600000021FEF7CBFF18216143334B6433C918B7
:108610000A460C32E0B20121FEF7C0FF601C84B2B2
:10862000082CE5DB012408E060002C4A115AE0B276
:108630000090FEF7FDFA601C84B2092CF4DB002FD9
:108640000DD0002409E06100244A1232515AE0B2F0
:108650000091FFF74FFD601C84B2092CF3DB00246E
:1086600007E01E4A2832115DE0B2FFF719FC601CDA
:1086700084B2092CF5DB002407E0184A3132115D81
:10868000E0B2FFF783FC601C84B2092CF5DB002408
:1086900016E0002510E000F063FCFF20813060430D
:1086A0000F4BC0180C236B43C218E9B2E0B2009024
:1086B000FEF72CFD681C85B2202DECDB601C84B21B
:1086C000082CE6DBFEF71EF906480078062802D1E2
:1086D0000320FDF71FF8F8BD2CF9FF1F50060020FE
:1086E00050FAFF1F6CF0FF1FF8B506460F46002F2B
:1086F00008D17100174A505A6421FBF799FD84B2E2
:10870000002509E0012F07D100247100114A505AB9
:108710006421FBF78DFD85B219E0AC4202DD601EDD
:1087200084B203E0AC4201DA601C84B2642060438E
:1087300081B23046FFF71CFDAC4208D1012F05D1B4
:108740007000044A115A3046FFF712FD00E0E4E7DA
:1087500000BFF8BD62060020FFB597B004460F4683
:108760001A98FCF74EFA0022814B03910290FBF716
:10877000D8FF00227F4B05910490FBF7F5FF159180
:1087800014902098FCF73DFA00227A4B0591049052
:10879000FBF7EAFF139112903846FCF732FA0022F9
:1087A000754B03910290FBF7BCFF0022714B0591C2
:1087B0000490FBF7D9FF119110901998FCF721FA5A
:1087C0000F910E9000226D4B11991098FBF7CCFF82
:1087D00002460B46059104900020694905F00CFC07
:1087E0000D910C9067480CC8002001218907FCF707
:1087F0000BFA039102900F9B0E9AFCF705FA059174
:10880000049061480CC80498FBF7AEFF0B910A90E6
:10881000002001218907139B129AFCF7F5F90591B5
:1088200004900B990A9806F013F903910290059BA6
:10883000049AFBF799FF099108900022534B159970
:108840001498FBF791FF02460B4605910490002017
:108850004B4905F0D1FB079106900D9B0C9A0999A5
:108860000898FBF781FF0022494B05910490FBF724
:108870004BFF05460E460D9B0C9A09990898FCF78C
:10888000C3F90022424B01910090FBF755FF039181
:108890000290079B069AFCF7B7F92A4633460591E2
:1088A0000490FBF761FF6160206008340B990A981F
:1088B00005F0C2F8002201239B0701910090FCF70C
:1088C000A3F90122D207514003910290079B069A17
:1088D000FCF79AF92A46334605910490FBF744FFCA
:1088E0006160206008340D9B0C9A09990898FCF788
:1088F0008BF90022264B01910090FBF705FF0391B5
:108900000290079B069AFCF77FF92A4633460591A9
:108910000490FBF729FF6160206008340D9B0C9ADE
:1089200009990898FBF720FF0022194B0391029048
:10893000FBF7F7FE2A46334605910490FBF714FF38
:108940006160206008340B990A9805F075F80022E0
:1089500001239B0703910290FCF756F92A46334600
:1089600005910490FBF700FF616020601BB0F0BD33
:10897000007097400000594000C0A24000004440F1
:1089800000002440B8C20100B0C201000000344021
:108990000000F03F10B50120FEF70AF80322022183
:1089A000002002F0EDFE10BD10B50220FCF7B2FE73
:1089B000042011490870002003F0D0FA0020FCF7D1
:1089C00005FC292001F08AFB072001F087FB062027
:1089D00001F084FB282001F081FB08484068012158
:1089E0000904884305494860084640680003C00FF1
:1089F0000349087010BD00001CF7FF1F10F1FF1F96
:108A000082F0FF1F10B50021232001F087FB2320F7
:108A100001F020FD10BDF8B506460C4615461F4670
:108A2000232001F05BFB3146002003F031FA2002E5
:108A3000010E002003F02CFA2004010E002003F0A8
:108A400027FAE1B2002003F023FA05E0FF2100201D
:108A500003F01EFA28706D1C3846791E8FB200286C
:108A6000F4D1232001F0F6FCF8BDF8B505460C461C
:108A700016461F46232001F031FB2946002003F053
:108A800007FA2002010E002003F002FA2004010E72
:108A9000002003F0FDF9E1B2002003F0F9F903E052
:108AA0003146002003F0F4F93846791E8FB20028D1
:108AB000F6D1232001F0CEFCF8BD70B505460C467A
:108AC000232001F00BFB2946002003F0E1F92002EE
:108AD000010E002003F0DCF92004010E002003F059
:108AE000D7F9E1B2002003F0D3F9232001F0B2FC62
:108AF00070BDF8B506460C4615461F46232001F00A
:108B0000EDFA3146002003F0C3F92002010E0020E7
:108B100003F0BEF92004010E002003F0B9F9E1B220
:108B2000002003F0B5F904E029786D1C002003F063
:108B3000AFF93846791E8FB20028F5D1232001F015
:108B400089FCF8BD10B50446232001F0C7FA214680
:108B5000002003F09DF9232001F07CFC10BD027879
:108B60000B785A4002700A7803785A400A700278EB
:108B70000B785A400270704700B50346184608301B
:108B800002F09AFD586801F04DFE17480078042164
:108B900088431549087008460078C0218843803012
:108BA0001149087008464078102188430E494870E2
:108BB00000BF0D4800790C21084080080228F8D138
:108BC00000BF09480079102108400028F9D1064863
:108BD0004078E021884304494870084600798021A4
:108BE00008430149087100BD0040064000B5034636
:108BF0001846083002F060FD586801F013FE104876
:108C00000078042188430E49087000BF0C480079A1
:108C1000102108400028F9D100BF094800794021FF
:108C200008400028F9D006484078E02188430449EC
:108C3000487008460079802108430149087100BD49
:108C40000040064000B503461846083002F034FDE7
:108C5000586801F0E7FD10480078042188430E4968
:108C6000087000BF0C480079102108400028F9D195
:108C700000BF09480079402108400028F9D0064883
:108C80004078E021884304494870084600798021F3
:108C900008430149087100BD0040064010B5034675
:108CA00000249807800F002802D01E4C204610BDDB
:108CB00030201D494871002048700A20487218026F
:108CC000000E0872012048700B721804000E4872E2
:108CD000012000F073F81448407920210840002852
:108CE00002D01048C01D04430F48407910210840AD
:108CF000002802D00B480F3004430B484079C007CE
:108D0000C00F002802D007481030044306484079BD
:108D100002210840002802D00248113004432046B6
:108D2000C5E70000013000000000024070B50646B3
:108D300000241F493046FBF771FA401EC5B21D489A
:108D4000407980210840002803D11B480443204675
:108D500070BD1848C0784021084000281AD1154835
:108D6000C0788021084000280AD01248C0788006C8
:108D7000800EA906890E884202D00F48001D0443C8
:108D80000C48C07880098001A906890E084309496A
:108D9000C8700AE00748C0788006800EA906890ED0
:108DA000884202D00448001D04432046D0E700005A
:108DB00040420F0000000240143000000949C96819
:108DC000012212041143074AD1608021064A5171E1
:108DD000002806D000BF04494979802211400029AB
:108DE000F9D07047003000F00000024030B5034673
:108DF0000C4600259807800F002802D0244D2846F5
:108E000030BD302023494871002048700620487248
:108E10001802000E0872012048700B721804000E30
:108E20004872022048702004000E48720C72032021
:108E30004870200E48722002000E08720120FFF7D1
:108E4000BDFF1448407920210840002802D0104876
:108E5000C01D05430F48407910210840002802D06A
:108E60000B480F3005430B484079C007C00F00285E
:108E700002D00748103005430648407902210840D7
:108E8000002802D00248113005432846B8E7000008
:108E9000013000000000024070B503460C46154644
:108EA00000269807800F002802D02B4E304670BD58
:108EB00030202A4948710020487006204872180264
:108EC000000E0872012048700B721804000E4872E0
:108ED000022048702004000E48720C720320487073
:108EE000200E48722002000E0872042048702804E8
:108EF000000E48720D7205204870280E4872280234
:108F0000000E08720120FFF759FF14484079202114
:108F10000840002802D01048C01D06430F48407981
:108F200010210840002802D00B480F3006430B48A0
:108F30004079C007C00F002802D007481030064310
:108F40000648407902210840002802D0024811302A
:108F500006433046ABE7000001300000000002404D
:108F600010B504F07FF910BDFFB58FB004460F4671
:108F70001198FBF746FE039102906A480CC8002046
:108F800001218907FBF740FE01910090039B029AA3
:108F9000FBF73AFE0591049063480CC80498FBF770
:108FA000E3FB0D910C900D990C9805F051FD0B9180
:108FB0000A900D990C9804F03FFD09910890099BC7
:108FC000089A0B990A98FBF79FFB0022574B0591D3
:108FD0000490FBF799FB0791069014211298FBF778
:108FE00027F90390FBF705FE02460B460591049016
:108FF00000204F4905F000F805460E46002F50D1DD
:10900000002121606160083400204849099B089ACA
:10901000FBF77AFB039102900120C0077040009596
:1090200001900B462846029A0199FBF7EDFD059148
:109030000490079B069AFBF797FB61602060083459
:1090400000203A49099B089AFBF75EFB2A46334603
:1090500003910290FBF7D8FD05910490079B069AB7
:10906000FBF782FB616020600834002121606160B1
:109070000834099B089A0B990A98FBF752FB0022C7
:109080002A4B03910290FBF74CFB0122D20751407F
:1090900005910490079B069AFBF766FB61602060D0
:1090A0003DE0012F3BD1002121606160083428465A
:1090B00031460B9B0A9AFBF7A7FD05910490079B8D
:1090C000069AFBF751FB6160206008342846314660
:1090D0000B9B0A9AFBF798FD05910490079B069A53
:1090E000FBF742FB61602060083400212160616071
:1090F0000834099B089A0B990A98FBF712FB002287
:109100000A4B03910290FBF70CFBFA0751400591C3
:109110000490079B069AFBF727FB6160206013B061
:10912000F0BD0000B8C20100B0C201000000F03F75
:1091300000002440FFB591B004460F461398FBF79A
:1091400060FD039102909F480CC80020012189070F
:10915000FBF75AFD01910090039B029AFBF754FD27
:109160000591049098480CC80498FBF7FDFA0B9100
:109170000A900B990A9805F06BFC099108900B99DD
:109180000A9804F059FC0791069000208F4905F0D9
:10919000ADFC02460B460191009000208C49FBF784
:1091A000E3FA002201239B0703910290FBF72CFDB9
:1091B00002460B460591049009990898FBF7D4FAEA
:1091C0000D910C90002082490D9B0C9AFBF79CFAA4
:1091D00005460E4614211498FBF72AF80390FBF776
:1091E00008FD02460B46059104900020794904F0E1
:1091F00003FF0F910E90002F74D100207449079B3C
:10920000069AFBF781FA2A46334601910090FBF754
:10921000ABFA039102900F9B0E9AFBF7F5FC00222C
:1092200001239B0705910490FBF79EFA6160206083
:10923000083400206649079B069AFBF765FA01226D
:10924000D2074A40039202902A4633460399FBF71D
:109250008BFA059104900F9B0E9AFBF7D5FC616089
:109260002060083400205A49079B069AFBF74CFA05
:109270002A46334601910090FBF776FA039102905B
:109280000F9B0E9AFBF7C0FC002201239B07059160
:109290000490FBF769FA61602060083400204C49B3
:1092A0000D9B0C9AFBF73DFA0122D2074A4005922A
:1092B00004902A4633460599FBF756FA6160206010
:1092C0000834002001218907079B069AFBF79CFCC4
:1092D0002A46334605910490FBF746FA6160206008
:1092E0006DE0FFE7012F6AD100203949079B069AFC
:1092F000FBF717FA2A46334601910090FBF734FA40
:10930000039102900F9B0E9AFBF77EFC0022BB0795
:1093100005910490FBF728FA616020600834002072
:109320002B49079B069AFBF7FCF92A463346039123
:109330000290FBF719FA059104900F9B0E9AFBF728
:1093400063FC61602060083400202149079B069A75
:10935000FBF7E7F92A46334601910090FBF704FA40
:10936000039102900F9B0E9AFBF74EFC0022BB0765
:1093700005910490FBF7F8F9616020600834002043
:1093800013490D9B0C9AFBF7CCF9FA074A4005925A
:1093900004902A4633460599FBF7E6F961602060A0
:1093A00008340020B907079B069AFBF72DFC2A46D4
:1093B000334605910490FBF7D7F96160206015B042
:1093C000F0BD0000B8C20100B0C2010000000840BA
:1093D0000000F03F00002440FFB593B004460F4664
:1093E0001598FBF70EFC079106909F480CC80020CB
:1093F00001218907FBF708FC03910290079B069A5D
:10940000FBF702FC0591049098480CC80498FBF700
:10941000ABF90D910C900D990C9805F019FB0B917F
:109420000A900D990C9804F007FB09910890002010
:109430000121890705F05AFB02460B460191009075
:1094400000208B49FBF790F9002201239B07039131
:109450000290FBF7D9FB02460B46059104900B994D
:109460000A98FBF781F90F910E90002080490F9B1D
:109470000E9AFBF749F905460E4614211698FAF79D
:10948000D7FE0390FBF7B5FB02460B46059104900F
:109490000020784904F0B0FD11911090002F74D194
:1094A00000207349099B089AFBF72EF92A46334698
:1094B00001910090FBF758F903910290119B109ACB
:1094C000FBF7A2FB002201239B0705910490FBF709
:1094D0004BF961602060083400206549099B089AB7
:1094E000FBF712F90122D2074A40039202902A4662
:1094F00033460399FBF738F905910490119B109AB4
:10950000FBF782FB61602060083400205849099B0A
:10951000089AFBF7F9F82A46334601910090FBF7C9
:1095200023F903910290119B109AFBF76DFB002227
:1095300001239B0705910490FBF716F961602060F9
:10954000083400204A490F9B0E9AFBF7EAF80122E3
:10955000D2074A40059204902A4633460599FBF704
:1095600003F9616020600834002001218907099B0C
:10957000089AFBF749FB2A46334605910490FBF70E
:10958000F3F8616020606DE0FFE7012F6AD10020F1
:109590003749099B089AFBF7C4F82A4633460191DC
:1095A0000090FBF7E1F803910290119B109AFBF7F2
:1095B0002BFB0022BB0705910490FBF7D5F86160F7
:1095C0002060083400202A49099B089AFBF7A9F873
:1095D0002A46334603910290FBF7C6F805910490A2
:1095E000119B109AFBF710FB61602060083400208B
:1095F0001F49099B089AFBF794F82A4633460191C4
:109600000090FBF7B1F803910290119B109AFBF7C1
:10961000FBFA0022BB0705910490FBF7A5F86160F7
:1096200020600834002012490F9B0E9AFBF779F84E
:10963000FA074A40059204902A4633460599FBF7FB
:1096400093F86160206008340020B907099B089AEC
:10965000FBF7DAFA2A46334605910490FBF784F8C3
:109660006160206017B0F0BDB8C20100B0C2010057
:109670000000F03F000024400022026042600830F9
:1096800002604260083006490260416008300021F3
:10969000016041600830026042600830704700009D
:1096A0000000F03FFFB595B004460F461798FBF752
:1096B000A8FA05910490B1480CC80020012189073F
:1096C000FBF7A2FA03910290059B049AFBF79CFA20
:1096D00007910690AA480CC80698FBF745F80F9129
:1096E0000E900F990E9805F0B3F90D910C900F990B
:1096F0000E9804F0A1F90B910A901F98FBF781FADC
:109700000022A04B03910290FAF7FEFF079106900A
:109710001E98FBF776FA02460B4603910290974992
:1097200003C9FBF721F805910490079B069AFBF704
:109730006BFA099108900999089805F089F90022B7
:1097400001239B0701910090FBF75EFA02460B464E
:109750000391029000208C49FBF706F800220123B8
:109760009B0705910490FBF74FFA02460B460791C1
:1097700006900D990C98FAF7F7FF119110900020C0
:109780008149119B109AFAF7BFFF05460E46142136
:109790001898FAF74DFD0590FBF72BFA02460B4699
:1097A000079106900020794904F026FC139112904D
:1097B000002F74D1002074490B9B0A9AFAF7A4FF7A
:1097C0002A46334603910290FAF7CEFF05910490A2
:1097D000139B129AFBF718FA002201239B070791AB
:1097E0000690FAF7C1FF61602060083400206649E6
:1097F0000B9B0A9AFAF788FF0122D2074A4005928A
:1098000004902A4633460599FAF7AEFF0791069071
:10981000139B129AFBF7F8F961602060083400206E
:1098200059490B9B0A9AFAF76FFF2A463346039170
:109830000290FAF799FF05910490139B129AFBF797
:10984000E3F9002201239B0707910690FAF78CFFAA
:1098500061602060083400204B49119B109AFAF790
:1098600060FF0122D2074A40079206902A463346FB
:109870000799FAF779FF6160206008340020012120
:1098800089070B9B0A9AFBF7BFF92A4633460791D3
:109890000690FAF769FF616020606DE0FFE7012F35
:1098A0006AD1002038490B9B0A9AFAF73AFF2A46F8
:1098B000334603910290FAF757FF05910490139BEA
:1098C000129AFBF7A1F90022BB0707910690FAF75D
:1098D0004BFF61602060083400202B490B9B0A9AE3
:1098E000FAF71FFF2A46334605910490FAF73CFF2A
:1098F00007910690139B129AFBF786F9616020602E
:109900000834002020490B9B0A9AFAF70AFF2A46DE
:10991000334603910290FAF727FF05910490139BB9
:10992000129AFBF771F90022BB0707910690FAF72C
:109930001BFF61602060083400201349119B109ABE
:10994000FAF7EFFEFA074A40079206902A46334696
:109950000799FAF709FF6160206008340020B90711
:109960000B9B0A9AFBF750F92A463346079106905B
:10997000FAF7FAFE6160206019B0F0BDB8C20100CC
:10998000B0C201000000E03F0000F03F00002440B2
:10999000F7B584B00E46144635465F494878C10F86
:1099A000091849100A0204990903511802915A48EA
:1099B0004078FF2806D058494878C10F0918491047
:1099C00009024D19544A5278D30F01929A18521035
:1099D000521CE11DF831CB171B0E5B181B129A426B
:1099E00002DAFF22013206E02046C217120E1218D8
:1099F00012121202821A92B203924748407810283B
:109A000031D00BDC030003F0AEFC10263E273F28CC
:109A10004029412A422B432C442D458319283ED00E
:109A200008DC1138030003F09EFC08361F3720388D
:109A3000213922731D2834D006DC1A2818D01B289F
:109A40002ED01C2864D114E01E2813D01F2829D042
:109A5000FF285DD144E000BF00BF00BF00BF00BFD2
:109A600000BF00BF00BF00BF00BF00BF00BF00BFFE
:109A700000BF00BF0620FFF765F827484078401C6C
:109A80002549487045E000BF00BF00BF00BF00BFD0
:109A900000BF00BF00BF00BF00BF00BF00BF00BFCE
:109AA00000BF00BF2A460320039B0299FEF7B3FFC5
:109AB000E01DF830184A5178CA0F52185210521C43
:109AC000C3171B0E1B181B129A4203D1FF20124909
:109AD000487004E010484078401C0F49487018E076
