:020000040000FA
:10400000200E0020834100008F41000091410000FC
:1040100000000000000000000000000000000000A0
:1040200000000000000000000000000093410000BC
:1040300000000000000000009541000071C6000073
:104040009941000099410000994100009941000008
:1040500099410000994100009941000071AB0000B6
:10406000994100009941000095BF000097BF0000F2
:1040700039D1000043D100004DD100008D52000025
:1040800099410000994100009941000099410000C8
:1040900099410000994100009941000099410000B8
:1040A000CDAB00009941000099410000994100000A
:1040B0009941000099410000994100009941000098
:1040C00000F002F800F030F80CA030C808382418CE
:1040D0002D18A246671EAB4654465D46AC4201D140
:1040E00000F022F87E460F3E0FCCB6460126334242
:1040F00000D0FB1AA246AB4633431847148B01008D
:10410000348B01000023002400250026103A01D33F
:1041100078C1FBD8520700D330C100D50B6070477F
:104120001FB51FBD10B510BD00F0A6FF1146FFF76B
:10413000F7FF0AF091F800F0BEFF03B4FFF7F2FFBB
:1041400003BC00F0F1FF000070B505460C461646B2
:1041500002E00FCC0FC5103E102EFAD2082E02D36B
:1041600003CC03C5083E042E07D301CC01C5361F7E
:1041700003E021782970641C6D1C761EF9D270BD95
:104180007047094880470948804709480047FEE7CB
:10419000FEE7FEE7FEE7FEE7FEE70000054806490A
:1041A000044A064B7047000005CA00008141000028
:1041B000C140000020090020200E0020200900201E
:1041C00001E004C0091F0429FBD28B0701D502803E
:1041D000801CC90700D00270704700290BD0C307AC
:1041E00002D00270401C491E022904D3830702D565
:1041F0000280801C891EE3E70022EEE70022DFE751
:10420000002203098B422CD3030A8B4211D30023D3
:104210009C464EE003460B433CD4002243088B42AD
:1042200031D303098B421CD3030A8B4201D394463A
:104230003FE0C3098B4201D3CB01C01A524183092D
:104240008B4201D38B01C01A524143098B4201D3E7
:104250004B01C01A524103098B4201D30B01C01A12
:104260005241C3088B4201D3CB00C01A524183088C
:104270008B4201D38B00C01A524143088B4201D3B9
:104280004B00C01A5241411A00D201465241104619
:1042900070475DE0CA0F00D04942031000D340428E
:1042A000534000229C4603098B422DD3030A8B42C4
:1042B00012D3FC22890112BA030A8B420CD3890162
:1042C00092118B4208D3890192118B4204D3890148
:1042D0003AD0921100E08909C3098B4201D3CB0186
:1042E000C01A524183098B4201D38B01C01A52413B
:1042F00043098B4201D34B01C01A524103098B423F
:1043000001D30B01C01A5241C3088B4201D3CB0029
:10431000C01A524183088B4201D38B00C01A52410C
:10432000D9D243088B4201D34B00C01A5241411AE3
:1043300000D20146634652415B10104601D3404211
:10434000002B00D54942704763465B1000D34042C2
:1043500001B50020C046C04602BD70477047704797
:1043600030B50346CA02400D1043164D164C0A15CF
:1043700002D02043002A06DBAA1A002A12DDD04010
:10438000FF2A0BDC30BD5205520D01D14000400820
:10439000AA1A07D4D0404042FF2A01DD002030BDD8
:1043A0000028FCDD4A00002B01D0012000E00020A5
:1043B000101801225205D042F0D8C817C0436040FF
:1043C00030BD00001E0400000000008010B500F0A9
:1043D00009F8006810BD10B5044600F003F8046049
:1043E00010BD000000487047C008002010B5002034
:1043F0000249029A00F067FE10BD00000000F87F3D
:10440000FFFFFFFFFFFFFFFFFFFFFFFFFFFFFEFEBE
:10441000F0B50C46871A9C410D46861A9D4103D281
:10442000C01BA141D21963410D0D1F0DC94EEC1BDC
:10443000AE435CD07F057F0D0026002F51D02D05A7
:10444000AC46A943DD020123ED0A1B051D432023D1
:104450001B1B24D41746E740381871412F46E7400C
:10446000CC199D402818314661410C0D27D161447B
:104470009A4013D50023401C594152000ED14008E8
:10448000400001224B005205D34207D305204007CC
:10449000C14201D5B04900E0B0493046F0BD6B00E3
:1044A000002A00D001229A181F23203C1B1B01D593
:1044B000002302E0E540281871410C0DD7D00124FB
:1044C00024050919C407CD0740084908E40F28430B
:1044D0006144002CD5D00024401C61419A40D0D1C9
:1044E000CDE76A05520DD9D1C90FC907D5E79C4D53
:1044F0004E00002801D0012400E0002434195F00A0
:10450000002A01D0012600E00026BE19954FAC42DA
:104510000CD8AE420AD8B44206D001256D05EC4253
:10452000BCD010461946F0BD9942FCD00020394657
:10453000F0BDF0B51FB40C460F46811A9F412546C9
:10454000861A9D4106D20125ED076F40401ABC41F5
:1045500052187B41210D1E0D8D1BAC467D4D8D43A8
:104560007ED075056D0D7CD00D05AE46AC431B03AA
:104570001B0B794D52429D41202366469B1B14D351
:104580001746F740381800260090744160462F46C1
:104590000741E41900989D402818664116D47146D9
:1045A00071189A4025D5012320E093182A466A41C4
:1045B0005200002B00D0521C1E23203E9B1B002BC0
:1045C00061DD3541EE1728186641E8D500187641BF
:1045D0005B1C9A4000D3401C4B05F3181524E340A4
:1045E00010D3002B52D071467118D30FC01802D3CC
:1045F000491C05B0F0BD0123DB079A42F9D1400800
:104600004000F6E701225205B21801D1002853D02C
:104610000123CC0ADB029943891E002A08D1020C2F
:1046200003D0020C0004103902E0024600202039B9
:104630000023550B05D112020823550B01D152015D
:104640000D23550C01D112011B1DD50C01D1920077
:104650009B1C150D01D152005B1C2025EE1A01E0B8
:104660002CE022E00546F54015439840CA1AE107C0
:1046700069181305C918002ABBDA03204007081877
:10468000C10FC9070FE071466118B2E7F107400892
:104690000843711071444A000CD001235B059A4213
:1046A000A7D2C90FC9070020A3E74905490D26D1A4
:1046B000002001E00028F4D100219AE7284D66008F
:1046C000002801D0012100E0002171185F00002ABC
:1046D00001D0012600E00026BE19224FA94210D8C1
:1046E000AE420ED8B14208D001256D05E94206D090
:1046F0001946A802414010467BE79C4201D0214662
:1047000077E70020394674E710B50C465C4005D5C4
:104710000124E4076340FFF70CFF10BDFFF778FEAC
:1047200010BD30B40C465C4004D50124E40763405E
:1047300030BC6DE630BCFCE670B50124E407614096
:104740000D465D4002D4FFF763FE70BD6340FFF786
:10475000F0FE70BDFF0700000000F0FF0000F07FDA
:104760000000E0FF0000F87FF0B5F94D0C091E09CC
:104770002C402E402F468BB0A7437DD0B543FCD0B4
:10478000002E7AD0002CFCD00D465D40ED0F254365
:10479000AC1BFF25AD0464190894C502440DC90281
:1047A0002143500DDC0204430120C00701430443B0
:1047B000D2020191200C110C00958C460104234675
:1047C0008B430A9161460904E24D8A430991010A2B
:1047D0007D4449198039097805464D4301266D18F5
:1047E000F605751B6943C90C640B891C4C4364189E
:1047F000B5012C1B250C2E04B4434C434D43210C16
:10480000691889090591009DE90701D00121C907AF
:1048100004912C4601996708CD072F434C08059D4C
:10482000E10B4D432D0C29466646754302950D4616
:1048300045432E46029D7D1BB44100950D465D43C8
:1048400001942C0C2F040D465543AE462D0C3D43D0
:10485000029503947546049C2D04641B049406D2AF
:10486000029C039D641C002675410395029401ACD3
:1048700070CC009F7D1B01E03EE162E1B441090480
:104880000095079101940599A4086143090C0C4611
:104890004443650BE7040C4666467443A646640B26
:1048A0003C43039502947446049DE4042C1B049439
:1048B00006D2029C039D641C002675410395029458
:1048C00001AC70CC009F7D1BB44101940C465C434D
:1048D0000095650FE7000C465443A646640F3C4321
:1048E000039502947446049DE4002C1B049406D2A4
:1048F000029C039D641C002675410395029401AC43
:1049000070CC009F7D1BB441AE09AF06049DC90069
:10491000AD092F43049DA406AD060495079D3443BD
:1049200069180791059DE10B4D432D0C29466646FC
:10493000754302950D4645432E46029D7D1BB441AD
:1049400000950D465D4301942C0C2F040D465543F4
:10495000AE462D0C3D43029503947546049C2D04F0
:10496000641B049406D2029C039D641C00267541BE
:104970000395029401AC70CC009F7D1BB44101945F
:104980008C050694079C890A611800950791019C83
:104990000599A4086143090C0D464543680BEF04D3
:1049A0000D46644665436C0B3C43049FED047D1B40
:1049B000AC4602D20025641C6841009E019D371B55
:1049C00085410846584301950C46460FC50054439F
:1049D000600F28436546E4002C1B02D20025401CD2
:1049E0006E41019D3F1AB5412846BD098006284306
:1049F0008446A009BF064E020699A406761807430E
:104A0000079D002068410A99079019430020099BDF
:104A100000906046FF1913434041E20F64003A439F
:104A2000A4460446D71A8C41A04203D90120009025
:104A300020463A46C70F941840416246D20F22439F
:104A4000644664000494009CBE466400D71AA446E1
:104A5000044602978C417746002F01D1A04204D929
:104A60006046401C8446029A2046C40FA64694180D
:104A70004041049A0546D20F224364466400D31A8B
:104A80008D417146002901D1A84202D928461A4613
:104A9000641C10430122002800D01643610200204C
:104AA000079B891904465C410223002C02DB49184C
:104AB00013466441089DCE0A2D145D194B05670508
:104AC000E10A2C050D1908993E43C9076940002BDE
:104AD00008D0934006D30022761C5141002B01D10F
:104AE000760876001C4A002D43DB154241D0AA43CC
:104AF0003FD030460BB0F0BD06180D464D41174C67
:104B00007642AC411AD395181C465C41134A6D425B
:104B1000A24113D3012252054C00D4420AD15C00B9
:104B2000D4420BD04B4002D592021143E2E7490038
:104B30004908DFE75940C90FC90718E000200849B4
:104B4000D8E7054801420DD10342F7D0F2E7000053
:104B50000000FF07088201000000F07F0000E0FF76
:104B60000000F87F114859400143C0124140002025
:104B7000C0E70123089A9B069A4205DC03225207EC
:104B80008918C90FC907B5E7052252078918074ACE
:104B90001143D2125140ADE770B515461C4602468E
:104BA0000B4628462146FFF7DFFD70BDFFFFFF7F64
:104BB0001F22030C02D10F22000402D0030E03D0E7
:104BC00004E00020014670470002083A030F01D1BB
:104BD0000001121F830F01D18000921E002801DB0B
:104BE0004000521E120551184205C01241181046CD
:104BF0007047C10FC90700D04042012292071143FC
:104C0000D6E701218907D3E7F0B58B4C0F0925467C
:104C100089B0BD437BD01D092646AE43FAD00E466F
:104C20005E402740F60F3E43254071D024012142CB
:104C3000FBD0FF24AD19A4042D1B039501252D05E0
:104C4000DB02DB0AC9022B43C90A29431E01090101
:104C5000040F130F050121431701880B82039143B1
:104C60002D098C46A90B1E438A039543B30B9A0367
:104C700096433F09BA0B9403A74302962E467E4300
:104C80000497B6464E19D7190C460196544305971A
:104C90007E43371B7646BF1B3601B646BE0B361920
:104CA00000967646BC043719009C01D3641C00941E
:104CB0006400002F01D001263443029E049F7543F7
:104CC00066467E430496760034196E0034190094CB
:104CD000029C019E1C196643751BAE4606946546F0
:104CE0004519059C05956C43594375460891691A09
:104CF0000191049E01465143A41B0491611A009C3A
:104D00000791E10605D061090122114302E072E03A
:104D10006EE06109089D00272C0A2D066918049D84
:104D20007C412A0A2D066918019D6241AC0DAD0235
:104D30006D185441079A910D920255196141029ADA
:104D4000644658435443069B059A5A43121A131B50
:104D50009A0E9B015B187A41010B0005C318514163
:104D6000220A200644195A419A4200D2491C0120C5
:104D70004002814203D315230226F64302E01423A6
:104D80000326F6432020C51AA9401746AF40DA4053
:104D90000A4320460399D84009147318190551187D
:104DA000039A3843D2075140AC4009D001229440C5
:104DB00006D30022401C5141002C01D14008400084
:104DC0001E4A934212D3012203989206904207DBB7
:104DD0000520400709181A480143C012414004E069
:104DE000032040070818C10FC907002009B0F0BD13
:104DF0000020F107FAE705180C464C4111486D42B6
:104E0000A04115D394181A465A410E486442904165
:104E10000ED301204A004005824209D35A00824243
:104E200006D35940C90F084AC90700201143DDE7DE
:104E300000200649DAE700000000FF07FE07000037
:104E4000FFFFFF7F0000E0FF0000F07F0000F87F21
:104E5000F8B5224C4E00069DA6420AD8A64201D1C2
:104E6000002806D15E00A64203D8A6420AD1002A35
:104E700008D00D24240425422CD02946002000F01F
:104E8000DFF8F8BD0C461C430CD4994202D0EFF376
:104E90000080F8BD904202D0EFF30080F8BDEFF340
:104EA0000080F8BD09242407E5008B4206D0EFF30B
:104EB0000080A043591A06D2284304E0101A05D3F3
:104EC000EFF30080A04380F30088F8BDEFF300808B
:104ED000A043F1E70095FFF789FAF8BD0000E0FF75
:104EE00070B505464800440D124B0020002C0AD036
:104EF000634008D09A4206DA6642B24203DD1205E8
:104F00004019514170BD002C08D0002B09D0C90FA9
:104F1000C907002AF6DB084A114370BDC90FC9074B
:104F200070BD28460A03104302D00020034970BD1B
:104F3000284670BDFF0700000000F07F0000F87FEA
:104F4000F0B53D4B02460C461C400020002C63D0BF
:104F50003A4D8B4366D000296BDB0B0D1D05A94331
:104F600001252D0529430124FD33E34001D3921887
:104F70004941FF3381339C468B02940D0121234329
:104F800089074C42920200271B198C105D1A04D429
:104F90002D1B02D42B466500491992185B41640809
:104FA000F4D15C1A08D40125ED07EE1755197441A8
:104FB00002D42A462346491C94185B4101229207D9
:104FC0001D46E61B8D4106D4B61A854103D42B46F7
:104FD000550034467F1924195B415208802AEFD1CD
:104FE000234300D0022338460A22D04001D30122B5
:104FF00013438A0510436246890A12058918002B5B
:1050000009D00122D34002D30022401C5141002B81
:1050100001D140084000F0BD0B03134307D0C90F76
:10502000C907F0BD0803104303D1002901DB104676
:10503000F0BD00202946F0BD0000F07F0000F87FA1
:10504000C80212D54803400F002804D0C803C0434B
:10505000012188407047EFF300800001000903211F
:105060000907084380F3008870470020704700005C
:1050700000487047C00800207546FFF7F9FFAE46AC
:10508000050069465346C008C000854618B020B5E3
:10509000FFF784F860BC00274908B6460026C0C563
:1050A000C0C5C0C5C0C5C0C5C0C5C0C5C0C5403DE0
:1050B00049008D46704710B50446C046C04620469C
:1050C000FFF73BF810BD10B50C461107090F092971
:1050D00004D00A290AD008290CD104E0114608207E
:1050E000FFF7AEFF06E0510606D501E0510601D5F7
:1050F0000120C007214610BDD10607D501010909CD
:10510000CC084907000E0006044309E0410F2002C5
:105110004907000A0143200E00061D22D141014328
:105120000846E7E77047000001491820ABBEFEE7DC
:105130002600020070B58C180578401C6B075B0FC9
:1051400001D10378401C2A1106D10278401C03E0EB
:105150000678401C0E70491C5B1EF9D12B0705D444
:105160000023521E0DD40B70491CFAE70378401C33
:10517000CB1A921C03E01D780D70491C5B1C521E5B
:10518000F9D5A142D8D3002070BD000010B546204B
:1051900005F0C6FA012800D100E000201949087086
:1051A00008460078184909790907C90F884224D0B0
:1051B00014484078401CC0B21249487019281FDBBF
:1051C000002048700846007800280FD00E4840683C
:1051D00001210905884340180B494860084640688A
:1051E0000821884308300849486009E006484068BB
:1051F000082188430449486002E0002001494870C2
:1052000010BD0000B5F0FF1F30F1FF1F10B50446C0
:10521000012C03D12D2005F063FA02E02D2005F0CA
:10522000A3F810BD10B50121462005F0BDF80222FB
:105230000021024809F084FD10BD0000B5F0FF1FF9
:1052400010B50021062005F0AFF80021282005F058
:10525000ABF810BD10B504461F21204600F011F92F
:10526000034840690121490788430149486110BD4D
:105270000080044070B504460D462146024800F007
:10528000DBF82880012070BD00B0034070470000AB
:1052900030B504460D466548844206D164484069ED
:1052A000012149070843624948612979204600F0F5
:1052B000D5F86979204600F0D9F8A979204600F0A0
:1052C000F0F8E979204600F0E4F86888A0612878D1
:1052D0000007C00F002806D000BF606820210843E7
:1052E000606000BF00BF2878C006C00F002806D04D
:1052F00000BF606810210843606000BF00BF2878CD
:105300008007C00F002806D000BF20682021084376
:10531000206000BF00BF2888C005C00F002806D04D
:1053200000BFE06820210843E06000BF00BF28788C
:105330000006C00F002806D000BFE06840210843E7
:10534000E06000BF00BF28784007C00F002806D0EB
:1053500000BF606840210843606000BF00BF28783C
:10536000C007C00F00280CD000BF206840210843B0
:10537000206000BF0F20012181402E4A116000BF34
:1053800000BF28784006C00F002806D000BFA068E4
:1053900010210843A06000BF00BF28788006C00F1E
:1053A000002806D000BFA06880210843A06000BF8D
:1053B00000BF28888005C00F002807D000BFE06824
:1053C000FF2101310843E06000BF07E000BFE06853
:1053D000FF2101318843E06000BF00BF28884005FD
:1053E000C00F002806D000BFE06902210843E06139
:1053F00000BF06E000BFE06902218843E06100BF12
:1054000000BF28880005C00F002806D000BFE06953
:1054100001210843E06100BF06E000BFE0694008E9
:105420004000E06100BF00BF30BD000000B003409D
:105430000080044000E100E030B504460D462946F6
:10544000204600F01EF800BF00BF20688021084001
:105450000028F9D000BF206980B230BD8268920870
:1054600092008B079B0F13438360704710B58268CF
:1054700060241346A3431A464B0123401343836021
:1054800010BD026852095201CB06DB0E13430360C4
:105490007047C268D208D2004B075B0F1343C3604A
:1054A000704710B582680C241346A3431A468B003C
:1054B00023401343836010BD10B500212F2004F05A
:1054C00073FF0021152004F06FFF02210D2004F06E
:1054D0006BFF10BD10B51D2005F022F9002801D189
:1054E000012000E0002016490870084600781549A0
:1054F00049684903C90F88421ED011484078401CB2
:10550000C0B20F494870192819DB002048700846BE
:105510000078002808D00B4840680121890488439E
:105520004018084948600AE006484068012189049B
:1055300088430449486002E000200149487010BDDA
:10554000B7F0FF1F30F1FF1F02480349886003488E
:10555000C860704789D000003CF7FF1FADD0000045
:1055600010B5044606480078032807D10448C068EF
:10557000002803D00248C1682046884710BD0000BB
:105580003CF7FF1F10B500201B49487100241BE0A9
:105590001A49085D05F0D2F9002813D01648407961
:1055A000002808D11548005D134948700120487152
:1055B0000846C47006E01148005D0F49887008462F
:1055C000047103E0601CC4B2042CE1DB00BF0A4894
:1055D000C078042801D1002010BD0748C0788000A1
:1055E00007490858002805D00349C9788900044AAA
:1055F000505880470120EFE73CF7FF1F8CF0000078
:1056000090F0000000214868804700BFFEE70000DE
:105610001CB5044609227FA1204609F06FFB012832
:1056200001D17F49087004227EA1204609F066FB63
:1056300001281FD100207D4908700A22611D7C4885
:1056400009F070FB05227BA1794809F057FB01287E
:1056500001D17649087072480078002805D183226C
:1056600092000A21032006F009FA132273A10020F8
:1056700007F0F1FE062276A1204609F03FFB012843
:1056800010D10C2221460931734809F04BFB6448C4
:10569000007800280BD1FF220D320A21032006F0EA
:1056A000EDF904E006226DA1204609F027FB09224E
:1056B0006CA1204609F022FB012807D1607A30381E
:1056C000002810D101206A4908700CE0092269A164
:1056D000204609F013FB012805D1607A30380028F4
:1056E00001D163490870042265A1204609F006FB38
:1056F00001280ED10C22E11D574809F013FB484840
:105700000078002805D1FF220D320A21032006F07F
:10571000B5F908225CA1204609F0F0FA012813D15E
:1057200001222146083101A809F0FCFA68460079F7
:10573000302805D1002057490870012056490870CB
:10574000012007F0C7F811E0082254A1204609F013
:10575000D5FA01280AD100204F490870012007F02E
:10576000B9F80E2250A1002007F075FE082252A1C0
:10577000204609F0C3FA012813D10122214608313D
:10578000684609F0CFFA68460078302805D1002035
:105790004149087001203F490870012007F09AF83C
:1057A00011E0082247A1204609F0A8FA01280AD1F1
:1057B000002038490870012007F08CF80E223AA129
:1057C000002007F048FE082241A1204609F096FA81
:1057D000012801D107F07EF8052240A1204609F0FA
:1057E0008DFA012801D107F075F808223DA1204665
:1057F00009F084FA01280BD10020094908700B2216
:105800003BA107F028FE13220CA1002007F023FE85
:105810001CBD000044415441494E49542000000041
:10582000B9F0FF1F4756455220000000BBF0FF1F94
:1058300015070020505930373200000041542B42E8
:1058400020534C444E204453505F384348310D00A0
:105850004846434F4E4E2000080700204846444922
:105860005343200041324450434F4E4E200000002D
:10587000BDF0FF1F41324450444953432000000013
:10588000474C424420000000535050434F4E4E209E
:1058900000000000BCF0FF1FBAF0FF1F535050443F
:1058A000495343200000000041542B4220424C4504
:1058B00041445620310D0000424C45434F4E4E208E
:1058C00000000000424C45444953432000000000C2
:1058D000535050444154412000000000474F544170
:1058E00020000000534E4B494E4954200000000058
:1058F00041542B4220474F54410D000010B504463F
:10590000002C0CD0012C0AD0022C03D1012005F070
:1059100071FF04E0032C02D1002005F06BFF10BDE5
:1059200010B502211D2004F03FFD02220021024893
:1059300009F006FA10BD0000B7F0FF1FF8B50546E4
:105940000C46BEE103F052FC6520005D062873D0D2
:1059500006DC030007F08BFE06112B3B4E617873CB
:1059600020286AD004DC102868D0112867D1A9E06B
:10597000212878D03028F9D195E101222146284606
:1059800007F04BFD2078AA2803D10121652001559D
:105990000CE02078412803D102216520015505E063
:1059A0002078442802D103216520015588E1012295
:1059B000611C284607F031FD6078552803D110217D
:1059C0006520015502E000216520015578E10122A2
:1059D000611C284607F021FD6078542806D1042177
:1059E0006520015500216420015502E00021652059
:1059F000015565E10122611C284607F00EFD607823
:105A0000422806D13021652001550021642001552E
:105A100002E000216520015552E10122A11C284627
:105A200007F0FBFCA0782D280AD10521652001553F
:105A300000216420015506E01AE070E02BE03EE111
:105A40000021652001553BE10122E11C284607F0B9
:105A5000E4FCE078422807D10621652001550021A9
:105A60006420015503E078E000216520015527E11D
:105A70000122211D284607F0D0FC2079202806D1DC
:105A800021216520015500216420015502E00021FB
:105A90006520015514E10122A11C284607F0BDFC38
:105AA000A17864200155005D502803DC6420005D6E
:105AB000032803DA00216520015501E11121652049
:105AC0000155FDE06420005DC01E82B2E11C284645
:105AD00007F0A3FC002800D1F8BD6420005D401E43
:105AE000C1B2204604F03AFE6421095D491E615CA2
:105AF00088420ED177480078A84208D0284600F0A6
:105B0000FDFF6420025D2146734809F00BF900F0A7
:105B10008DF900216520015564200155DCE76420E2
:105B2000005D401D01190122284607F076FC642023
:105B3000005D401D205C202802D1212165200155F7
:105B40006420005D401CC1B264200155005D9628B0
:105B500002DD002165200155B2E06420005D401D9A
:105B600001190122284607F058FC0A225BA1601D9A
:105B700009F0C4F8012806D00A225BA1601D09F0D3
:105B8000BDF8012873D10026607C2C2802D0A07CAF
:105B90002C281DD1E07B202809D1607C2C2806D13F
:105BA000207C3138C6B211205249087010E0E07BE9
:105BB00020280DD1A07C2C280AD1207C30380A2145
:105BC0004843617C40183038C6B2122049490870F9
:105BD0006420015D30460E3081423ADB002E38D021
:105BE0006420005D401D205C0D282CD139480078D0
:105BF000A84202D0284600F081FF3E480078C01C31
:105C0000225C3C480078401C2118334809F08AF88F
:105C1000002701E0781CC7B236480078C01C205C21
:105C2000B842F7DC2C488078401EC1B22A4804F004
:105C300095FD29498978491E274A515C884201D13E
:105C400000F0F4F800BF00216420015565200155E3
:105C500028E06420005D401CC1B264200155005D55
:105C600064281FDD0021652001551BE0FFE764204B
:105C7000005D401D205C0D2808D1601DFFF7C8FCA9
:105C8000002164200155652001550BE06420005D72
:105C9000401CC1B264200155005D642802DD002172
:105CA000652001550CE00122A11C284607F0B5FB38
:105CB000A07801F037F800216520015500E000BF11
:105CC00000BF284607F0A2FB002800D03AE600BF3C
:105CD00002E70000C1F0FF1FB6F7FF1F535050440A
:105CE000415441494E440000424C454441544149CD
:105CF0004E440000C4F0FF1F10B50021072004F03F
:105D000053FB10BD10B506F05FFB10BD10B509F0D8
:105D10009FF810BD10B506F089FB10BD10B50748FF
:105D200004F067FA0548403004F063FA0348803015
:105D300004F05FFA04F047FA10BD000000F00F40D5
:105D400010B50120800309F0EBF810BD10B504492F
:105D5000002006F00BFC0249012006F007FC10BDF4
:105D6000801A060010B509F0B5F810BD10B5002076
:105D70000949886109484861072008610321081F13
:105D800005F0A0FD0020C043C206D20E01219140C3
:105D9000034A116000BF10BD00E000E0FF70020088
:105DA00000E100E010B5E1214902002006F01AFDF3
:105DB000E1214902012006F015FDE12149020220FE
:105DC00006F010FD10BD70471CB568460088042120
:105DD0008843011D684601800088082188430146E8
:105DE000684601800088102188430146684601808A
:105DF00000884021884341186846018000880221BC
:105E000088430146684601800088FF21813188432C
:105E100001468031684601807D2149014180002191
:105E2000818007F0B1FB07F08FFB1CBDFEB5F84C7D
:105E3000A01F0079F02802DAFF2000F011FEF448DC
:105E4000801F00790B287DD006DC012815D008289A
:105E500079D00A2878D11DE00F2876D0FF28F9D113
:105E6000EB48801FC078EB49497B884204D1002170
:105E7000E848603041720172F1E3E548801F4079E3
:105E8000042805D103220121104605F0F7FD00BFCB
:105E900000BFF1E7DE48801F407913287ED019DC6F
:105EA00013287CD243007B449B885B009F443B00CB
:105EB00090005101C30105020E032F0360037E030E
:105EC0009C03C303E2032D045E048504770077007E
:105ED00077006701872875D010DC832873D006DC33
:105EE000142871D0152870D0822858D17EE18428DA
:105EF0006CD085286BD08628F7D130E388380D2800
:105F0000CFD243007B449B885B009F4464038B0398
:105F10004800480048004D048104480048004800FB
:105F200078018B015002BC48807D002842D1207846
:105F300000280BD1B648801F42790A21032005F0C2
:105F40009DFD3EE0EFE3EFE3EFE3EFE32078012890
:105F500014D1B24840680003C00F002804D10120CA
:105F6000AD4988756078C875A948801F4079C21D01
:105F7000F9320A21032005F081FD22E02078022871
:105F80001FD1A64840680003C00F002804D102209A
:105F9000A14988756078C8759D4801E00AE1FDE374
:105FA000801F4079C21DFF32FA320A21032005F01A
:105FB00065FD06E09648801F42790A21032005F01E
:105FC0005DFD1DE2E9E26FE148E21AE2BCE195E223
:105FD0002078002805D101220A21032005F04EFD7A
:105FE000B6E02078012808D18C4840680003C00F33
:105FF0000028F5D100F02EFFAAE02078022827D152
:1060000060780028ECD0854840680003C00F002865
:1060100002D1607801F0D2F86078C10F09184910F8
:106020004900411A0AD06078401E40010121C9038D
:10603000084381B278482038418689E06078401E64
:1060400040010121C90308437349203988867FE054
:106050002078032827D16078002879D06F484068DD
:106060000003C00F002803D16078012100F044FF35
:106070006078C10F091849104900411A09D06078A9
:10608000401E40010121C903084363492039488665
:106090005EE06078401E40010121C90308435E496B
:1060A0002039888654E02078042820D160780028A0
:1060B0004ED05A4840680003C00F002802D16078D3
:1060C00001F048FB6078401E4002C01C82B20A21E9
:1060D000032005F0D3FC6078401E4000401C000205
:1060E000C01C82B20A21032005F0C8FC30E02078F1
:1060F000052828D1607800282AD048484068000345
:10610000C00F002803D16078002100F0F5FE607810
:10611000C10F091849104900411A0AD06078401E81
:1061200040010121C903084381B23B482038418620
:106130000EE06078401E40010121C9030843364942
:106140002039888604E02078062801D102F0DAFAA6
:1061500068E3324840680003C00F002803D120786C
:10616000A11C01F02FFF207800022949891F4979DD
:10617000401882B20A21032005F080FC52E3274830
:1061800040680003C00F002808D10522A11C244844
:1061900008F0C8FD2078A11C01F014FF207800024F
:1061A0001B49891F4979401882B20A21032005F052
:1061B00065FC37E3194840680003C00F002809D187
:1061C0000522A11C1648401D08F0ACFD207814499A
:1061D00001F0F8FE207800020D49891F4979401826
:1061E00082B20A21032005F049FC1BE3207800025B
:1061F000801C82B20A21032005F040FC12E32078C3
:106200000002123082B20A21032005F037FC09E3B4
:10621000BCF7FF1F4CF7FF1FE006002030F1FF1F07
:10622000F4F8FF1F20780002133082B20A21032005
:1062300005F024FCF6E2F74840680003C00F002890
:1062400027D1617868460170A1784170E17881704A
:1062500020790006617909044018A17909024018E3
:10626000E17940180190207A0002617A401881B2E9
:10627000684601812578EA0F521952105200AA1A75
:10628000D1B22E46EA0F921950106A4601F0C0FAB8
:1062900000BF20780002E0494979401882B20A2103
:1062A000032005F0EBFBBDE220780002C01C82B2A7
:1062B0000A21032005F0E2FBB4E2D648406800035F
:1062C000C00F002835D1617868460170A17841700F
:1062D000E07800022179401881B2684641806079F7
:1062E0000006A17909044018E17909024018217AD1
:1062F00040180190607A0002A17A401881B2684685
:106300000181E07A0002217B401881B26846418118
:106310002578EA17D20E521952115201AA1AD1B297
:106320002E46EA17D20E921950116A4601F028F84B
:1063300000BF20780002B8494979401882B20A218A
:10634000032005F09BFB6DE22078C117C90E0918E8
:1063500049114901411A1F2920D12078C117890EFE
:10636000091889118901411A20290BDA2078C117EF
:10637000C90E0918491149010122D2031143A74A44
:10638000518613E02078C117C90E09184911490137
:106390000122D2031143A14A918607E0207800022E
:1063A000001D82B20A21032005F068FB3AE2207842
:1063B000C117C90E091849114901411A1F291FD1D6
:1063C0002078C117890E091889118901411A2029DD
:1063D0000BDA2078C117C90E0918491149010122A9
:1063E000D20311438D4A51860AE02078C117C90EA5
:1063F0000918491149010122D2031143874A9186A4
:1064000010E2844840680003C00F00281BD1607868
:106410000002A178401882490881E07800022179C1
:1064200040187F4948812578EA17D20E5219521137
:106430005201AA1AD1B22E46EA17D20E9219501161
:10644000774A00F09DFF207800027349497940188F
:1064500082B20A21032005F011FBE3E16D48406898
:106460000003C00F002826D160786D490870A0781D
:106470004870E078000221794018694948806079C5
:106480000006A17909044018E17909024018217A2F
:106490004018634948602578EA17D20E5219521104
:1064A0005201AA1AD1B22E46EA17D20E92195011F1
:1064B0005B4A00F065FF207800025749497940188F
:1064C00082B20A21032005F0D9FAABE151484068B5
:1064D0000003C00F002806D162781202A378D118F9
:1064E000207800F0D3FC207800024B49497940180D
:1064F00082B20A21032005F0C1FA93E1207800025C
:10650000401D82B20A21032005F0B8FA8AE1414811
:1065100040680003C00F002811D12078002806D160
:10652000E0780002217940183C494039C8826278FD
:106530001202A378D21891B2207801F01BFF2078C4
:10654000000235494979401882B20A21032005F03A
:1065500095FA2078002801D100F008FB62E120784C
:106560000002801D82B20A21032005F087FA59E15A
:10657000284840680003C00F002803D161782078C4
:1065800001F03EFE2078000223494979401882B28A
:106590000A21032005F072FA44E120780002C01DB0
:1065A00082B20A21032005F069FA3BE119484068EC
:1065B0000003C00F002803D16178207801F056FD58
:1065C0002078000214494979401882B20A21032038
:1065D00005F054FA26E120780002083082B20A2140
:1065E000032005F04BFA1DE10A4840680003C00F84
:1065F000002803D12078611C01F094FE207800026D
:1066000005494979401882B20A21032005F036FA7B
:1066100008E1000030F1FF1FB6F7FF1FC0060020A1
:10662000E8F8FF1F20780002093082B20A21032017
:1066300005F024FAF6E02078F8490871607848718E
:106640006178207802F09EF8002809D0F44840795B
:10665000C21DF9320A21032005F010FA09E0FCE11D
:10666000EF484079C21DFF32FA320A21032005F0BB
:1066700005FAD7E02078012829D12078E949087067
:10668000601C04F087FA002817D0E01D05F006FE14
:10669000002808D0E2484079C21DF9320A210320BF
:1066A00005F0ECF930E0DE48407903210902421898
:1066B0000A21032005F0E2F926E0D9484079C21DFD
:1066C000FF32FA320A21032005F0D8F91CE02078C5
:1066D000022819D12078D3490870601C04F05AFAB6
:1066E000002808D0CE484079C21DF9320A21032083
:1066F00005F0C4F908E0CA484079C21DFF32FA32F9
:106700000A21032005F0BAF98CE02078012819D17C
:10671000C548007800280AD1FF220D320A21032043
:1067200005F0ACF921E07FE06BE195E163E1BF4862
:106730000078002819D1FF220D320A21032005F02C
:106740009DF912E0207802280FD1B7480078002880
:1067500006D1832292000A21032005F08FF904E07C
:106760000B22B3A1002006F076FE5BE02078012822
:1067700019D1B24840680003C00F002802D16078E8
:1067800006F0CCFE20780002A5494979401882B273
:106790000A21032005F072F9062200E041E00A21F7
:1067A000032005F06BF93DE0207800020D3082B245
:1067B0000A21032005F062F934E0207801280AD18B
:1067C00001F0C8FC9D4840680121C9048843401875
:1067D0009A4948600BE02078022808D101F0F4FCC7
:1067E000964840680121C90488439449486020784C
:1067F00000028B494979401882B20A21032005F032
:106800003DF97F2252020A21032005F037F909E001
:10681000207800020E3082B20A21032005F02EF902
:1068200000BF00BF00BF18E17D484079030006F0BB
:106830001EFF0504476395BADF002078012815D1B3
:1068400076482038807D002809D16078002806D05D
:10685000607872492039C875032088752FE0FF22BF
:1068600012020B21032005F009F928E02078022804
:1068700015D16A482038807D002809D16078002829
:1068800006D0607865492039C8750420887516E0FF
:10689000FF2212020B21032005F0F0F80FE0207810
:1068A00081280CD100205D492039C8756039C8673E
:1068B000603108764876887600215848016098E073
:1068C00056482038807D032815D120785349203937
:1068D000C97D88420FD15A4850498039C867084657
:1068E0006030C07D00024E494979401882B20B21C8
:1068F000032005F0C3F87CE048482038807D032859
:106900002BD1207845492039C97D884225D161782D
:10691000424820380176007E401C40498039C96FCA
:106920003F318909884208D33C488038C06F8106CE
:10693000890E3A482038417603E040203749203913
:10694000487636482038C07D0002354949794018DC
:1069500082B20B21032005F091F84AE02F4820383D
:10696000807D04281ED120782C492039C97D884299
:1069700018D160780006A17809044018E17809026E
:1069800040182179401825498039C8676079000688
:10699000A17909044018E17909024018217A4118C7
:1069A0001E48016025E01D482038807D04281ED146
:1069B00021781A482038C07D814218D16078174963
:1069C0002039097E884212D11E4D14482038007E9D
:1069D00080012D1812488078093882B2A11C2846FF
:1069E00008F0A0F901200D492039887600BF00E0A9
:1069F00000BF00BF31E00E2213A1002006F02BFDE6
:106A00002BE007484079012806D10C484068022154
:106A10008843801C094948601FE0000000070020EF
:106A2000B6F7FF1F9DF0FF1FC1F0FF1F9CF0FF1F77
:106A300041542B4220475645520D000030F1FF1FB4
:106A4000AC0D000000F9FF1F41542B4220534F545E
:106A50004120310D0A00000000BF00BFFEBD000054
:106A600010B586B004464121684601715421417138
:106A70003E2181710121C1711C480078002803D09A
:106A80000120694608720AE019480078002803D0FE
:106A900002206946087202E000206946087200215F
:106AA00068464172092181728021C17200210173FF
:106AB0000D21417355218173AA21C17306210174EF
:106AC0000C48C17868464174847405210E3003F087
:106AD00045FE01466846C1740D210175112201A9C8
:106AE0000548007806F0B7FC06B010BDBCF0FF1FEB
:106AF000BAF0FF1FB6F7FF1FC1F0FF1F10B5044625
:106B00001448807D002824D113480078844204D1A1
:106B10001149124802F069F907E0114800788442EF
:106B200003D10F490D4802F060F90C4800780128A4
:106B300003D10C4805F0BAFB0BE0084800780228A6
:106B400003D1094805F0B2FB03E00020C04305F083
:106B5000ADFB10BDE0060020C2F0FF1FC1F0FF1F1B
:106B6000C3F0FF1F5555AAAA55AA55AA10B500246F
:106B700011E00B48408861000A4A515A884208DAFD
:106B800009480470FF220E320A21032004F076FF28
:106B900010BD601CC4B2282CEBDD00BFF8E700007C
:106BA0008006002078C80100EAF0FF1F10B50F48EA
:106BB00003F0FDFD002809D001200D4908700020D8
:106BC0000C49087002200C4908700DE00B4803F0D6
:106BD000EEFD002808D00220054908700020054974
:106BE000087001200449087010BD00005555AAAA7C
:106BF000C1F0FF1FC2F0FF1FC3F0FF1F55AA55AA27
:106C000010B5002400BF04E0204600F005F8601C29
:106C1000C4B2042CF8DB10BD10B504462101024AB1
:106C2000881804F0DBFF10BDF0F0FF1F10B5002145
:106C3000292003F0B9FB0021122003F0B5FB00214D
:106C4000372003F0B1FB372003F04AFD10BD0000F0
:106C500010B50221452003F0A7FB022200210248C3
:106C600008F06EF810BD00008CF0FF1F10B5294829
:106C70000078062800D010BD452003F051FD002803
:106C800001D1012000E00020234908700846007867
:106C900022490978884237D01F484078401CC0B24A
:106CA0001D494870192832DB0020487008460078DA
:106CB00000280ED01A4840680121C90488434018B2
:106CC00017494860012015490870012401F042FA73
:106CD0000CE0134840680121C9048843104948600A
:106CE00000200E490870022401F06EFA20020E30D6
:106CF00082B20A21032004F0C1FE7F2252020A213F
:106D0000032004F0BBFE02E000200349487000BFEE
:106D1000B1E7000072F0FF1F8CF0FF1F8EF0FF1F25
:106D200030F1FF1F70B50546042D2AD008DC002D78
:106D30000DD0012D0CD0022D0DD0032D47D115E023
:106D4000052D29D0062D32D0102D40D130E03FE066
:106D500007F042F83CE0292003F006FBFF20F53065
:106D600005F0B8FD292003F0BBFC31E0062003F05C
:106D7000FBFAFF20F53005F0ADFD062003F0B0FC76
:106D800026E0282003F0F0FAFF20F53005F0A2FD00
:106D9000282003F0A5FC1BE0072003F0E5FAFF2004
:106DA000F53005F097FD072003F09AFC10E00FE0A6
:106DB000002409E0204602F0F7FF02F017FA08204D
:106DC00005F088FD601CC4B2082CF3DD00E000BFB4
:106DD00000BF70BD70B504460D4601F0B5FA002C39
:106DE00001D001F08FF800F05FFC00F0D1F800F066
:106DF00075F8002C01D001F051FB01F09FF901F072
:106E00002FFA70BD10B50020074948742039488614
:106E1000888620310874887500F008F8012108463A
:106E2000FFF7D8FF10BD0000E006002010B50024D9
:106E300008E0E200054950180822054907F072FFF2
:106E4000601CC4B2082CF4DB10BD0000B0060020AA
:106E5000F6C5010010B500200B49487403F096F9FF
:106E600001210846FFF7B6FF0121084601F0E8FCC2
:106E700000220A21032004F001FE7F2252020A218F
:106E8000032004F0FBFD10BDE006002038B50546E8
:106E90000C4600200090082D01DC002D00D138BDEB
:106EA000210E684601702002010E684641702004E0
:106EB000010E68468170C4706800064A115A6B461C
:106EC0000422002004F0D8FF6900034A545200BF96
:106ED000E5E70000C8C501007006002010B50020DD
:106EE00005E000214200034B9952411C88B2092859
:106EF000F7DB10BD7006002070B504460E46082C66
:106F000001DC002C01D1002070BD601EC4B2002540
:106F100037E0012E14D1642005F0E8FCFF20813019
:106F200060431A4941180C206843085CB043FF21B4
:106F300081316143154A8A180C216943505412E08B
:106F4000FF2081306043114941180C206843085CE0
:106F500040084000401CFF21813161430B4A8A18E0
:106F60000C2169435054FF20813060430749411888
:106F70000C2068430A182946204600F001FA681CD4
:106F8000C5B2202DC5DB0120BEE7000070FAFF1F4F
:106F900010B5002159E0002053E00024FF22813287
:106FA0004A432B4BD3180C2242439C54FF2281327C
:106FB0004A43274BD3180C2242439A5C5208520092
:106FC000521CFF2381334B43214C1C190C23434398
:106FD000E2540024FF2281324A431D4BD3180C2275
:106FE00042439A1854704B246401FF2281324A4371
:106FF000174BD3180C2242439A1854808200154B29
:107000009C58FF2281324A43114BD3180C22424331
:107010009A185460104CFF2281320B4653430C4A9D
:107020009B180C2242439A1814818D24FF2281322E
:107030004A43074BD3180C2242439A185481421CEE
:1070400090B22028A9DB4A1C91B20829A3DB10BD0D
:1070500070FAFF1F20C70100DC05000010B5524880
:10706000408E0121C9030840002800D110BD4F48BF
:107070000078401C4D4908704D480078002803D125
:107080004C480078002835D048480078042803DBB5
:107090004948007801280FD044480078042803DBD1
:1070A00045480078022807D040480078082878DB57
:1070B00041480078002874D100203C4908703A48C3
:1070C000408E0002001D82B20A21032004F0D6FC8B
:1070D000002866D03448408E401C33494886488E8C
:1070E000C117C90E091849114901411A59D12E4831
:1070F000418656E02D480078042803D12E480078B8
:1071000001280FD029480078042803D12A480078A4
:10711000022807D02548007828280CD12648007876
:10712000002808D12048408E0002143082B20A2183
:10713000032004F0A3FC1D480078082803DB1E4848
:10714000007801280FD019480078082803DB1A4876
:107150000078022807D0154800783C2821DB164823
:10716000007800281DD10020104908700E48408E7C
:107170000002153082B20A21032004F07FFC0028AF
:107180000FD00948408E401C07494886488EC117D9
:10719000C90E091849114901411A02D100200249BA
:1071A000488600BF62E70000C0060020E7F0FF1F2E
:1071B000BAF0FF1FBBF0FF1FC1F0FF1F3EB5054631
:1071C000082D01DC002D01D100203EBD681EC5B296
:1071D000002168460170007841084900491C684652
:1071E0000170002141704B21490141800A49018110
:1071F0008D21418100240AE0A0000849085801902F
:107200006A462146284600F0BBF8601CC4B2202C18
:10721000F2DB0120D9E70000DC05000020C70100F7
:1072200010B55248808E0121C9030840002800D1C2
:1072300010BD4F480078401C4D4908704D480078FB
:10724000002803D14C480078002835D04848007801
:10725000042803DB4948007801280FD0444800780F
:10726000042803DB45480078022807D0404800780E
:10727000082878DB41480078002874D100203C4978
:1072800008703A48808E0002001D82B20A21032055
:1072900004F0F4FB002866D03448808E401C33494B
:1072A0008886888EC117C90E091849114901411AEB
:1072B00059D12E48818656E02D480078042803D104
:1072C0002E48007801280FD029480078042803D1DF
:1072D0002A480078022807D0254800780C280CD1CD
:1072E00026480078002808D12048808E00021430FB
:1072F00082B20A21032004F0C1FB1D48007808284F
:1073000003DB1E48007801280FD0194800780828B0
:1073100003DB1A480078022807D01548007819289E
:1073200021DB1648007800281DD100201049087084
:107330000E48808E0002153082B20A21032004F02C
:107340009DFB00280FD00948808E401C0749888685
:10735000888EC117C90E091849114901411A02D175
:1073600000200249888600BF62E70000C0060020B6
:10737000E8F0FF1FBAF0FF1FBBF0FF1FC1F0FF1FB7
:10738000F0B593B006460D461446082E01DA1F2DBF
:1073900002DB002013B0F0BD61884B229201002077
:1073A00003F04CFD60804D4A0020616803F046FD0B
:1073B000606021894A4A002003F040FD20816189F4
:1073C00019229201002003F039FD6081EA17120FA3
:1073D000521912117300D2185200424B9A5A284681
:1073E000EB171B0F1B181B111B01EB1A9F00DB195E
:1073F000D21892B212922078C007C00F00280DD088
:107400006078002808D1608900902389618808A8E5
:10741000626801F0E7FA12E00020BBE7FF202D30A0
:1074200005F064FA0021089109910A910B912E4808
:107430000C910D9000200E900F90109011902078DC
:10744000C006C00F002810D00122D2070999514070
:107450000898099108900B9951400A980B910A904D
:107460000D9951400C980D910C900999089803AA18
:107470000191009004F044FC0B990A9804AA019130
:10748000009004F03DFC0D990C9805AA0191009024
:1074900004F036FC0F990E9806AA0191009004F0B2
:1074A0002FFC1199109807AA0191009004F028FC74
:1074B00003AB05220020129904F068FCFF20813004
:1074C00070430A4941180C2068430818A3682268D1
:1074D000616883600260416001205BE70077010022
:1074E000B80B0000A0C701000000F03F70FAFF1FBA
:1074F00070B5044668480078401C674908706748C2
:107500000078030006F0B3F8050414376F94C30045
:107510006348C07D0002C01C82B20B21032004F02E
:10752000ADFA00205C49087001205C490870AFE0AA
:107530005B486038C06F00280CD05948C07D0002FD
:10754000001D82B20B21032004F098FA0220534957
:1075500008700FE0504800780A280BDB00204E49E5
:1075600008704F48C07D0002C01C82B20B2103206E
:1075700004F084FA8CE04A48807E002822D04848F3
:10758000007E401C46496039C96F3F3189098842F5
:1075900003D303204149087010E000203E490870E1
:1075A0003F48007E401C3E4908760846C07D0002E8
:1075B000001D82B20B21032004F060FA002038493C
:1075C00088760FE03448007832280BDB00203249FF
:1075D00008703348C07D0002001D82B20B210320D9
:1075E00004F04CFA54E000212E4A002003E0137806
:1075F0005918521C401C2A4B603BDB6F8342F6D863
:10760000274B20331B688B4203D10423234D2B705F
:107610000DE00023214D2B701F4D2B70204D603D40
:10762000EB6760352B766B76AB7620352B602FE0E1
:107630001B49C87D00F04AFF002827D000201749C9
:1076400008700121084601F0FBF81548C07D144977
:10765000487402F09BFD00201149C87500211048B4
:107660006038C1676030017600200D4948760021FE
:107670000B48817600200A492031086041225202DD
:107680000B21032004F0FAF9012070BD00E000BFD7
:1076900000BF0020F9E70000C9F0FF1FC8F0FF1F7E
:1076A000E006002000F9FF1F00204BE00023182116
:1076B0004143264A53541821414389180B7318211A
:1076C0004143515C49084900491C182242431F4B61
:1076D0009954182141431A468918097B49084900E1
:1076E000491C18224243D218117303231821414325
:1076F000164A89184B70182102464A4313495118FB
:107700004B7318214143114A89188B701821024686
:107710004A430E4951188B731423182141430B4AD5
:1077200089184B600A4B1821414389180B610023CB
:107730001821414389180B811821414389188B82F4
:10774000411C88B20828B1DB70470000B0F9FF1F68
:10775000204E00003EB50446082C01DC002C01D16F
:1077600000203EBD601EC4B2002168460170007852
:1077700041084900491C684601700321417081702D
:10778000142001900021684601816A46204600F0DD
:107790003FF8044801906A460121204600F038F87D
:1077A0000120DEE7204E000070B504460D46012D95
:1077B00002D100201449087013480078002802D034
:1077C00001281CD112E0204600F06CFB00280CD0F0
:1077D0000E48447402F0DAFCFF2201320B21032030
:1077E00004F04CF901200849087009E00748C07D01
:1077F000002803D104490870012070BD00E000BFDB
:1078000000BF0020F9E70000C7F0FF1FE0060020DE
:10781000F0B5B1B005460F461446142103A8FCF795
:10782000EDFC082D01DA022F02DB002031B0F0BDA3
:1078300018206843ED4941180C207843085CC006C5
:10784000C00F2178C906C90F48400290E84A0020BD
:10785000616803F0F3FA60602078C007C00F002869
:107860007ED06078012815D1A078012812D1238913
:10787000394608A8626801F0BDFC2389394612A880
:10788000626801F0B7FC1CA802F03CF826A802F0E0
:1078900039F81EE16078012815D1A078032812D1AB
:1078A0002389394608A8626801F0DCFE238939463D
:1078B00012A8626801F0D6FE1CA802F023F826A8E0
:1078C00002F020F805E16078012823D1A07805288E
:1078D00020D100200321009101902389394608A876
:1078E000626802F025F82389394612A8626801F01F
:1078F00081FC0020032100910190238939461CA8B6
:10790000626802F015F82389394626A8626801F0FA
:1079100071FCDEE0607801282DD1A07807282AD1FB
:1079200000200421009101902389394608A862684B
:1079300001F0FEFF012004210091019023893946C6
:1079400012A8626801F0F4FF002004210091019068
:10795000238939461CA8626801F0EAFF012000E093
:10796000A7E00421009101902389394626A8626886
:1079700001F0DEFFADE06078022812D1A078012886
:107980000FD12389394608A8626801F019FD12A8B1
:1079900001F0B8FF1CA801F0B5FF26A801F0B2FF66
:1079A00097E06078022815D1A078022812D12389A7
:1079B000394608A8626801F003FD2389394612A8F8
:1079C000626801F017FC1CA801F09CFF26A801F0DA
:1079D00099FF7EE06078022815D1A078032812D1A3
:1079E0002389394608A8626801F0EAFC23893946F0
:1079F00012A8626801F0E4FC1CA801F083FF26A82D
:107A000001F080FF65E06078032812D1A07801289A
:107A10000FD12389394608A8626801F023FE12A815
:107A200001F070FF1CA801F06DFF26A801F06AFFAD
:107A30004FE06078032819D1A078022816D10020E1
:107A40000321009101902389394608A8626801F05A
:107A50006FFF2389394612A8626801F0CBFB1CA88E
:107A600001F050FF26A801F04DFF32E060780328B6
:107A70001DD1A07803281AD1002004210091019083
:107A80002389394608A8626801F052FF01200421C9
:107A9000009101902389394612A8626801F048FFDD
:107AA0001CA801F02FFF26A801F02CFF11E00020F8
:107AB000BCE6FF202D3004F019FF08A801F022FFDA
:107AC00012A801F01FFF1CA801F01CFF26A801F05E
:107AD00019FF2078C006C00F002810D00122D2075D
:107AE000099951400898099108900B9951400A98BA
:107AF0000B910A900D9951400C980D910C900298A1
:107B000000280DD03B49681C085C012808D1691C7D
:107B1000C8B20022114600F0BDFA0A2004F0DAFED5
:107B2000002643E02820704308A9081803C803AAC8
:107B30000191009004F0E4F82820704308A941184E
:107B40008868C96804AA0191009004F0D9F8282037
:107B5000704308A940184169006905AA0191009085
:107B600004F0CEF82820704308A941188869C96933
:107B700006AA0191009004F0C3F82820704308A9D8
:107B80004018416A006A07AA0191009004F0B8F811
:107B90002801194A8018FA0080187200815A03AB34
:107BA0000522002004F0F2F8701CC6B2042EB9DBE6
:107BB000029800280DD00F49681C085C012808D1E4
:107BC0001E2004F087FE691CC8B20022012100F0CB
:107BD00061FA18206843054941180C2078430818B9
:107BE00021460EC90EC0012020E60000B0F9FF1F9B
:107BF0000077010098060020C0C70100F0B585B0ED
:107C000004460F46601E4000644A115A03AA012030
:107C100004F098F86846007B01066846407B000443
:107C200009186846807B000209186846C07B08185E
:107C300002900298FCF7DDFF05460022584BFCF746
:107C400093FD49004908621ED200564B9A1803C2A0
:107C5000601EC000194609180D68496800221346C5
:107C6000284607F063F904D10021601E4E4A1154E2
:107C700091E0601E182148434C490918601EC0005D
:107C80000D684B684749081803C82A4601910090BF
:107C900007F07EF927D23878322803DB0021601EF6
:107CA000414A11543878401CC0B23870642812DB45
:107CB00000203870601E3E49085C00280BD101216D
:107CC000601E3B4A115401220021204600F0E2F9D7
:107CD0000220FDF713FE601E3549085C01285AD1C9
:107CE0000020387057E0601E182148432F49411882
:107CF0008868C96801910090601EC0002949081871
:107D0000056841682846019B009A07F073F940D244
:107D1000601E1821484325494118086949690191A5
:107D20000090601EC0001F49081805684168284679
:107D3000019B009A07F05EF913D21E4800780628CE
:107D400011D13878401CC0B238700A280BDB0020F3
:107D500038700121601E144A1154122002F0C0FC38
:107D600001E000203870601E1149085C012812D122
:107D70000021601E0E4A11540F48005D01280AD1EF
:107D800001221146204600F085F90320FDF7B6FDDB
:107D900001E00020387005B0F0BD000050C60100C1
:107DA0000000704140070020D5F0FF1F60C60100B1
:107DB000CDF0FF1F72F0FF1F9806002010B5344869
:107DC000007C032800D010BD32480078062800D07F
:107DD000F9E72F48807D002800D0F4E72E4800788E
:107DE000030005F044FC08050A10161C22282E3456
:107DF0002A490120FFF702FF2AE02849491C0220F6
:107E0000FFF7FCFE24E02549891C0320FFF7F6FE5E
:107E10001EE02249C91C0420FFF7F0FE18E01F49AC
:107E2000091D0520FFF7EAFE12E01C49491D062046
:107E3000FFF7E4FE0CE01949891D0720FFF7DEFE7D
:107E400006E01649C91D0820FFF7D8FE00E000BF74
:107E500000BF114801780078401C0F4A10700C29AF
:107E600002DB002011460870002406E00C48005D8B
:107E7000012800D103E0601CC4B2082CF6DB00BF6F
:107E8000082C02D1122002F06FFA00BF9BE700001D
:107E9000E006002072F0FF1FDDF0FF1FDEF0FF1F85
:107EA000D5F0FF1F10B50446002C00D110BD0B4AC1
:107EB0000B49204601F0B2FE002800D1F6E701216F
:107EC000084600F0BDFC611ECA0006495018082291
:107ED0000349091D06F026FF0120E7E7AC0D00006D
:107EE00000F9FF1FB006002010B54422044900200D
:107EF00001F094FE002800D110BD0120FCE7000035
:107F0000AC06002010B500211AE0002014E0002982
:107F100003D0002801D0814206D190240B224A438D
:107F2000094BD218145405E000240B224A43064B97
:107F3000D2181454421C90B20B28E8DB4A1C91B2B0
:107F40000929E2DB10BD00004CF9FF1FF0B585B038
:107F5000074600200490002427E03846FCF751FE35
:107F60000022144B03910290FCF7DBFB05460E4602
:107F70000022114B28463146FCF7F6FB02460B4621
:107F80000191009000200D4906F0BAF904AA03916E
:107F9000029003F0B5FE6000094A115A04AB0122B9
:107FA000002003F0F3FE601CC4B20A2CD5DB0120D4
:107FB00005B0F0BD000062400000344000002440E5
:107FC00052C8010070B588B005460C4600200590E7
:107FD000082D01DC002D02D1002008B070BD002664
:107FE00036E02178BA22002002F028FF20702078A5
:107FF000FCF707FE0022184B03910290FCF791FB5F
:10800000079106900022154B07990698FCF7ACFBE8
:1080100002460B46019100900020114906F070F9CC
:1080200005AA0391029003F06BFE68000D4A105AF6
:10803000801981B205AB0122002003F0A7FE22784F
:108040000B20684308494118701C0A54641CC6B2CE
:108050000A2EC6DB0120C0E7000062400000344069
:108060000000244040C801004CF9FF1F70B50446D1
:108070000D46002D01D0012000E000200646002220
:108080003146204600F006F80148065570BD000054
:1080900098060020F8B504460D46164600200090CC
:1080A0006846C570082C00DDF8BD002D08D1002EF3
:1080B00006D10021204600F05DFC0A2004F00AFCF5
:1080C0006000124A115A6B460422002003F0D4FECD
:1080D000012D18D1002C0DD00D48007E002809D1AB
:1080E0000A4801886B460422002003F0C5FE0120E7
:1080F00007490876002E06D10A2004F0EBFB012187
:10810000204600F037FC00BFCEE70000CAC80100DF
:108110008006002070B504460D46002D01D00120D8
:1081200000E000200646012231462046FFF7B2FF5C
:108130000148065570BD000098060020002004E0AC
:108140000121034A1154411C88B20928F8DB704709
:108150009806002010B500210846FEF73BFE0024DB
:108160000AE000221820604315490A541820604391
:1081700040180273601C84B2082CF2DB0021072037
:10818000FFF774FF00210820FFF770FF00200D4962
:108190000872C8710021084600F052FB002408E074
:1081A00001F024F8611CC8B20121FEF7A5FE601C95
:1081B00084B2082CF4DB9220FFF7C8FE10BD00004B
:1081C000B0F9FF1F9806002010B502210B488175F9
:1081D000417CC175012252020A21032003F04EFCAA
:1081E00001210720FFF742FF01210820FFF73EFF92
:1081F0000120024948390872C87110BDE00600200C
:1082000038B504460D4600200090082C01DC002CF7
:1082100000D138BD08222946002002F00FFE694631
:10822000C8700B484078012805D16846C0780949D4
:10823000095C6846C1706000074A115A6B46042207
:10824000002003F019FE0548055500BFE1E70000D6
:1082500030F1FF1FDAC50100E4C50100A1060020CE
:10826000012003E0034A1054411C88B20928F9DBBD
:1082700070470000A106002010B52848007C0300CC
:1082800005F0F5F9060405213F40444843E005F0B8
:10829000A3FD01F0B7FE2148407C002806D0022053
:1082A0001E4988750846407CC87508E001210846CB
:1082B00000F0C6FA00220A21032003F0DFFB0221AE
:1082C0001648017427E01548807D002818D1052044
:1082D000124988751248007800280ED10322012126
:1082E000104603F0CBFB0D48407C002805D17F22CF
:1082F00052020A21032003F0C1FB03210748017445
:1083000009E008E005200549087404E0002103485D
:10831000017400E000BF00BF10BD0000E0060020B7
:108320009EF0FF1F70B504460D46082C00DD70BDA1
:10833000E200044950180822294606F0F3FC00BF69
:10834000F5E7000004F9FF1F10B500240AE0E20081
:10835000064BD118E300064A9818082206F0E2FC02
:10836000601C84B2092CF2DB10BD0000F6C50100D0
:1083700004F9FF1FF8B505460F46082D00DDF8BDCE
:10838000002D06D11948C28A3946002002F056FD58
:1083900087B26900154A921C505A6421FBF73AFFD4
:1083A00084B264213846FBF735FF86B215E0B4424B
:1083B00002DD601E84B203E0B44201DA601C84B2C4
:1083C0006420604381B2284600F012F8B44204D120
:1083D0003946284600F00CF800E0E8E700BF6800E6
:1083E0000249891C0F5200BFC9E700008006002027
:1083F000F0B589B004460F4622A0006803907D22A4
:1084000092013946002002F019FD87B23846FCF788
:10841000F8FB054600221C4BFCF783F900221B4B9E
:1084200001910090FCF7A0F9079106900022184BEB
:1084300007990698FCF798F905462A460B4600204E
:10844000144905F05DFF059104906000124A105A2E
:10845000401C81B203AB0422002003F00DFD03AAEF
:108460000599049803F04CFC60000B4A115A03ABC9
:108470000122002003F08AFC012004F02BFA09B04D
:10848000F0BD00000000208A0040BF4000005940BD
:10849000000034400000244066C8010010B57D2172
:1084A0008901094A5180012007E07D2189014200AC
:1084B000054B9B1C9952411C88B20928F5DB7D2194
:1084C0008901014AD18210BD8006002010B5044602
:1084D000002C00D110BD094A0949204601F08EFC4C
:1084E000002800D1F6E7611ECA000649501808228C
:1084F0000349091D06F016FC0120EBE7AC0D000056
:1085000000F9FF1FB006002010B574480088401C19
:10851000724908807248807D030005F0A8F80705BD
:10852000092C5F8BAFC4DC0000206C490880D3E0CD
:108530006A480088FF21783188420ADD01F030FE68
:10854000002067498875FF2212020A21032003F0E8
:1085500095FA6349C87DFFF7B9FF00280AD00020CB
:108560005E49088006205E4988750846C07D4874CB
:1085700001F00CFEB0E059480088FF2178318842B4
:108580000CDD01F0F1FD002155488175FF2212023A
:108590000A21032003F072FAFEF75CFC5049C87D03
:1085A000FFF780FC002818D000204D498875084648
:1085B000C07D487401F0EAFDFEF7D8FA494800781A
:1085C00000280AD100220A21032003F057FA7F2253
:1085D00052020A21032003F051FA7DE03F4800884F
:1085E0007D21C90088420FDD01F0BEFD00203C491D
:1085F0008875FF2212020B21032003F03FFA38494D
:10860000C87D0121FFF7D0F83549C87D0021FFF76B
:10861000CBF800280DD000203149887500220A21AE
:10862000032003F02BFA7F2252020A21032003F0D9
:1086300025FA51E0294800887D21C90088420ADDD9
:1086400001F0AEFD002126488175FF2212020B21A8
:10865000032003F013FA2249C87DFEF749FF0028E2
:108660000BD000201D49088006201D4988757F22F7
:1086700052020A21032003F001FA2DE01748008876
:10868000FF217831884206DD01F06EFDFEF7CEFB5A
:10869000002013498875FFF727FC002802D000202E
:1086A0000F49887518E00D480088FF21783188420D
:1086B00004DD01F075FD00200949887500F014F80B
:1086C000002807D000210648817500220A210320D6
:1086D00003F0D4F900E000BF00BF10BDCAF0FF1FD7
:1086E000E0060020C6F0FF1F10B544220449002018
:1086F00001F084FB002800D110BD0120FCE7000040
:10870000AC06002010B500201C49487401F03EFD65
:1087100001210846FEF75EFB7D2080011749603984
:108720004880C88200240AE00022182060431449CF
:108730000A541820604340180273601C84B2082C4D
:10874000F2DB0121084600F07BF8002408E000F08D
:108750004DFD611CC8B20121FEF7CEFB601C84B246
:10876000082CF4DB00220A21032003F087F97F2282
:1087700052020A21032003F081F910BDE006002017
:10878000B0F9FF1FFEB505460C46A54207D0082DDF
:1087900005DC082C03DC002D01D0002C01D10020C9
:1087A000FEBD681E182148432349421807CA6B467C
:1087B00007C36946087810218843611E1822514377
:1087C0001D4A515CC906C90F090110221140084316
:1087D00069460870611EC8B26A460021FFF718F8A2
:1087E000691E18235943144BC9180A460C32611EDE
:1087F000C8B20121FFF70CF8002612E000F0F6FCE9
:108800006B1EFF2781377B430B4FC037DB190C27CB
:108810007743DA19F1B2631ED8B2FEF7B1FD701CCE
:1088200086B2202EEADB6800044A115A2046FFF780
:10883000A1FD0120B4E70000B0F9FF1F820600206F
:10884000F8B506460F460220FDF758F8122001F051
:108850008BFD002E0DD0012409E00B226243414B19
:10886000D218511CE0B2FFF7ADFB601C84B2092C9A
:10887000F3DB9620FFF76AFB002417E000F0B6FC5C
:1088800018216143374B6433CA18E0B20021FEF768
:10889000BFFF18216143334B6433C9180A460C32B9
:1088A000E0B20121FEF7B4FF601C84B2082CE5DBC6
:1088B000012408E060002C4A115AE0B20090FEF753
:1088C000E5FA601C84B2092CF4DB002F0DD00024E3
:1088D00009E06100244A1232515AE0B20091FFF7D8
:1088E00049FD601C84B2092CF3DB002407E01E4A1A
:1088F0002832115DE0B2FFF70DFC601C84B2092C38
:10890000F5DB002407E0184A3132115DE0B2FFF7D1
:1089100077FC601C84B2092CF5DB002416E00025EE
:1089200010E000F063FCFF20813060430F4BC01863
:108930000C236B43C218E9B2E0B20090FEF720FDB1
:10894000681C85B2202DECDB601C84B2082CE6DBB1
:10895000FEF70CF906480078062802D10320FCF740
:10896000CDFFF8BD4CF9FF1F7006002070FAFF1F05
:1089700072F0FF1FF8B506460F46002F08D17100B0
:10898000174A505A6421FBF745FC84B2002509E0E0
:10899000012F07D100247100114A505A6421FBF7BE
:1089A00039FC85B219E0AC4202DD601E84B203E0FE
:1089B000AC4201DA601C84B26420604381B230466C
:1089C000FFF716FDAC4208D1012F05D17000044A13
:1089D000115A3046FFF70CFD00E0E4E700BFF8BD98
:1089E00082060020FFB597B004460F461A98FCF7A0
:1089F00008F90022814B03910290FBF792FE0022BE
:108A00007F4B05910490FBF7AFFE159114902098D1
:108A1000FCF7F7F800227A4B05910490FBF7A4FECF
:108A2000139112903846FCF7ECF80022754B039135
:108A30000290FBF776FE0022714B05910490FBF744
:108A400093FE119110901998FCF7DBF80F910E909E
:108A500000226D4B11991098FBF786FE02460B46DB
:108A6000059104900020694905F04AFC0D910C9095
:108A700067480CC8002001218907FCF7C5F803915D
:108A800002900F9B0E9AFCF7BFF805910490614885
:108A90000CC80498FBF768FE0B910A900020012196
:108AA0008907139B129AFCF7AFF8059104900B9974
:108AB0000A9806F051F903910290059B049AFBF77E
:108AC00053FE099108900022534B15991498FBF717
:108AD0004BFE02460B460591049000204B4905F0E1
:108AE0000FFC079106900D9B0C9A09990898FBF7CB
:108AF0003BFE0022494B05910490FBF705FE05461D
:108B00000E460D9B0C9A09990898FCF77DF80022F7
:108B1000424B01910090FBF70FFE03910290079BDF
:108B2000069AFCF771F82A46334605910490FBF744
:108B30001BFE6160206008340B990A9805F000F96B
:108B4000002201239B0701910090FCF75DF80122B0
:108B5000D207514003910290079B069AFCF754F804
:108B60002A46334605910490FBF7FEFD61602060C4
:108B700008340D9B0C9A09990898FCF745F80022D7
:108B8000264B01910090FBF7BFFD03910290079BDC
:108B9000069AFCF739F82A46334605910490FBF70C
:108BA000E3FD6160206008340D9B0C9A09990898D8
:108BB000FBF7DAFD0022194B03910290FBF7B1FDA0
:108BC0002A46334605910490FBF7CEFD6160206094
:108BD00008340B990A9805F0B3F8002201239B078B
:108BE00003910290FCF710F82A4633460591049051
:108BF000FBF7BAFD616020601BB0F0BD00709740CC
:108C00000000594000C0A240000044400000244041
:108C1000C0C50100B8C50100000034400000F03FAD
:108C200010B50120FDF7F8FF03220221002002F019
:108C300025FF10BD10B50220FCF760FE042011498D
:108C40000870002003F00EFB0020FCF7DFFA29205B
:108C500001F08AFB072001F087FB062001F084FB6E
:108C6000282001F081FB084840680121090488435D
:108C700005494860084640680003C00F0349087072
:108C800010BD00003CF7FF1F30F1FF1F8EF0FF1FEB
:108C900010B50021232001F087FB232001F020FDE7
:108CA00010BDF8B506460C4615461F46232001F0B8
:108CB0005BFB3146002003F06FFA2002010E00201A
:108CC00003F06AFA2004010E002003F065FAE1B215
:108CD000002003F061FA05E0FF21002003F05CFAB8
:108CE00028706D1C3846791E8FB20028F4D12320DD
:108CF00001F0F6FCF8BDF8B505460C4616461F46D1
:108D0000232001F031FB2946002003F045FA200220
:108D1000010E002003F040FA2004010E002003F0B1
:108D20003BFAE1B2002003F037FA03E031460020BD
:108D300003F032FA3846791E8FB20028F6D123208C
:108D400001F0CEFCF8BD70B505460C46232001F0BD
:108D50000BFB2946002003F01FFA2002010E002021
:108D600003F01AFA2004010E002003F015FAE1B214
:108D7000002003F011FA232001F0B2FC70BDF8B519
:108D800006460C4615461F46232001F0EDFA3146F3
:108D9000002003F001FA2002010E002003F0FCF98C
:108DA0002004010E002003F0F7F9E1B2002003F0E7
:108DB000F3F904E029786D1C002003F0EDF9384642
:108DC000791E8FB20028F5D1232001F089FCF8BD6F
:108DD00010B50446232001F0C7FA2146002003F015
:108DE000DBF9232001F07CFC10BD02780B785A409F
:108DF00002700A7803785A400A7002780B785A4059
:108E00000270704700B503461846083002F0D2FDE4
:108E1000586801F04DFE1748007804218843154931
:108E2000087008460078C0218843803011490870D6
:108E300008464078102188430E49487000BF0D480D
:108E400000790C21084080080228F8D100BF0948A9
:108E50000079102108400028F9D106484078E02127
:108E60008843044948700846007980210843014935
:108E7000087100BD0040064000B5034618460830A2
:108E800002F098FD586801F013FE104800780421A4
:108E900088430E49087000BF0C4800791021084033
:108EA0000028F9D100BF0948007940210840002876
:108EB000F9D006484078E0218843044948700846C4
:108EC0000079802108430149087100BD0040064037
:108ED00000B503461846083002F06CFD586801F0F2
:108EE000E7FD10480078042188430E49087000BF50
:108EF0000C480079102108400028F9D100BF09482A
:108F00000079402108400028F9D006484078E02147
:108F10008843044948700846007980210843014984
:108F2000087100BD0040064010B5034600249807B4
:108F3000800F002802D01E4C204610BD30201D4955
:108F40004871002048700A2048721802000E08720A
:108F5000012048700B721804000E4872012000F0C6
:108F600073F81448407920210840002802D01048A6
:108F7000C01D04430F48407910210840002802D04A
:108F80000B480F3004430B484079C007C00F00283E
:108F900002D00748103004430648407902210840B7
:108FA000002802D00248113004432046C5E70000E3
:108FB000013000000000024070B5064600241F4941
:108FC0003046FBF71DF9401EC5B21D48407980218F
:108FD0000840002803D11B480443204670BD1848B0
:108FE000C0784021084000281AD11548C078802157
:108FF000084000280AD01248C0788006800EA906D2
:10900000890E884202D00F48001D04430C48C078E6
:1090100080098001A906890E08430949C8700AE041
:109020000748C0788006800EA906890E884202D0C3
:109030000448001D04432046D0E7000040420F00D2
:1090400000000240143000000949C96801221204DE
:109050001143074AD1608021064A5171002806D089
:1090600000BF04494979802211400029F9D0704796
:10907000003000F00000024030B503460C460025E9
:109080009807800F002802D0244D284630BD30209C
:109090002349487100204870062048721802000ECB
:1090A0000872012048700B721804000E48720220EA
:1090B00048702004000E48720C7203204870200E85
:1090C00048722002000E08720120FFF7BDFF14480D
:1090D000407920210840002802D01048C01D0543D7
:1090E0000F48407910210840002802D00B480F306B
:1090F00005430B484079C007C00F002802D007483D
:10910000103005430648407902210840002802D06B
:109110000248113005432846B8E70000013000003E
:109120000000024070B503460C461546002698071D
:10913000800F002802D02B4E304670BD30202A49C7
:10914000487100204870062048721802000E08720C
:10915000012048700B721804000E487202204870FB
:109160002004000E48720C7203204870200E4872D2
:109170002002000E0872042048702804000E487275
:109180000D7205204870280E48722802000E0872E1
:109190000120FFF759FF144840792021084000289A
:1091A00002D01048C01D06430F48407910210840E6
:1091B000002802D00B480F3006430B484079C00707
:1091C000C00F002802D007481030064306484079F7
:1091D00002210840002802D00248113006433046E0
:1091E000ABE70000013000000000024010B504F0C1
:1091F000BDF910BDFFB58FB004460F461198FBF7BF
:1092000000FD039102906A480CC8002001218907E3
:10921000FBF7FAFC01910090039B029AFBF7F4FC28
:109220000591049063480CC80498FBF79DFA0D91D2
:109230000C900D990C9805F08FFD0B910A900D99EB
:109240000C9804F07DFD09910890099B089A0B99F0
:109250000A98FBF759FA0022574B05910490FBF747
:1092600053FA0791069014211298FAF7D3FF03904E
:10927000FBF7BFFC02460B460591049000204F49C6
:1092800005F03EF805460E46002F50D10021216022
:109290006160083400204849099B089AFBF734FABA
:1092A000039102900120C0077040009501900B4689
:1092B0002846029A0199FBF7A7FC05910490079BA9
:1092C000069AFBF751FA61602060083400203A49A1
:1092D000099B089AFBF718FA2A4633460391029035
:1092E000FBF792FC05910490079B069AFBF73CFA6A
:1092F0006160206008340021216061600834099BAE
:10930000089A0B990A98FBF70CFA00222A4B039152
:109310000290FBF706FA0122D20751400591049012
:10932000079B069AFBF720FA616020603DE0012F61
:109330003BD10021216061600834284631460B9BF7
:109340000A9AFBF761FC05910490079B069AFBF7CC
:109350000BFA616020600834284631460B9B0A9A5C
:10936000FBF752FC05910490079B069AFBF7FCF96A
:109370006160206008340021216061600834099B2D
:10938000089A0B990A98FBF7CCF900220A4B039133
:109390000290FBF7C6F9FA07514005910490079B2C
:1093A000069AFBF7E1F96160206013B0F0BD0000A0
:1093B000C0C50100B8C501000000F03F0000244016
:1093C000FFB591B004460F461398FBF71AFC0391C2
:1093D00002909F480CC8002001218907FBF714FC6C
:1093E00001910090039B029AFBF70EFC05910490FB
:1093F00098480CC80498FBF7B7F90B910A900B99A1
:109400000A9805F0A9FC099108900B990A9804F0B4
:1094100097FC0791069000208F4905F0EBFC02466F
:109420000B460191009000208C49FBF79DF900222A
:1094300001239B0703910290FBF7E6FB02460B46D4
:109440000591049009990898FBF78EF90D910C90FD
:10945000002082490D9B0C9AFBF756F905460E46F3
:1094600014211498FAF7D6FE0390FBF7C2FB0246CC
:109470000B46059104900020794904F041FF0F91BB
:109480000E90002F74D100207449079B069AFBF7B9
:109490003BF92A46334601910090FBF765F90391A9
:1094A00002900F9B0E9AFBF7AFFB002201239B0754
:1094B00005910490FBF758F96160206008340020A2
:1094C0006649079B069AFBF71FF90122D2074A401B
:1094D000039202902A4633460399FBF745F905911A
:1094E00004900F9B0E9AFBF78FFB6160206008349D
:1094F00000205A49079B069AFBF706F92A4633468D
:1095000001910090FBF730F9039102900F9B0E9AA6
:10951000FBF77AFB002201239B0705910490FBF7E0
:1095200023F961602060083400204C490D9B0C9A9F
:10953000FBF7F7F80122D2074A40059204902A4629
:1095400033460599FBF710F961602060083400206C
:1095500001218907079B069AFBF756FB2A463346EB
:1095600005910490FBF700F9616020606DE0FFE772
:10957000012F6AD100203949079B069AFBF7D1F8E1
:109580002A46334601910090FBF7EEF803910290D2
:109590000F9B0E9AFBF738FB0022BB070591049046
:1095A000FBF7E2F861602060083400202B49079B3C
:1095B000069AFBF7B6F82A46334603910290FBF76A
:1095C000D3F8059104900F9B0E9AFBF71DFB616089
:1095D0002060083400202149079B069AFBF7A1F878
:1095E0002A46334601910090FBF7BEF803910290A2
:1095F0000F9B0E9AFBF708FB0022BB070591049016
:10960000FBF7B2F8616020600834002013490D9B1D
:109610000C9AFBF786F8FA074A40059204902A460E
:1096200033460599FBF7A0F86160206008340020FC
:10963000B907079B069AFBF7E7FA2A4633460591D6
:109640000490FBF791F86160206015B0F0BD000058
:10965000C0C50100B8C50100000008400000F03F8F
:1096600000002440FFB593B004460F461598FBF761
:10967000C8FA079106909F480CC80020012189076D
:10968000FBF7C2FA03910290079B069AFBF7BCFA1C
:109690000591049098480CC80498FBF765F80D9163
:1096A0000C900D990C9805F057FB0B910A900D99B1
:1096B0000C9804F045FB09910890002001218907CE
:1096C00005F098FB02460B460191009000208B4963
:1096D000FBF74AF8002201239B0703910290FBF756
:1096E00093FA02460B46059104900B990A98FBF7F2
:1096F0003BF80F910E90002080490F9B0E9AFBF7CC
:1097000003F805460E4614211698FAF783FD0390D8
:10971000FBF76FFA02460B4605910490002078494A
:1097200004F0EEFD11911090002F74D100207349C8
:10973000099B089AFAF7E8FF2A4633460191009000
:10974000FBF712F803910290119B109AFBF75CFA59
:10975000002201239B0705910490FBF705F8616047
:109760002060083400206549099B089AFAF7CCFF6D
:109770000122D2074A40039202902A4633460399B7
:10978000FAF7F2FF05910490119B109AFBF73CFA4F
:1097900061602060083400205849099B089AFAF754
:1097A000B3FF2A46334601910090FAF7DDFF03919B
:1097B0000290119B109AFBF727FA002201239B07C6
:1097C00005910490FAF7D0FF616020600834002012
:1097D0004A490F9B0E9AFAF7A4FF0122D2074A408A
:1097E000059204902A4633460599FAF7BDFF616059
:1097F00020600834002001218907099B089AFBF7A3
:1098000003FA2A46334605910490FAF7ADFF6160EA
:1098100020606DE0FFE7012F6AD100203749099BE6
:10982000089AFAF77EFF2A46334601910090FAF72C
:109830009BFF03910290119B109AFBF7E5F9002220
:10984000BB0705910490FAF78FFF61602060083430
:1098500000202A49099B089AFAF763FF2A463346F3
:1098600003910290FAF780FF05910490119B109AE2
:10987000FBF7CAF961602060083400201F49099B8A
:10988000089AFAF74EFF2A46334601910090FAF7FC
:109890006BFF03910290119B109AFBF7B5F9002220
:1098A000BB0705910490FAF75FFF61602060083400
:1098B000002012490F9B0E9AFAF733FFFA074A402D
:1098C000059204902A4633460599FAF74DFF6160E8
:1098D000206008340020B907099B089AFBF794F927
:1098E0002A46334605910490FAF73EFF61602060F6
:1098F00017B0F0BDC0C50100B8C501000000F03FC1
:109900000000244000220260426008300260426091
:109910000830064902604160083000210160416062
:109920000830026042600830704700000000F03FDD
:10993000FFB595B004460F461798FBF762F90591FD
:109940000490B1480CC8002001218907FBF75CF99D
:1099500003910290059B049AFBF756F90791069034
:10996000AA480CC80698FAF7FFFE0F910E900F99BF
:109970000E9805F0F1F90D910C900F990E9804F0E6
:10998000DFF90B910A901F98FBF73BF90022A04BDF
:1099900003910290FAF7B8FE079106901E98FBF724
:1099A00030F902460B4603910290974903C9FAF732
:1099B000DBFE05910490079B069AFBF725F90991B8
:1099C00008900999089805F0C7F9002201239B0720
:1099D00001910090FBF718F902460B4603910290A3
:1099E00000208C49FAF7C0FE002201239B07059155
:1099F0000490FBF709F902460B46079106900D9972
:109A00000C98FAF7B1FE1191109000208149119B3A
:109A1000109AFAF779FE05460E4614211898FAF7BF
:109A2000F9FB0590FBF7E5F802460B460791069017
:109A30000020794904F064FC13911290002F74D136
:109A4000002074490B9B0A9AFAF75EFE2A463346B9
:109A500003910290FAF788FE05910490139B129AE5
:109A6000FBF7D2F8002201239B0707910690FAF733
:109A70007BFE616020600834002066490B9B0A9AD7
:109A8000FAF742FE0122D2074A40059204902A4684
:109A900033460599FAF768FE07910690139B129AD0
:109AA000FBF7B2F8616020600834002059490B9B35
:109AB0000A9AFAF729FE2A46334603910290FAF7EA
:109AC00053FE05910490139B129AFBF79DF8002218
:109AD00001239B0707910690FAF746FE616020601C
